:200000000C9444240C9475240C9475240C9475240C9475240C9475240C9475240C94752449
:200020000C9475240C9475240C9475240C9475240C9475240C941E580C9475240C9475241B
:200040000C9475240C94B1A30C9475240C9475240C9475240C9475240C94DCBC0C94457FF3
:200060000C9475240C94CE490C9475240C9475240C9475240C9475240C9475240C9475243A
:200080000C9475240C9475240C9475240C9475240C9475240C9475240C9475240C94752498
:2000A0000C9475240C9475240C9475240C9475240C9475240C9475240C9475240C94752478
:2000C0000C9475240C9475240C9475240C9475240C9475240C9475240C9475240C94752458
:2000E0000C947524C27DC57DB47DB87DBE7DFC7DC97DCD7DD37DD77DDB7DE17DE57DE97D7A
:20010000FC7DEF7DF37DF77D617E667E6B7E757E7F7EF87E897E917E997EA37EAD7EB77E56
:20012000C67ED07EF87EDA7EE47EEE7E59BD67BD83BD91BDABBDB9BDD3BDD6BDD8BDDBBD9B
:20014000E3BD084AD73B3BCE016E84BCBFFDC12F3D6C74319ABD56833DDA3D00C77F11BE50
:20016000D9E4BB4C3E916BAAAABE000000803F05A84CCDB2D44EB93836A9020C50B9918618
:2001800088083CA6AAAA2ABE000000803F002F005344207072696E74696E672062797465CD
:2001A00020004E6F74205344207072696E74696E67002E0044656C6574696F6E20666169FA
:2001C0006C65642C2046696C653A200046696C652064656C657465643A002E006F70656E33
:2001E000206661696C65642C2046696C653A2000504944204175746F74756E652066696EA5
:200200006973686564212050757420746865206C617374204B702C204B6920616E64204B89
:200220006420636F6E7374616E74732066726F6D2061626F766520696E746F20436F6E66DC
:20024000696775726174696F6E2E6800504944204175746F74756E65206661696C6564213E
:200260002074696D656F75740020403A006F6B20543A006F6B20423A005049442041757498
:200280006F74756E65206661696C6564212054656D706572617475726520746F6F2068697C
:2002A000676800204B643A2000204B693A2000204B703A200020436C617373696320504948
:2002C0004420002054753A2000204B753A2000206D61783A2000206D696E3A200020643A01
:2002E000200020626961733A20002200556E6B6E6F776E20636F6D6D616E643A20220043F5
:2003000068616E67652066696C616D656E74005A204F6666736574203A20007A5F6D6178F0
:200320003A20007A5F6D696E3A20005A204F6666736574005A204F6666736574206F6B0030
:200340006C636420636F6E74726173742076616C75653A2000486F74656E64206F66667315
:200360006574733A007A5F6D696E3A2000795F6D696E3A2000785F6D696E3A2000205A3AE1
:200380000020593A0020436F756E7420583A200020453A00205A3A0020593A00583A0046D1
:2003A00049524D574152455F4E414D453A4D61726C696E2056313B20537072696E746572B0
:2003C0002F6772626C206D617368757020666F722067656E36204649524D574152455F5571
:2003E000524C3A68747470733A2F2F6769746875622E636F6D2F4572696B5A616C6D2F4DA0
:2004000061726C696E2F2050524F544F434F4C5F56455253494F4E3A312E30204D4143487E
:20042000494E455F545950453A4D656E64656C2045585452554445525F434F554E543A32C9
:2004400020555549443A30303030303030302D303030302D303030302D303030302D303037
:20046000303030303030303030300A004D656E64656C204F66662E004D656E64656C2072ED
:20048000656164792E0042656420646F6E652E0020423A0020453A00543A00426564204850
:2004A000656174696E672E0048656174696E6720646F6E652E0020573A0020453A00543A04
:2004C0000048656174696E672E2E2E002042403A0020403A00202F003A00205400202F0010
:2004E00020423A00202F006F6B20543A002569206D696E2C2025692073656300456E64202B
:2005000066696C65206C69737400426567696E2066696C65206C697374004E6F206D6F76AF
:20052000652E004D656E64656C2072656164792E00526573756D696E67207072696E7400D9
:200540005761697420666F7220757365722E2E2E00536C6565702E2E2E0053657474696E3C
:2005600067732053746F726564002044002049002020204D333031205000504944207365BD
:200580007474696E67733A00205A0020590020204D323036205800486F6D65206F666673A1
:2005A000657420286D6D293A00204500205A0020580020420020540020204D323035205319
:2005C00000416476616E636564207661726961626C65733A20533D4D696E206665656472F8
:2005E00061746520286D6D2F73292C20543D4D696E2074726176656C20666565647261742A
:200600006520286D6D2F73292C20423D6D696E696D756D207365676D656E742074696D65DF
:2006200020286D73292C20583D6D6178696D756D205859206A65726B20286D6D2F73292CD4
:2006400020205A3D6D6178696D756D205A206A65726B20286D6D2F73292C2020453D6D61D6
:2006600078696D756D2045206A65726B20286D6D2F73290020540020204D32303420530022
:20068000416363656C65726174696F6E3A20533D616363656C65726174696F6E2C20543DDF
:2006A0007265747261637420616363656C65726174696F6E00204500205A002059002020A3
:2006C0004D3230312058004D6178696D756D20416363656C65726174696F6E20286D6D2FA9
:2006E0007332293A00204500205A0020590020204D3230332058004D6178696D756D20669C
:20070000656564726174657320286D6D2F73293A00204500205A0020590020204D393220F5
:20072000580053746570732070657220756E69743A0053746F7265642073657474696E6742
:2007400073207265747269657665640048617264636F6465642044656661756C7420536501
:200760007474696E6773204C6F61646564006563686F3A002200656E717565696E672022DE
:20078000004D383420582059205A204500256920686F757273202569206D696E757465731E
:2007A00000446F6E65207072696E74696E672066696C650053544F505045442E2000507239
:2007C000696E7465722073746F707065642064756520746F206572726F72732E2046697845
:2007E00020746865206572726F7220616E6420757365204D39393920746F20726573746134
:2008000072742E202854656D70657261747572652069732072657365742E205365742069AC
:20082000742061667465722072657374617274696E6729006F6B004E6F204C696E65204ED9
:20084000756D626572207769746820636865636B73756D2C204C617374204C696E653A204C
:20086000004E6F20436865636B73756D2077697468206C696E65206E756D6265722C204C83
:20088000617374204C696E653A2000636865636B73756D206D69736D617463682C204C614C
:2008A0007374204C696E653A20004C696E65204E756D626572206973206E6F74204C617391
:2008C00074204C696E65204E756D6265722B312C204C617374204C696E653A20004D313186
:2008E000300057726974696E6720746F2066696C653A20002E006F70656E206661696C65C6
:20090000642C2046696C653A20002E006F70656E206661696C65642C2046696C653A2000C2
:2009200046696C652073656C6563746564002053697A653A200046696C65206F70656E6502
:20094000643A20002E006F70656E206661696C65642C2046696C653A20004E6F7720667222
:200960006573682066696C653A20004E6F7720646F696E672066696C653A20002220706F7D
:2009800073002220706172656E743A2200535542524F5554494E452043414C4C2074617209
:2009A0006765743A2200747279696E6720746F2063616C6C207375622D67636F6465206620
:2009C000696C6573207769746820746F6F206D616E79206C6576656C732E204D4158206CDC
:2009E0006576656C2069733A004D3234004D3233202573006175746F25692E6700000022FA
:200A000000250028002B002E003100340002010000050108010B010000200023002600291B
:200A2000002C002F0032000001000003010601090105050505070508080808020202020AC1
:200A40000A08080404040401010101010101010303030303030303040707070C0C0C0C0CF7
:200A60000C0C0C0202020206060606060606060B0B0B0B0B0B0B0B0102102020080810202F
:200A800040102040800201020108040201010204081020408080402010080402018004028D
:200AA000018040201008040201080402010102040810204080010204081020408000000A1F
:200AC0000B02090C0D0E0807030401000000000000000000000000000000000000000000C2
:200AE0000000000000000000001211100000000000000000000000000000000000000000C3
:200B0000000000022020506C616E6E657242756666657242797465733A2000204672656566
:200B2000204D656D6F72793A20004E6F76203134203230313600436F6D70696C65643A209A
:200B400000286E6F6E652C2064656661756C7420636F6E6669672900207C20417574686F10
:200B6000723A20004E6F7620313420323031362032303A32393A313300204C61737420551A
:200B80007064617465643A2000312E302E30004D61726C696E0020536F66747761726520AE
:200BA000526573657400205761746368646F67205265736574002042726F776E206F75741E
:200BC000205265736574002045787465726E616C20526573657400506F7765725570006535
:200BE00063686F3A007374617274006572726F722077726974696E6720746F2066696C6542
:200C000000656E6473746F7073206869743A205A00205A3A00656E6473746F707320686936
:200C2000743A20590020593A00656E6473746F7073206869743A20580020583A00656E646A
:200C400073746F7073206869743A20006563686F3A00446F6E6520736176696E67206669A6
:200C60006C652E006F6B004D32390053442063617264206F6B006F70656E526F6F742066BC
:200C800061696C656400766F6C756D652E696E6974206661696C6564004572726F723A0012
:200CA000534420696E6974206661696C006563686F3A0053746F7265206D656D6F7279006E
:200CC00042656400426564004E6F7A7A6C65004E6F7A7A6C650046616E20737065656400B4
:200CE00046616E2073706565640054656D7065726174757265004573746570732F6D6D00A3
:200D00004573746570732F6D6D005A73746570732F6D6D005A73746570732F6D6D00597366
:200D2000746570732F6D6D005973746570732F6D6D005873746570732F6D6D005873746529
:200D400070732F6D6D00412D7265747261637400412D7265747261637400416D61782065D5
:200D600000416D6178206500416D6178207A00416D6178207A00416D6178207900416D61F6
:200D800078207900416D6178207800416D61782078005654726176206D696E005654726130
:200DA00076206D696E00566D696E00566D696E00566D6178206500566D6178206500566D20
:200DC0006178207A00566D6178207A00566D6178207900566D6178207900566D61782078CC
:200DE00000566D617820780056652D6A65726B0056652D6A65726B00567A2D6A65726B00EE
:200E0000567A2D6A65726B005678792D6A65726B005678792D6A65726B00416363656C0011
:200E2000416363656C00436F6E74726F6C004D33303020533639382050323030004D33304D
:200E40003020533635392050323030004D6F76652061786973004D383000537769746368B6
:200E600020706F776572206F6E004D38310053776974636820706F776572206F6666004315
:200E80006F6F6C646F776E005072656865617420414253005072656865617420504C4100CB
:200EA00053657420686F6D65206F66667365747300473238004175746F20686F6D65004DC3
:200EC00038340044697361626C65207374657070657273004D61696E00580059005A004587
:200EE00078747275646572004578747275646572004D6F7665205A004D6F76652059004D23
:200F00006F76652058004D6F76652061786973004D6F766520302E316D6D004D6F766520CC
:200F2000316D6D004D6F76652031306D6D005072657061726500526573746F72652066611A
:200F4000696C73616665004C6F6164206D656D6F72790053746F7265206D656D6F7279001E
:200F60004C434420636F6E7472617374004D6F74696F6E0054656D7065726174757265000C
:200F80004D61696E0001050800FF060121023520FFFF07FF06FF0900502216568080808050
:200FA0000080153353A0A0A00257575050F850F850500257572070A07028702013355580E1
:200FC000A040A02002475740A0A040A0A050251353808080122656408080808040122656DA
:200FE0008040404040800245559060F060900255552020F82020113353604080044151F024
:2010000011335340E04002465610102040808012365640A0A0A0A04012365640C0404040BF
:20102000E00246566090106080F0024656F020601090600246562060A0F02020024656F0D8
:2010400080E01090600246566080E0909060024656F0102020404002465660906090906086
:20106000024656609090701060122555C0C000C0C0113656606000604080123656204080EB
:20108000804020034353F000F012365680402020408012365640A020400040015858304852
:2010A00098A8A8904030024656609090F09090024656E090E09090E002465660908080900E
:2010C00060024656E090909090E0024656F080E08080F0024656F080E080808002465660C8
:2010E0009080B090600246569090F0909090123656E040404040E002465670202020A04036
:2011000002465690A0C0A0A0900246568080808080F002465690F0F090909002465690D0A7
:20112000F0B0B090024656609090909060024656E09090E08080014757609090D0B06010A4
:20114000024656E09090E09090024656609040209060123656E04040404040024656909097
:2011600090909060024656909090906060024656909090F0F0900246569090606090900263
:201180005656888850202020024656F010204080F0123656E080808080E002465680804039
:2011A000201010123656E020202020E016325240A0014151F01622528040024454709090A0
:2011C000700246568080E09090E01234546080806002465610107090907002445460B0C09F
:2011E00060024656205040E0404001455560907010600246568080E090909012365640006A
:20120000C04040E01137572000202020A040024656808090E09090123656C040404040E043
:20122000025454D0A8A8A8024454E090909002445460909060014555E090E0808001455512
:201240007090701010024454A0D0808012345460C020C00246564040E04050200244549082
:20126000909070123454A0A0A04002545488A8A850024454906060900145559090709060BD
:20128000024454F02040F0024757304020C0204030221656808080808080024757C02040A6
:2012A000304020C006425250A0FFFFFFFFFFFFFFFFFFFFFFFFFFFFFFFFFFFFFFFFFFFFFF6B
:2012C000FFFFFFFFFFFFFFFFFFFF0900502216568000808080800146562070A0A0702002B2
:2012E00046562050E04050A002555588705070880256568850F820F8202217578080800020
:201300008080800247577080E0907010E0173151A002565670A8C8C8A87014355560A06048
:2013200000E003435350A050123353E02020143151E002565670E8D8E8D870173151E0152A
:20134000335340A04012355540E04000E014355540A02040E0143555C020C020C0162252A5
:201360004080014555909090E08002565678E8E8682828241151801122524080143555402B
:20138000C04040E014355540A04000E0034353A050A0024757808080A060F0200247578016
:2013A00080A0D010207002475780408060A0F02012365640004080A040024757402060903F
:2013C000F0909002475720406090F0909002475760906090F0909002475750A06090F0906D
:2013E0009002475790006090F0909002475760906090F0909002465670A0A0F0A0B00147C7
:2014000057609080809060400247574020F080E080F00247572040F080E080F002475760D5
:2014200090F080E080F00247579000F080E080F01237578040E0404040E01237572040E0AC
:20144000404040E012375740A0E0404040E0123757A000E0404040E00256567048E848484E
:201460007002475750A090D0B090900247574020609090906002475720406090909060025A
:2014800047576090609090906002475750A060909090600247579000609090906012335316
:2014A000A040A002465670B0B0D0D0E002475740209090909060024757204090909090607E
:2014C0000247576090909090906002475790009090909060025757102088502020200246AC
:2014E0005680E09090E0800246566090A0A090A002475740200070909070024757204000B8
:20150000709090700247572050007090907002475750A000709090700246565000709090AD
:201520007002475760906070909070025454F068B078113555608080604002475740200086
:2015400060B0C06002475720400060B0C06002475760900060B0C060024656500060B0C0AD
:2015600060123757804000C04040E0123757204000C04040E012375740A000C04040E012B9
:201580003656A000C04040E0024757A040A01070906002475750A000E0909090024757406F
:2015A000200060909060024757204000609090600247576090006090906002475750A0004B
:2015C000609090600246569000609090601235554000E0004002445470B0D0E002475740D7
:2015E00020009090907002475720400090909070024757609000909090700246569000901D
:2016000090907001485820400090907090600147578080E090E0808001475790009090700B
:201620009060FFFFFFFFFFFFFFF0FFFFFFFFFFFFFFF0FFFFFFF9FFFFFFF0FFFFFFF0FFFF1A
:20164000FFF0FFFFFFE07FFFFFF0FFFFFFC03FFFFFF0FFFFFF801FFFFFF0FFFFFF000FFFD2
:20166000FFF0FFFFFE0007FFFFF0FFFFFC0003FFFFF0FFFFF80001FFFFF0FFFFF00000FFCD
:20168000FFF0FFFFE000007FFFF0FFFFC000003FFFF0FFFF8000003FFFF0FFFF0000001F5A
:2016A000FFF0FFFE0000000FFFF0FFFE00000007FFF0FFFC00000007FFF0FFFC000000035E
:2016C000FFF0FFF800000003FFF0FFF800000003FFF0FFF800000001FFF0FFF8000000016A
:2016E000FFF0FFF800000001FFF0FFF800000001FFF0FFF800000001FFF0FFF8000000014E
:20170000FFF0FFF800000001FFF0FFF800000001FFF0FFF800000003FFF0FFF80000000329
:20172000FFF0FFFC00000003FFF0FFFC00000007FFF0FFFE00000007FFF0FFFE0000000FDD
:20174000FFF0FFFF0000001FFFF0FFFF8000001FFFF0FFFFC000003FFFF0FFFFE000007FB9
:20176000FFF0FFFFF00001FFFFF0FFFFFC0003FFFFF0FFFFFF001FFFFFF0FFFFFFFFFFFFAE
:20178000FFF0FFFFFFFFFFFFFFF0FFFFFFFFFFFFFFF0FFFFFFFFFFFFFFF0FFFFFFFFFFFFA5
:2017A000FFF0FFFFFFFFFFFFFFF0FFFFFFFFFFFFFFF083FFFFFE0FFFFFF080FFFFFE03FF6E
:2017C000FFF0887FFFFE23FFFFF08C70380E7181C0708C60380E6380C03080E319C607F85B
:2017E000C73080E019C60380C7108C6279C6639CC7308C63F8C67118C6308E30180E718035
:20180000C0309E38391E79C4C4F0FFFFF9FFFFFFC7F0FFFFF9FFFFFFC7F0FFFFFFFFFFFF6A
:20182000FFF0000000000000000000000000000000000000000000000000000000000000B9
:20184000000000000000000000000000000000000000000000000000000000000000000088
:201860005900B02000B02000B02000B02000B02000B020002D2D3A2D2D0000000000000041
:201880000000000000007FFFE00000000000000000000000007000E000000000000000009A
:2018A0000000000061F86000000000000000000000000041F8200000000000000000000016
:2018C000000040F020000000000000000000000000406020000000000000000000000000F8
:2018E0005801A07F80003FC0000000004104005C63A0FBC00079E0000000002082005EF742
:20190000A0F3C00076E0000000002082005EF7A0EBC0007EE0000000004104005C63A07B5F
:2019200080003DC0000000008208005801A07B80003BC000000001041000406020FBC00021
:2019400077E00000000104100040F020FBC00070E00000000082080041F820FFC0007FE0BF
:201960000000000041040061F8603F00001F80000000000000007000E01E00000F0000000E
:201980000001FFFF807FFFE00C0000060000000001FFFF80000000000000000000000000D9
:2019A0000000007FFFE00000000000000000000000007000E0000000000000000000000079
:2019C00000630C60000000000000000000000000470E200000000000000000000000004F74
:2019E0000F200000000000000000000000005F0FA00000000000000000000000005E07A0A5
:201A00007F80003FC000000000410400406020FBC00079E00000000020820040F020F3C00A
:201A20000076E00000000020820040F020EBC0007EE0000000004104004060207B80003D18
:201A4000C0000000008208005E07A07B80003BC0000000010410005F0FA0FBC00077E0000C
:201A60000000010410004F0F20FBC00070E000000000820800470E20FFC0007FE0000000AB
:201A800000410400630C603F00001F80000000000000007000E01E00000F0000000001FFD7
:201AA000FF807FFFE00C0000060000000001FFFF8000000000091200FC0A01E803D720FFB5
:201AC000FD0EFD0BFD00000009000E010B0B09040080808080808080000080800404040926
:201AE000030790909090080A0A090000242424FF2424FF242424070B0B0901FF107C929085
:201B000050381412927C10070A0A09010042A4A4481010244A4A84070A0A09010060909001
:201B20009060629488946201040409040780808080030C0C0903FF2040408080808080805E
:201B4000404020030C0C0903FF80404020202020202040408007070709010310925438545B
:201B60009210070707090101101010FE1010100204040904FEC0C04080070101090104FEDB
:201B8000020202090400C0C0070A0A09010002040408101020404080070A0A09010038449A
:201BA0008282828282824438070A0A090100103050901010101010FE070A0A090100384469
:201BC00082020408102040FE070A0A090100FE020408180402028478070A0A090100040C85
:201BE00014244484FE040404070A0A090100FE808080F80402028478070A0A0901003C409B
:201C00008080B8C482824438070A0A090100FE020404080810101010070A0A0901003844AA
:201C20008244384482824438070A0A09010038448282463A02020478020707090400C0C0A0
:201C4000000000C0C00209090904FEC0C0000000C0C04080050909090200081020408040CB
:201C6000201008070404090102FE0000FE050909090200804020100810204080070A0A09E7
:201C8000010038448202040810100010070A0A09010038449AAAAAAAAA9C403C070A0A09E8
:201CA000010010282828447C44828282070A0A090100F8848284F884828284F8070A0A094A
:201CC00001003C42808080808080423C070A0A090100F88482828282828284F8070A0A09BA
:201CE0000100FE808080F880808080FE070A0A090100FE808080F88080808080070A0A0930
:201D0000010038448280808E82824438070A0A09010082828282FE8282828282050A0A09DF
:201D20000200F82020202020202020F8070A0A0901003E080808080808888870070A0A097A
:201D4000010082848890A0D088848282070A0A090100808080808080808080FE070A0A091D
:201D600001008282C6AA928282828282070A0A0901008282C2A2928A86828282070A0A09F9
:201D800001007C82828282828282827C070A0A090100F884828284F880808080080B0B09F2
:201DA00001FF384482828282828A443A01070A0A090100F884828284F890888482070A0ABA
:201DC0000901007C8280807C020202827C070A0A090100FE101010101010101010070A0AAD
:201DE00009010082828282828282824438070A0A09010082828244444428282810070A0A33
:201E00000901008282828292929292AA44070A0A09010082824428101028448282070A0A3A
:201E200009010082824428101010101010070A0A090100FE0204081020408080FE040C0C0D
:201E40000903FFF080808080808080808080F0070A0A09010080404020101008040402041C
:201E60000C0C0902FFF010101010101010101010F007040409010610284482080101090090
:201E8000FFFF03030309030A8040200707070901007C02027E82867A070A0A090100808081
:201EA00080BCC2828282C2BC0707070901007C82808080827C070A0A0901000202027A865A
:201EC000828282867A0707070901007C8282FE80827C070A0A0901001C22222020F8202064
:201EE0002020070A0A0901FD7A84848478807C82827C070A0A090100808080BCC2828282DD
:201F00008282050A0A090200600000E02020202020F8050D0D0902FD18000038080808082A
:201F20000808888870070A0A090100808080848890B0C88482050A0A090200E020202020CE
:201F400020202020F8070707090100EC929292929282070707090100BCC282828282820774
:201F600007070901007C82828282827C070A0A0901FDB8C4828282C4B8808080070A0A0983
:201F800001FD3A46828282463A0202020707070901009C6242404040400707070901007CBD
:201FA00082807C02827C0709090901002020FC20202020221C0707070901008282828282DD
:201FC000867A070707090100828244442828100707070901008282929292AA440707070911
:201FE000010082442810284482070A0A0901FD42422424241818109060070707090100FE95
:202000000408102040FE060B0B0902001C20202020C0202020201C010C0C0904FF80808082
:20202000808080808080808080060B0B090100E0101010100C10101010E007030309010790
:2020400062928CFFFFFFFFFFFFFFFFFFFFFFFFFFFFFFFFFFFFFFFFFFFFFFFFFFFFFFFFFF1D
:20206000FFFFFFFF00000009000E010B0B0904008080000080808080808080060808090189
:202080000008789490A0A47840070A0A0901001C222020F8202060A25C07060609010382C5
:2020A0007C44447C82070A0A090100828244287C107C101010010B0B0904FF8080808080AE
:2020C000008080808080040B0B0902FF609080609090906010906003020209030BA0A00816
:2020E00009090900013C4299A5A1A599423C050707090103609070907800F807080809010A
:20210000011224489090482412060404090102FC040404050101090204F80809090900014E
:202120003C42B9A5BDA9A5423C060101090109FC0404040903066090906007090909010101
:20214000101010FE10101000FE0406060901046090106080F0040606090104609020109067
:202160006003030309030A2040800709090901FE8282828282C6BA8080070A0A0901007E32
:202180008A8A8A7A0A0A0A0A0A020202090404C0C00403030902FD2090600306060901041F
:2021A00040C0404040E00506060901047088887000F807080809010190482412122448903A
:2021C000070A0A09010040C0404042E60A121A06070A0A09010040C040404CF2020C101ED7
:2021E000070A0A0901006090201092660A121A06070A0A0901001000101020408082827CB1
:20220000070E0E0901002010080010282828447C44828282070E0E090100081020001028AA
:202220002828447C44828282070E0E0901001028440010282828447C44828282070D0D09DF
:20224000010034580010282828447C44828282070D0D09010028280010282828447C448256
:202260008282070E0E0901001028281010282828447C44828282070A0A0901001E282828F0
:202280004E784888888E070D0D0901FD3C42808080808080423C082418070E0E09010020DD
:2022A000100800FE808080F880808080FE070E0E09010008102000FE808080F880808080B7
:2022C000FE070E0E09010010284400FE808080F880808080FE070D0D090100282800FE80EA
:2022E0008080F880808080FE050E0E09020040201000F82020202020202020F8050E0E0932
:20230000020010204000F82020202020202020F8050E0E09020020508800F820202020209F
:20232000202020F8050D0D090200505000F82020202020202020F8070A0A09010078444268
:2023400042F24242424478070D0D0901003458008282C2A2928A86828282070E0E09010053
:20236000201008007C82828282828282827C070E0E090100081020007C82828282828282AE
:20238000827C070E0E090100102844007C82828282828282827C070D0D0901003458007C5B
:2023A00082828282828282827C070D0D0901002828007C82828282828282827C07070709F0
:2023C000010182442810284482070C0C0901FF027C868A8A9292A2A2C27C80070E0E09017C
:2023E000002010080082828282828282824438070E0E090100081020008282828282828226
:20240000824438070E0E0901001028440082828282828282824438070D0D0901002828000E
:2024200082828282828282824438070E0E0901000810200082824428101010101010070ACA
:202440000A0901008080FC828282FC808080060A0A09010038444448D04844444458070BF0
:202460000B090100201008007C02027E82867A070B0B090100081020007C02027E82867AB0
:20248000070B0B090100102844007C02027E82867A070A0A0901003458007C02027E828662
:2024A0007A070A0A0901002828007C02027E82867A070C0C09010010282810007C02027E16
:2024C00082867A0707070901006C12127E90926C070A0A0901FD7C82808080827C10483099
:2024E000070B0B090100201008007C8282FE80827C070B0B090100081020007C8282FE8024
:20250000827C070B0B090100102844007C8282FE80827C070A0A0901002828007C8282FE2B
:2025200080827C050C0C0902008040200000E02020202020F8050C0C090200102040000005
:20254000E02020202020F8050C0C0902002050880000E02020202020F8050B0B09020050F5
:20256000500000E02020202020F8070B0B090100483050083C448282824438070A0A0901F5
:2025800000345800BCC28282828282070B0B090100201008007C82828282827C070B0B09A0
:2025A0000100081020007C82828282827C070B0B090100102844007C82828282827C070A2A
:2025C0000A0901003458007C82828282827C070A0A0901002828007C82828282827C0709D2
:2025E0000909010010381000FE001038100709090901FF027C8A8A92A2A27C80070B0B096E
:202600000100402010008282828282867A070B0B090100081020008282828282867A070BC4
:202620000B090100102844008282828282867A070A0A0901002828008282828282867A0779
:202640000E0E0901FD0408100042422424241818109060070B0B0901FE8080B8C4828282F4
:20266000C4B88080070D0D0901FD2424004242242424181810906000060900FE06018902AF
:20268000FE20FFFE07FE06FE00000006000701060606020080808080008003030306010361
:2026A000A0A0A00507070600FF5050F850F850500509090600FE2070A8A07028A8702006D9
:2026C00008080600FF40A84810204854080507070600FF6090906098906801030306020347
:2026E0008080800207070602FF408080808080400207070602FF80404040404080050505DD
:202700000600008850F850880505050600002020F820200204040602FEC0404080050101A7
:20272000060002F8020202060200C0C004060606010010102040808004060606010060906D
:202740009090906003060606010040C0404040E00406060601006090102040F00406060636
:202760000100F020601010E005060606000010305090F810040606060100F080E01010E042
:202780000406060601006080E0909060040606060100F01010204040040606060100609014
:2027A00060909060040606060100609090701060020505060200C0C000C0C0020707060296
:2027C000FEC0C000C04040800505050600001860806018050303060001F800F8050505061F
:2027E0000000C0300830C0040707060100609010604000400506060600007090A8B0807099
:20280000050606060000205088F88888050606060000F088F08888F004060606010060901B
:2028200080809060040606060100E090909090E0040606060100F080E08080F00406060624
:202840000100F080E0808080040606060100609080B090600406060601009090F0909090A9
:20286000030606060100E040404040E005060606000038101010906004060606010090A0CC
:20288000C0A090900406060601008080808080F005060606000088D8A8A888880406060644
:2028A000010090D0B0909090050606060000708888888870040606060100E09090E0808049
:2028C0000407070601FF609090D0B06010040606060100E09090E0909004060606010060E2
:2028E0009040209060050606060000F82020202020040606060100909090909060040606F2
:20290000060100909090F060600506060600008888A8A8D8880506060600008850202050FA
:2029200088050606060000888850202020040606060100F010204080F0030606060100E05B
:2029400080808080E0040606060100808040201010030606060100E020202020E00503039F
:202960000600032050880501010600FEF8020202060204804004040406010070909070046A
:2029800006060601008080E09090E00404040601007080807004060606010010107090908A
:2029A0007004040406010060B0C070040606060100205040E040400406060601FE60909098
:2029C0007010600406060601008080E09090900306060601004000C04040E00308080601E0
:2029E000FE200060202020A0400406060601008080A0C0A090030606060100C0404040409C
:202A0000E0050404060000D0A8A888040404060100E0909090040404060100609090600481
:202A200006060601FEE09090E080800406060601FE709090701010040404060100A0D0806D
:202A40008004040406010070C030E00406060601004040E0405020040404060100909090B9
:202A6000700404040601009090606005040406000088A8A8500404040601009060609004C1
:202A800006060601FE909090709060040404060100F02040F003070706010020404080404A
:202AA00040200107070602FF808080808080800307070601008040402040408004020206DA
:202AC000010350A0FFFFFFFFFFFFFFFFFFFFFFFFFFFFFFFFFFFFFFFFFFFFFFFFFFFFFFFF1E
:202AE000FFFFFFFFFF0000000600070106060602008000808080800406060601FF2070A0F3
:202B0000A070200507070600FF304840F04040F8050505060000A8508850A80506060600A9
:202B2000008850F820F8200107070602FF808080008080800407070601FF7080609060100F
:202B4000E0030101060105A0060707060000788494A494847803050506010160A06000E0B1
:202B60000505050600002850A05028040303060100F01010040101060102F0060707060076
:202B8000007884B4A4A48478040101060105F00403030601026090600507070600FF202084
:202BA000F8202000F803050506010140A02040E0030505060101C0204020C002020206028D
:202BC0000440800405050601FF9090B0D08005060606000078E8E8682828010101060202D9
:202BE000800202020602FE408003050506010140C04040E003050506010140A04000E005FA
:202C00000505060000A0502850A00508080600FF40C04050703078100508080600FF40C0B0
:202C20004050680810380508080600FFC0204030F030781004070706010020002060809071
:202C4000600507070600004020205070888805070706000010202050708888050707060059
:202C600000205020507088880507070600002850205070888805070706000050002050702A
:202C800088880507070600002050205070888805060606000078A0F0A0A0B8040808060179
:202CA000FE60908080906020400407070601004020F080E080F00407070601002040F080B4
:202CC000E080F00407070601002050F080E080F00407070601005000F080E080F003070721
:202CE0000601008040E0404040E00307070601002040E0404040E003070706010040A0E0BD
:202D0000404040E0030707060100A000E0404040E00506060600007048E848487004070712
:202D200006010050A090D0B0909004070706010040206090909060040707060100204060AA
:202D4000909090600407070601002050609090906004070706010050A060909090600407E6
:202D6000070601005000609090906005050506000088502050880408080601FF1070B0B0A6
:202D8000D0D0E08004070706010040209090909060040707060100204090909090600407F6
:202DA0000706010020509090909060040707060100500090909090600507070600001020A3
:202DC000885020202004060606010080E09090E0800406060601006090A0A090A00407073B
:202DE00006010040200070909070040707060100204000709090700407070601002050006A
:202E00007090907004070706010050A0007090907004060606010050007090907004070730
:202E20000601002050207090907005040406000070A8B0780406060601FE70808070204053
:202E400004070706010040200060B0C07004070706010020400060B0C070040707060100E7
:202E600020500060B0C070040606060100500060B0C070030707060100804000C04040E003
:202E8000030707060100204000C04040E003070706010040A000C04040E00306060601006C
:202EA000A000C04040E00407070601003060107090906004070706010050A000E090909010
:202EC000040707060100402000609090600407070601002040006090906004070706010027
:202EE0002050006090906004070706010050A0006090906004060606010050006090906052
:202F00000505050600002000F8002004040406010070B0D0E00407070601004020009090E8
:202F2000907004070706010020400090909070040707060100205000909090700406060639
:202F400001005000909090700409090601FE2040009090907090600408080601FE8080E07C
:202F60009090E080800408080601FE500090909070906000002100240027002A002D0030E5
:202F800000330001010000040107010A0120746F6F206C6F6E6720657874727573696F6E91
:202FA0002070726576656E7465640020636F6C6420657874727573696F6E2070726576650F
:202FC0006E746564006563686F3A00507265686561742041425320636F6E66005072656859
:202FE00065617420504C4120636F6E66005049442D43005049442D43005049442D4400509C
:2030000049442D44005049442D49005049442D49005049442D50005049442D500020022016
:20302000466163740020022046616374002002204D6178002002204D6178002002204D698A
:203040006E002002204D696E004F6666004F6E20004F6666004F6E200046616E207370652F
:2030600065640046616E2073706565640042656400426564004E6F7A7A6C6532004E6F7A40
:203080007A6C6532004E6F7A7A6C65004E6F7A7A6C6500436F6E74726F6C0053746F7265C1
:2030A000206D656D6F72790042656400426564004E6F7A7A6C65004E6F7A7A6C6500466196
:2030C0006E2073706565640046616E2073706565640054656D70657261747572650022005B
:2030E000656E717565696E672022007C3C3E5E2B3D3F2F5B5D3B2C2A225C0024F4D43050D5
:20310000C38E20C2A24017828B7011127A910D816CD90AA861E108C7586607615143061E64
:203120004B5D05C145A7041A411104093D9803713931034036DB0265339102D430540280AA
:203140002E1D02632CEE01752AC501B028A001102781018F2564012B244B01E0223401AC76
:20316000211F018D200D01801FFC00841EED00971DDF00B81CD200E61BC600201BBC0064CE
:203180001AB200B219A8000A19A0006A189900D117910040178B00B516840031167E00B3F0
:2031A0001579003A157300C7146F0058146A00EE1366008813630025135E00C7125B006C04
:2031C00012570015125400C111510070114F0021114B00D61049008D1047004610440002EC
:2031E000104200C00F4000800F3E00420F3C00060F3B00CB0E3800930E37005C0E35002715
:203200000E3400F30D3200C10D3100900D3000600D2E00320D2D00050D2C00D90C2B00AE6B
:203220000C2900850C29005C0C2700350C27000E0C2600E80B2400C40B2400A00B23007D13
:203240000B23005A0B2100390B2100180B2000F80A1F00D90A1E00BB0A1E009D0A1D0080C9
:203260000A1D00630A1C00470A1B002C0A1B00110A1A00F7091A00DD091900C4091900AB02
:20328000091900920917007B091800630917004C09160036091600200916000A091500F51F
:2032A000081500E0081400CC081400B8081400A4081400900813007D0812006B0813005859
:2032C0000812004608120034081100230811001208110001081100F0071000E0071000D0D8
:2032E000071000C0071000B0070F00A107100091070E0083070F0074070F0065070E0057C8
:20330000070E0049070E003B070D002E070E0020070D0013070D0006070D00F9060C00ED3B
:20332000060D00E0060C00D4060C00C8060C00BC060C00B0060C00A4060B0099060C008D4B
:20334000060B0082060B0077060B006C060B0061060A0057060B004C060A0042060A003805
:20336000060A002E060A0024060A001A060A001006090007060A00FD050900F4050900EB73
:20338000050900E2050900D9050900D0050900C7050900BE050900B5050800AD050800A5A8
:2033A0000509009C050800940508008C050800840508007C050800740508006C05070065A4
:2033C0000508005D050700560508004E050700470507004005080038050700310507002A6F
:2033E000050700230507001C050600160507000F0507000805060002050700FB040600F513
:20340000040700EE040600E8040600E2040700DB040600D5040600CF040600C9040600C397
:20342000040600BD040600B7040600B1040500AC040600A6040600A00405009B04060095F7
:20344000040500900406008A04050085040500800406007A04050075040500700405006B39
:2034600004050066040500610405005C04050057040500520405004D040500480405004360
:203480000405003E0404003A04050035040500300404002C04050027040400230405001E76
:2034A0000404001A04040016040500110404000D040400090405000404040000040400FC73
:2034C000030400F8030400F4030400F0030400EC030400E8030400E4030400E0030400DC64
:2034E000030400D8030400D4030400D0030400CC030400C8030300C503030024F404D920B3
:203500001BC40C5C0E9804C4095F0265077101F405F900FB04B30048048700C103690058B2
:2035200003550003034500BE023A008402310053022A002902250004022000E4011C00C879
:20354000011900AF0117009801140084011300710110006101100051010E0043010D00366A
:20356000010B002B010B0020010B00150109000C01090003010800FB000800F3000800EBB2
:20358000000700E4000600DE000600D8000600D2000600CC000500C7000500C2000500BD7F
:2035A000000400B9000400B5000400B1000400AD000400A9000400A5000300A20003009F92
:2035C0000004009B000300980003009500020093000300900003008D0002008B0003008849
:2035E0000002008600020084000300810002007F0002007D0002007B0002007900020077C8
:20360000000100760002007400020072000100710002006F0002006D0001006C0002006A1E
:2036200000010069000200670001006600010065000100640002006200010061000100605E
:203640000001005F0002005D0001005C0001005B0001005A0001005900010058000100578C
:203660000001005600010055000100540001005300000053000100520001005100010050AB
:203680000001004F0001004E0000004E0001004D0001004C0001004B0000004B0001004AC0
:2036A0000001004900010048000000480001004700010046000000460001004500000045CF
:2036C0000001004400010043000000430001004200000042000100410000004100010040D5
:2036E0000001003F0000003F0001003E0000003E0001003D0000003D0001003C0000003CDA
:203700000000003C0001003B0000003B0001003A0000003A000100390000003900010038D5
:203720000000003800000038000100370000003700010036000000360000003600010035D1
:203740000000003500000035000100340000003400000034000100330000003300000033C8
:203760000001003200000032000000320001003100000031000000310001003000000030BD
:20378000000000300001002F0000002F0000002F0000002F0001002E0000002E0000002EB1
:2037A0000001002D0000002D0000002D0000002D0001002C0000002C0000002C0000002CA3
:2037C0000001002B0000002B0000002B0000002B0001002A0000002A0000002A0000002A93
:2037E000000100290000002900000029000000290000002900010028000000280000002882
:2038000000000028000000280001002700000027000000270000002700000027000100266D
:2038200000000026000000260000002600000026000100250000002500000025000000255B
:20384000000000250000002500010024000000240000002400000024000000240001002345
:20386000000000230000002300000023000000230000002300000023000100220000002231
:2038800000000022000000220000002200000022000100210000002100000021000000211B
:2038A000000000210000002100000021000100200000002000000020000000200000002004
:2038C0000000002000000020000000200001001F0000001F0000001F0000001F0000001FEC
:2038E0000000001F0000001F0001001E0000001E0000001E0000001E0000004B494C4C45A0
:20390000442E20005072696E7465722068616C7465642E206B696C6C28292063616C6C6533
:2039200064210053544F505045442E20005072696E7465722073746F707065642064756534
:2039400020746F206572726F72732E2046697820746865206572726F7220616E642075732C
:2039600065204D39393920746F20726573746172742E202854656D7065726174757265207E
:2039800069732072657365742E205365742069742061667465722072657374617274696E63
:2039A0006729004572726F723A000000964300007F4300008C4300000000000000000000C9
:2039C00000000000000000000000000000000000A0400000A040000000400000964300000E
:2039E0007F4300008C43FFFFFF4D383420582059205A2045004E6F20534420636172640082
:203A00005072696E742066726F6D2053440053746F70207072696E7400526573756D65208A
:203A20007072696E74005061757365207072696E7400436F6E74726F6C00507265706172C3
:203A4000650054756E6500496E666F2073637265656E004D363030004368616E676520668A
:203A6000696C616D656E7400466C6F77203100466C6F77203100466C6F77203000466C6F81
:203A800077203000466C6F7700466C6F770046616E2073706565640046616E207370656507
:203AA000640042656400426564004E6F7A7A6C6532004E6F7A7A6C6532004E6F7A7A6C65A2
:203AC000004E6F7A7A6C65005370656564005370656564004D61696E0070012C01900127A7
:203AE00001B0012201C0011D01F00118011002130130020E016002090190020401C002FFDD
:203B0000000003FA004003F5008003F000D003EB002004E6007004E100E004DC004005D704
:203B200000C005D2004006CD00D006C8008007C3003008BE00F008B900C009B400B00AAF66
:203B400000B00BAA00D00CA500000EA000500F9B00C01096005012910000148C00C0158782
:203B600000B0178200B0197D00D01B7800001E730040206E0090226900F024640040275F9B
:203B80000090295A00E02B5500102E500020304B0010324600E033410090353C001037372E
:203BA0000070383200A0392D00B03A2800A03B2300603C1E00103D1900903D1400103E0FB7
:203BC00000703E0A00C03E0500003F0000202D20496E76616C696420657874727564657224
:203BE000206E756D6265722021001000600350012C0190012201D001180110020E017002B9
:203C00000401E002FA006003F0000004E600B004DC00A005D200B006C8000008BE00A00992
:203C2000B400800BAA00D00DA00090109600C0138C0070178200901B780010206E00C024DB
:203C40006400E02D500080353C00A03A2800A03D1400003F0000A03FECFF4572723A204DE6
:203C6000415854454D50003A204578747275646572207377697463686564206F66662E20A4
:203C80004D415854454D50207472696767657265642021004572723A204D494E54454D504D
:203CA000003A204578747275646572207377697463686564206F66662E204D494E54454D69
:203CC00050207472696767657265642021004572723A204D415854454D5020424544005498
:203CE000656D70657261747572652068656174656420626564207377697463686564206FAA
:203D000066662E204D415854454D5020747269676765726564202121004572726F723A00EA
:203D200000060900FE070199032B20FFFE08FE07FE000000060000010707060200808080E2
:203D400080800080030303060104A0A0A00507070600005050F850F850500507070600003D
:203D60002070A07028702005070706000048A8502050A89005070706000040A0A040A890D9
:203D80006801030306020480808003070706010020408080804020030707060100804020D8
:203DA000202040800505050600018850F850880505050600012020F820200303030601FFA8
:203DC000604080050101060003F80303030601FF40E04005070706000008081020408080B3
:203DE000050707060000205088888850200507070600002060A0202020F805070706000088
:203E0000708808304080F8050707060000F808103008887005070706000010305090F81020
:203E200010050707060000F880B0C8088870050707060000304080B0C888700507070600D7
:203E400000F808101020404005070706000070888870888870050707060000708898680800
:203E600010600307070601FF40E0400040E0400307070601FF40E04000604080040707064C
:203E8000010010204080402010050303060002F800F80407070601008040201020408005D0
:203EA000070706000070881020200020050707060000708898A8B08070050707060000205C
:203EC000508888F88888050707060000F04848704848F00507070600007088808080887068
:203EE000050707060000F04848484848F0050707060000F88080F08080F80507070600004F
:203F0000F88080F080808005070706000070888080988870050707060000888888F88888DF
:203F200088030707060100E04040404040E005070706000038101010109060050707060047
:203F4000008890A0C0A09088050707060000808080808080F80507070600008888D8A888EF
:203F600088880507070600008888C8A8988888050707060000708888888888700507070636
:203F80000000F08888F08080800508080600FF7088888888A87008050707060000F08888CE
:203FA000F0A0908805070706000070888070088870050707060000F820202020202005077B
:203FC00007060000888888888888700507070600008888885050502005070706000088884A
:203FE00088A8A8D88805070706000088885020508888050707060000888850202020200592
:204000000707060000F80810204080F8030707060100E08080808080E005070706000080B3
:20402000804020100808030707060100E02020202020E005030306000420508805010106EE
:2040400000FFF8020202060206804005050506000070087888780507070600008080B0C8FF
:2040600088C8B00505050600007088808870050707060000080868988898680505050600F5
:20408000007088F88070050707060000304840F04040400507070600FE78888878088870A8
:2040A0000507070600008080B0C88888880307070601004000C0404040E00409090601FE04
:2040C00010003010101090906005070706000080808890E09088030707060100C04040402F
:2040E0004040E0050505060000D0A8A8A888050505060000B0C88888880505050600007051
:20410000888888700507070600FEB0C888C8B080800507070600FE6898889868080805054F
:2041200005060000B0C880808005050506000070807008F00507070600004040F0404048BE
:2041400030050505060000888888986805050506000088885050200505050600008888A8D0
:20416000A85005050506000088502050880507070600FE8888986808887005050506000026
:20418000F8102040F8040707060100304020C020403001070706020080808080808080042B
:2041A0000707060100C02040304020C005030306000448A8900000000100000000000100E3
:2041C0000000000001000000000001000000000001000000000001000000000001000000DA
:2041E0000000010000000000010000000000010000000000010000000000010000000000BA
:20420000010000000000010000000000010000000000010000000000010000000000010098
:20422000000000000100000000000100000000000100000000000100000000000100000079
:20424000000001000000000001000000000001000000000001000000000001000000000059
:20426000010000000000010000000000010000000000010000000000010000000000060033
:2042800000010707060200800080808080800507070600FF2078A0A0A078200507070600C6
:2042A00000304840E04048B005050506000088705070880508080600FF88885020F8202007
:2042C00020010707060200808080008080800508080600FF7080E09048380870030101062A
:2042E0000107A00507070600007088A8C8A888700406060601017090B05000F006050506D7
:2043000000002448904824040202060102F010040101060103F00507070600007088E8C863
:20432000C88870050101060007F803030306010440A0400506060600002020F82020F804F2
:20434000050506010360902040F0040505060103E0106010E00202020602064080050606CC
:204360000600FF888888C8B08005070706000078E8E86828282801010106020380020202D3
:204380000602FE408003050506010340C04040E00406060601016090906000F006050506E2
:2043A000000090482448900609090600FF40C04040E40C143C040609090600FF40C04040AB
:2043C000E81404081C0509090600FFC0204020C81828780805070706000020002020408894
:2043E000700508080600004020708888F888880508080600001020708888F8888805080862
:204400000600002050708888F8888805080806000048B0708888F888880508080600005098
:2044200000708888F888880508080600002050708888F888880607070600003C50909CF01F
:20444000909C0509090600FE70888080808870204005080806000040F88080F08080F80505
:20446000080806000010F88080F08080F805080806000020F88080F08080F8050808060000
:204480000050F88080F08080F80308080601008040E040404040E00308080601002040E0F8
:2044A00040404040E003080806010040A0E040404040E0030808060100A000E040404040C8
:2044C000E0050707060000F04848E84848F0050808060000285088C8A898888805080806AD
:2044E000000040207088888888700508080600001020708888888870050808060000205086
:20450000708888888870050808060000285070888888887005080806000050007088888895
:2045200088700505050600008850205088050707060000709898A8C8C87005080806000022
:2045400040208888888888700508080600001020888888888870050808060000205000886D
:204560008888887005080806000050008888888888700508080600001020888850202020A5
:2045800005070706000080F088F0808080050707060000708890A09088B005080806000076
:2045A000402000700878887805080806000010200070087888780508080600002050007075
:2045C00008788878050808060000285000700878887805070706000050007008788878057A
:2045E0000808060000205020700878887806050506000078147C907C0507070600FE7088EC
:2046000080887020400508080600004020007088F880700508080600001020007088F880AC
:20462000700508080600002050007088F8807005070706000050007088F88070030808063D
:204640000100804000C0404040E0030808060100408000C0404040E003080806010040A005
:2046600000C0404040E0060A0A0600FEA4A800FC8480808084FC060A0A0600FE549400FCEE
:204680008404040484FC050808060000285000B0C88888880508080600004020007088886C
:2046A0008870040A0A0602FE30408090909090909090040A0A0600FEC02010909090909028
:2046C0009090060707060001448C8C8480403C06070706000188C4C4840408F00505050603
:2046E00000012000F8002005080806000040F0C88888987810050808060000E0F8888888B3
:204700008888F80505050600012030F830200508080600002070F820202020E005090906C3
:2047200000FF2070A8A8B8888850200509090600FFE080C0B0A8A83028280509090600FF8A
:20474000F8A88888888888A8F8050A0A0600FE205050505088A8A8887043617264207265B3
:204760006D6F766564004361726420696E736572746564004C434420636F6E7472617374C5
:20478000004D3234004D323320257300F92E2E004D61696E005072656865617420504C415C
:2047A00020426564005072656865617420504C4120416C6C005072656865617420504C4109
:2047C0002032005072656865617420504C41203100507265706172650050726568656174D8
:2047E000204142532042656400507265686561742041425320416C6C0050726568656174D7
:20480000204142532032005072656865617420414253203100507265706172650041757447
:204820006F74656D700043616E6E6F7420656E746572207375626469723A20005265736520
:204840006E643A20006F6B004E414E494E495459494E46CDCCCC3D0AD7233C17B7D13877DB
:20486000CC2B329595E6241FB14F0A000020410000C84200401C4620BCBE4CCA1B0E5AAEC4
:20488000C59D74006BE0FCE011241FBECFEFD1E2DEBFCDBF00E00CBF14E0A0E0B2E0E0E4FA
:2048A000FAED01E00BBF02C007900D92A03EB107D9F725E1A0EEB4E001C01D92AF30B207D8
:2048C000E1F714E2C3E4D4E200E006C021970109802FFE010E94FDE1C234D10780E00807DA
:2048E000A9F70E94F5DA0C940EED0C9400002F923F924F925F926F927F928F929F92AF9263
:20490000BF92CF92DF92EF92FF920F931F93CF93DF93CDB7DEB7CD56D1090FB6F894DEBF36
:204920000FBECDBF87E40E94AD44F82E882309F412C20E94D3440E9466E36430710509F4D3
:204940003EC044F46230710529F16CF577FF17C00C946D406A35710509F4ACC134F46C31C0
:20496000710509F472C00C946D406B35710509F4A5C16C35710509F4A6C10C946D408091F3
:204980007E1481110C946D400E9412DA0E940CB30C94354480917E1481110C946D400E947A
:2049A000CCB381E008C080917E1481110C946D400E94CCB380E00E9479AF0C94354481E503
:2049C00095E00E9483C580E50E94AD44882339F00E94D3440E946BE36B017C0103C0C12C6A
:2049E000D12C760183E50E94AD44882361F00E94D34420E030E04AE754E40E94E2E50E940F
:204A00006BE36B017C010E9490A30E94397FC60ED71EE81EF91E0E94397F609344147093A2
:204A2000451480934614909347140E94397F6C157D058E059F0510F00C946D400E94A6C049
:204A40000E94E2AD0E949DC5F0CF80916C0290916D02A0916E02B0916F02809320059093A5
:204A60002105A0932205B0932305809176029091770290931F0580931E0584E690E09093AE
:204A80007702809376020E94397F6093441470934514809346149093471411E010930F0281
:204AA00080910D0990910E09A0910F09B09110098093511490935214A0935314B0935414AE
:204AC0008091110990911209A0911309B09114098093551490935614A0935714B09358146E
:204AE0008091150990911609A0911709B09118098093591490935A14A0935B14B0935C142E
:204B00008091190990911A09A0911B09B0911C0980935D1490935E14A0935F14B0936014ED
:204B200010926C0210926D0210926E0210926F0288E50E94AD44882311F080E009C089E5EC
:204B40000E94AD448111F9CF8AE50E94AD4481278093010281110C94704088E50E94AD44C6
:204B600081110C9470408091010281110C94764089E50E94AD4481110C94764088E50E945F
:204B8000AD448823D1F00E94C844672B682B692BA1F00E94D3442091600C3091610C4091EB
:204BA000620C5091630C0E9422E260930D0970930E0980930F099093100989E50E94AD4406
:204BC0008823D1F00E94C844672B682B692BA1F00E94D3442091640C3091650C4091660C22
:204BE0005091670C0E9422E2609311097093120980931309909314098091010281110C94DB
:204C00007C408AE50E94AD4481110C947C408AE50E94AD448823D1F00E94C844672B682BA7
:204C2000692BA1F00E94D3442091680C3091690C40916A0C50916B0C0E9422E260931509E5
:204C400070931609809317099093180945E159E061E179E08DE099E00E94FC5A10920F0230
:204C60008091200590912105A0912205B091230580936C0290936D02A0936E02B0936F028C
:204C800080911E0590911F0590937702809376020E94397F60934414709345148093461406
:204CA0009093471410926F0510926E0510926D050C946D40109204150C946D4081E080936E
:204CC00004150C946D4085E40E94AD44811102C00E9490A3E9E2AE2EE3E0BE2EFDE0EF2EF9
:204CE000F9E0FF2EA0E6CA2EACE0DA2E10E0D5018D915D010E94AD44882311F1133051F492
:204D00000E94D344F70160837183828393830E94965516C00E94D344D6012D913D914D9193
:204D20005C910E9422E2F701608371838283938345E159E061E179E08DE099E00E94FC5A1E
:204D40001F5FF4E0EF0EF11C24E0C20ED11C143071F60C946D408DE40E94AD44882311F48A
:204D60000C94243F0E94D3440E9466E36237710511F40C943B310CF096C06F31710509F407
:204D80005AC5ACF56631710509F461C2C4F46131710509F4F3C134F46230710508F453C175
:204DA0000C946D406431710509F4FAC10CF04BC26231710511F40C9450300C946D406A31C4
:204DC000710509F47DC23CF46831710509F45BC20CF443C26BC26C31710509F4D3C20CF4F1
:204DE0007DC26E31710509F4FFC20C946D406535710511F40C9489300CF56135710511F4D4
:204E00000C942D307CF46A32710509F49CC56035710511F40C9420306032710511F00C940C
:204E20006D406AC46335710511F40C944B3014F00C945030109208150C946D406A36710523
:204E400011F40C94F02FE4F46836710509F4C2C50CF0F3C56C35710511F00C946D4039E2EA
:204E6000832E33E0932E01E419E040E4A42E4CE0B42E23EB3EE03CAF2BAF312C0C940B31A1
:204E80006D36710509F4E8C66037710509F4C2C56B36710511F00C946D401092A40E109262
:204EA000A30E0C946D406D3D710511F40C94A6340CF068C0683C710511F40C94A03254F557
:204EC0006837710511F40C94193294F46537710511F40C9427316737710509F4B0C063371B
:204EE000710511F00C946D40EFE9F3E00C9422316C38710509F490C56E3B710509F46CC795
:204F00006937710511F00C946D4081E080930F020C946D406D3C710511F40C948933C4F423
:204F20006B3C710511F40C94493314F00C946733693C710511F00C946D4098E2E92E9CE07F
:204F4000F92E09E213E024E0D22ED00E0C9430336A3D710511F40C94FF336C3D710511F44F
:204F60000C9495346E3C710511F00C946D40A0E6EA2EACE0FA2E09E213E0B3E0DB2ED00EB0
:204F80000C94F033643F31E0730711F40C94273C5CF56D3251E0750711F40C94E03794F437
:204FA0006A3F710511F40C94A6386C3291E0790711F40C942F35623E710511F00C946D4053
:204FC0000C94D0346F32A1E07A0711F40C94E63814F40C94D2386039714011F00C946D407D
:204FE0000E9490A30C946D406835F2E07F0711F40C94003D94F4663F31E0730711F40C945B
:205000002D3C14F40C942A3C673F714011F00C946D400E94644B0C946D40603A83E078075A
:2050200009F4D4C3673E93E0790711F40C940D3F6335734011F00C946D400C94303CECE3DF
:20504000F3E00C942332E091E804F091E9048F010E5F1F4F80E50E94AD44882371F00E94AC
:20506000D3440E946BE36B017C01AA24A394672B682B692B31F4A12C04C0A12CC12CD12C15
:20508000760183E50E94AD44882391F00E94D34420E030E04AE754E40E94E2E50E946BE3E7
:2050A0006B017C01BB24B394672B682B692B09F4B12C6AE270E0C8010E94A7E5009711F023
:2050C000FC011082F801CF0121912032E1F3A11007C0B11005C0222319F00E9489C504C0A0
:2050E00080E495E00E9483C581E00E9498C50E9490A30E94397F60934414709345148093A4
:20510000461490934714C114D104E104F104C1F00E94397FC60ED71EE81EF91E0E94397FE8
:205120006C157D058E059F05B0F40E9400C5811112C00E94A6C00E94E2AD0E949DC5EECFCC
:205140000E9400C581110AC00E94A6C00E94E2AD0E949DC5F5CF80E00E9498C58091920980
:20516000882331F081E395E00E9483C50C946D4083E295E00E9483C50C946D408AE195E062
:205180000E9483C55F988A989FB7F894809108018E7F809308019FBF129847980C946D40B3
:2051A000EAE0F5E08491882341F09091C00095FFFCCF8093C6003196F5CF8091C00085FF66
:2051C000FCCF8AE08093C6001092190C1092180C40E050E0BA0183EC99E00E9414CB8BE154
:2051E000E3ECF9E0DE01159601900D928A95E1F78091C1099091C2099C838B8387EF92E07A
:205200009A838983BE016F5F7F4F8BE694E00E94D355CE0101960E94D3ACECEFF4E0849110
:20522000882341F09091C00095FFFCCF8093C6003196F5CF8091C00085FFFCCF8AE0809351
:20524000C6000C946D400E94745C0C946D4010929209109293090C946D400091E804109196
:20526000E9040C5F1F4F6AE270E0C8010E94A7E5009711F0DC011C9241E061E0C8010E94E5
:205280007C520C946D4080919309882319F081E0809392090E94397F60937D0C70937E0C20
:2052A00080937F0C9093800C0C946D4080919209882311F40C946D40109292090C946D4021
:2052C00080919309882311F40C946D4083E50E94AD4481110C9482400C946D40809193093B
:2052E000882309F439C0E0E9F1E08491882341F09091C00095FFFCCF8093C6003196F5CFDE
:205300006091130C7091140C8091150C9091160C4AE00E94DD59EEE8F1E08491882341F04D
:205320009091C00095FFFCCF8093C6003196F5CF60910B0C70910C0C80910D0C90910E0C43
:205340004AE00E94DD598091C00085FFFCCF8AE08093C6000C946D40E2EAF1E0849188233E
:2053600041F09091C00095FFFCCF8093C6003196F5CF8091C00085FFFCCF8AE08093C600F5
:205380000C946D408091E8049091E9046AE270E004960E94A7E58C01892BD9F02091F006A0
:2053A0003091F10640E6429FC001439F900D11246EE470E080599A4F0E94A7E560E270E095
:2053C0000E94A7E501969093E9048093E804F80110828091E8049091E90441E060E0049668
:2053E0000E947C520C946D4080919309882311F40C946D408EE59BE00E94D2CA8EE59BE02C
:205400000E944F9D10929009109291098091E8049091E9046AE270E004960E94A7E58C018B
:20542000892BD9F02091F0063091F10640E6429FC001439F900D11246EE470E080599A4FB0
:205440000E94A7E560E270E00E94A7E501969093E9048093E804D8011C920091E804109113
:20546000E90480919309882311F40C946D405801B4E0AB0EB11C8EE59BE00E944F9D109204
:2054800092091D8218861C821B8287EF92E09A8389838FEB99E09093DF098093DE09F801F7
:2054A00084818F3209F090C06FE270E0C5010E94A7E58C010F5F1F4F7AE0E72E9E012F5F43
:2054C0003F4F49010115110509F484C06FE270E0C8010E94A7E56C01009709F47CC0081793
:2054E000190708F078C03C01601A710AA301B801CE0180960E94D0E5E0E2F0E0EC0FFD1FE8
:20550000E60DF71D10828E01005E1F4FF8018191882339F09091C00095FFFCCF8093C6009F
:20552000F6CF8091C00085FFFCCFE092C6006091DE097091DF096115710511F06C5F7F4F07
:2055400021E0AE01405E5F4FCE0105960E945EA1811132C0ECEDF1E08491882371F09091D4
:20556000C00095FFFCCF8093C6003196F5CF9091C00095FFFCCF8093C600D8018D918D010A
:205580008111F5CFEAEDF1E08491882341F09091C00095FFFCCF8093C6003196F5CF809167
:2055A000C00085FFFCCF8AE08093C600CE0101960E94D3AC0C946D409092DF098092DE09C2
:2055C00086010F5F1F4F7ECF80EE99E09093DF098093DE0985016091DE097091DF09611572
:2055E000710511F06C5F7F4F18A21BA222E0A801CE0180960E945EA18823F1F0CE01809682
:205600000E94EA518823C1F06CA57DA58EA59FA541E00E947A91882379F0E8A9B0E2EB9F18
:20562000F0011124EE50F94F309731F085EE80831BA20E9492CAF82ECE0180960E94C849E7
:20564000FF2041F1ECECF1E08491882341F09091C00095FFFCCF8093C6003196F5CFF801C2
:205660008191882339F09091C00095FFFCCF8093C600F6CF8091C00085FFFCCF8AE08093C9
:20568000C6001092130C1092140C1092150C1092160C2CC0E4EBF1E08491882341F090919C
:2056A000C00095FFFCCF8093C6003196F5CFF8018191882339F09091C00095FFFCCF809335
:2056C000C600F6CFE2EBF1E08491882341F09091C00095FFFCCF8093C6003196F5CF8091FB
:2056E000C00085FFFCCF8AE08093C600CE0101960E94D3AC0C946D408091920981110E94A4
:2057000090A30091E8041091E9040C5F1F4F6AE270E0C8010E94A7E57C0161E270E0C80106
:205720000E94A7E5009719F08C010F5F1F4FE114F10411F0F701108280E50E94AD44F82E9F
:205740008091E8049091E9040817190708F4F12C80919309882311F40C946D4041E04F25A7
:2057600061E0C8010E947C5283E50E94AD448823B9F08091E8049091E9048017910780F4B2
:205780000E94C844AB01BC014093130C5093140C6093150C7093160C8EE59BE00E9414CB55
:2057A00080919309882319F081E080939209F1100C946D400E94397F60937D0C70937E0CC8
:2057C00080937F0C9093800C0C946D408091E8049091E9046AE270E005960E94A7E58C0132
:2057E000892BD9F02091F0063091F10640E6429FC001439F900D11246EE470E080599A4FED
:205800000E94A7E560E270E00E94A7E501969093E9048093E804D8011C928091E80490914F
:20582000E90421E02093910941E060E005960E947C520C946D400E94397F6093E40470933C
:20584000E5048093E6049093E70400917D0C10917E0C20917F0C3091800C601B710B820B02
:20586000930B28EE33E040E050E00E94D3ECCA01B9012CE330E040E050E00E94D3EC7F9349
:205880006F933F932F938DEE94E09F938F938E010F5F1F4F1F930F930E947DE9EFEDFBE0B1
:2058A00094910FB6F894DEBF0FBECDBFEFEDFBE0992349F08091C00085FFFCCF9093C600C7
:2058C00031969491F5CFF8018191882339F09091C00095FFFCCF8093C600F6CF8091C0008A
:2058E00085FFFCCF8AE08093C600C8010E9489C58091A20E882311F40C946D401092A20E4D
:2059000000916C0C10E0000F111F0955114FD8016D917C91072E000C880B990B0E94B2E9F8
:20592000209154023091550240915602509157020E9448E4181614F00C946D40F80111820C
:2059400010820C946D4083E50E94AD44882311F40C946D400E94D3440E9466E3F62EE72E93
:20596000862F9E2D8C0180E50E94AD44882331F00F3F110509F010F40C9492400DE010E0A6
:20598000E3E8F2E0819191918017910711F40C946D4022E0E33CF207A9F70930110539F47F
:2059A0008F2D9E2D9093A40E8093A30E04C017FF02C00C946D4061E0802F0E94FD7D6F2D36
:2059C000802F0E94AB576F2D7E2D802F0E94397E0C946D4088E690E00E94DBAC81110C949F
:2059E0006D4083E50E94AD44882311F40C946D40109150140E94D344212F30E0220F331F61
:205A000089010955114F0E9466E3D8016D937C930C946D400E94A3AD83E50E94AD44882386
:205A200011F40C946D400E94D3440E9466E37093A60E6093A50E0C946D4089E690E00E9445
:205A4000DBAC81110C946D40E7EEF4E08491882341F09091C00095FFFCCF8093C600319666
:205A6000F5CFE0915014B4E0EB9FF0011124EB58F34F608171818281938141E00E94645A59
:205A8000E4EEF4E08491882341F09091C00095FFFCCF8093C6003196F5CFE0915014F0E026
:205AA000EE0FFF1FE955F14F60817181072E000C880B990B0E94B2E941E00E94645AE0EE76
:205AC000F4E08491882341F09091C00095FFFCCF8093C6003196F5CF6091710C7091720C70
:205AE0008091730C9091740C41E00E94645AEDEDF4E08491882341F09091C00095FFFCCF15
:205B00008093C6003196F5CF6091A50E7091A60E072E000C880B990B0E94B2E941E00E9450
:205B2000645A07EA1EE085E7E82E8CE0F82E412C512C32019AEDC92E94E0D92E28EDA22EA9
:205B400024E0B22E35ED832E34E0932EF6018491EAEDF4E0882349F09091C00095FFFCCFDE
:205B60008093C60031968491F5CFC301B2010E94525AF5018491E8EDF4E0882349F090912E
:205B8000C00095FFFCCF8093C60031968491F5CFD7016D917D918D919D917D0141E00E94FC
:205BA000645AF4018491E5EDF4E0882349F09091C00095FFFCCF8093C60031968491F5CFDA
:205BC000D8016D917D918D01072E000C880B990B0E94B2E941E00E94645A4A944528462863
:205BE000472829F0412C512C32014394AFCFE1EDF4E08491882341F09091C00095FFFCCFD8
:205C00008093C6003196F5CFE0915014F0E0EF57FB4E608170E080E090E00E94525AECECC5
:205C2000F4E08491882341F09091C00095FFFCCF8093C6003196F5CF6091801470E080E0C6
:205C400090E00E94525A8091C00085FFFCCF8AE08093C6000C9435448DE690E00E94DBACFE
:205C600081110C946D4081EC94E00E9483C51092A20E83E50E94AD448823A1F010915014EC
:205C80000E94D344212F30E0220F331F89010955114F0E9466E3F8017183608381E08093F1
:205CA000000217C082E50E94AD44882391F0109150140E94D344212F30E0220F331F8901BA
:205CC0000955114F0E9466E3D8016D937C931092000283E50E94AD44882351F00E94D344EF
:205CE0006093540270935502809356029093570282E40E94AD44882351F00E94D344609389
:205D0000500270935102809352029093530286E40E94AD44882369F00E94D34460934C0201
:205D200070934D0280934E0290934F0281E08093A20E0E94397F2B013C010091501410E06E
:205D4000F801EE0FFF1FE955F14F60817181072E000C880B990B0E94B2E9000F111F000FDB
:205D6000111FF801EB58F34F11E020813181428153810E9448E418160CF010E010931D05ED
:205D800010927D1488248A94982C540156EB252E54E0352E68EEC62E63E0D62EE12CF12C07
:205DA00080917D1481110C949840BFEF8B169B06AB06BB0611F40C94B140B7FE02C00C9428
:205DC00098400E94397F681979096031774210F40C94B1400C9498408BE994E00E9483C565
:205DE00083E50E94AD44882361F00E94D3440E9466E37093A60E6093A50E81E08093000235
:205E00000FC082E50E94AD44882351F00E94D3440E9466E37093A60E6093A50E1092000228
:205E20000E94397F4B015C0110927D146091A50E7091A60E072E000C880B990B0E94B2E91E
:205E400011E02091710C3091720C4091730C5091740C0E9448E418160CF010E010931D0586
:205E600008E914E054E9E52E54E0F52E60E9C62E64E0D62E7AE0772E80911D056091A50E3B
:205E80007091A60E882309F484C080917D14811180C0072E000C880B990B0E94B2E9209187
:205EA000710C3091720C4091730C5091740C0E9448E418160CF084C00E94397FDC01CB0136
:205EC00088199909AA09BB09893E9340A105B10508F458C0E0916C0C24E0E29FF00111246A
:205EE000EB58F34F6081718182819381F8012491E8E9F4E0222349F03091C00035FFFCCFE2
:205F00002093C60031962491F5CF42E00E94645AF7018491E4E9F4E0882349F09091C000D3
:205F200095FFFCCF8093C60031968491F5CF60916C0C70E080E090E00E94525AF6018491A6
:205F4000E0E9F4E0882349F09091C00095FFFCCF8093C60031968491F5CF6091710C709198
:205F6000720C8091730C9091740C41E00E94645A8091C00085FFFCCF7092C6000E94397FAF
:205F80004B015C010E94A6C00E94E2AD0E949DC573CF072E000C880B990B0E94B2E9209173
:205FA000710C3091720C4091730C5091740C0E94ACE987FF05C080910002882309F47CCFEC
:205FC00086E894E00E9483C50E94397F609344147093451480934614909347140C946D40BC
:205FE00083E50E94AD44882319F10E94D34420E030E0A9010E94ACE987FD0FC00E94D3443B
:2060000020E030E04FE753E40E9448E4181644F00E94D3440E9466E305C060E070E002C018
:206020006FEF70E07093A40E6093A30E0C946D408FEF90E09093A40E8093A30E0C946D4038
:20604000269A2E9881E08093100288E794E00E9483C50E949DC50C946D400E9431BC0E94E5
:2060600090A3129A479A0E949EA31092A40E1092A30E68EE73E080E090E00E94017F269A7B
:206080002E9A109210028CE694E00E9483C50E949DC50C946D4081E0809308150C946D4085
:2060A00083E50E94AD448823A1F00E94D34420E030E04AE754E40E94E2E50E946BE360932B
:2060C0005C0270935D0280935E0290935F020C946D4088E50E94AD4481110C94D44189E507
:2060E0000E94AD4481110C94D4418AE50E94AD4481110C94D44185E40E94AD4481110C944F
:20610000D4410E9490A3129A479A0E949EA30C946D4083E50E94AD44882311F40C946D40E0
:206120000E94D34420E030E04AE754E40E94E2E50E946BE3609340147093411480934214CC
:20614000909343140C946D40B3E03B126CC00E94D3442B013C0120E030E040EA51E40E9439
:20616000ACE987FF41C0A3019201F80160817181828193810E94FEE26B017C019B01AC0135
:206180006091500C7091510C8091520C9091530C0E94E2E56093500C7093510C8093520CDC
:2061A0009093530CA7019601D5016D917D918D919C910E94E2E5F5016083718382839383A0
:2061C000ABADBCAD6D917D918D919C910E94B0E9A70196010E94E2E50E946BE3EBADFCAD93
:2061E0006083718382839383D8014D925D926D927C92139733940C5F1F4FF4E0AF0EB11C51
:206200002BAD3CAD2C5F3F4F3CAF2BAF34E0331611F40C946D40D4018D914D010E94AD445C
:20622000882341F391CF0E94D344F8016083718382839383DFCF9091C00095FFFCCF80937A
:20624000C600319684918111F6CF0C946D400091E8041091E9040B5F1F4F6AE270E0C801B0
:206260000E94A7E5009711F0DC011C92C8010E9489C50C946D40ECE9F3E08491882341F02E
:206280009091C00095FFFCCF8093C6003196F5CF60910D0970910E0980910F0990911009D8
:2062A00042E00E94645AE8E9F3E08491882341F09091C00095FFFCCF8093C6003196F5CF23
:2062C0006091110970911209809113099091140942E00E94645AE4E9F3E08491882341F019
:2062E0009091C00095FFFCCF8093C6003196F5CF6091150970911609809117099091180958
:2063000042E00E94645AE0E9F3E08491882341F09091C00095FFFCCF8093C6003196F5CFCA
:206320006091190970911A0980911B0990911C0942E00E94645AE5E8F3E08491882341F098
:206340009091C00095FFFCCF8093C6003196F5CF2FB7F8946091FD087091FE088091FF0812
:20636000909100092FBF0E94B2E9209141093091420940914309509144090E94FEE242E0D2
:206380000E94645AE1E8F3E08491882341F09091C00095FFFCCF8093C6003196F5CF2FB786
:2063A000F894609101097091020980910309909104092FBF0E94B2E92091450930914609C5
:2063C00040914709509148090E94FEE242E00E94645AEDE7F3E08491882341F09091C000ED
:2063E00095FFFCCF8093C6003196F5CF2FB7F8946091050970910609809107099091080906
:206400002FBF0E94B2E92091490930914A0940914B0950914C090E94FEE242E00E94645ADB
:206420008091C00085FFFCCF8AE08093C6000C946D4010920F020C946D409091C00095FF37
:20644000FCCF8093C60081918111F7CF8091C00085FFFCCF8AE08093C600E5E7F3E0849117
:20646000882341F09091C00095FFFCCF8093C6003196F5CF659B03C0EDE2F3E009C0E2E3A9
:20648000F3E006C09091C00095FFFCCF8093C60081918111F7CF8091C00085FFFCCF8AE056
:2064A0008093C600EDE6F3E08491882341F09091C00095FFFCCF8093C6003196F5CF8091B7
:2064C000030181FF03C0EDE2F3E009C0E2E3F3E006C09091C00095FFFCCF8093C600819181
:2064E0008111F7CF8091C00085FFFCCF8AE08093C600E5E6F3E08491882341F09091C00071
:2065000095FFFCCF8093C6003196F5CF4B9B03C0EDE2F3E009C0E2E3F3E006C09091C00065
:2065200095FFFCCF8093C60081918111F7CF8091C00085FFFCCF8AE08093C6000C946D4009
:2065400084E40E94AD44882311F40C946D400E94D34420E030E040E05FE30E94E2E56B0143
:206560007C0120E030E0A9010E94ACE9882379F0A7019601C701B6010E94E2E52BED3FE03B
:2065800049E450E40E94E2E59B01AC0104C020E030E040E85FE380916C0C8093501484E541
:2065A000AB962FAFAB97AC963FAFAC97AD964FAFAD97AE965FAFAE970E94AD44AB962FAD3B
:2065C000AB97AC963FADAC97AD964FADAD97AE965FADAE97882379F10E94D3440E946BE332
:2065E00060935014AB962FADAB97AC963FADAC97AD964FADAD97AE965FADAE976230D8F002
:20660000EFEDFBE08491882341F09091C00095FFFCCF8093C6003196F5CFE7E5F3E081917D
:20662000882311F40C946D409091C00095FFFCCF8093C600F4CF00915014B4E00B9F8001CD
:206640001124085C1D4F60E070E080E89FE30E94FEE2F80160837183828393830C946D4001
:20666000D8018D918D010E94AD44882349F00E94D3440E946BE3F70160837183828393838B
:20668000F4E0EF0EF11CD012EBCF0E940DA30C946D4010E4E12E1CE0F12E09E213E084E081
:2066A000D82ED00ED8018D918D010E94AD44882339F00E94D344F701608371838283938367
:2066C000F4E0EF0EF11CD012EDCF0C946D4083E50E94AD44882351F00E94D34460935C0CF6
:2066E00070935D0C80935E0C90935F0C84E50E94AD44882311F40C946D400E94D34460937E
:20670000240C7093250C8093260C9093270C0C946D4083E50E94AD44882351F00E94D3448D
:2067200060933C0C70933D0C80933E0C90933F0C84E50E94AD44882351F00E94D344609373
:20674000380C7093390C80933A0C90933B0C82E40E94AD44882361F00E94D3440E946BE34C
:2067600060939B0E70939C0E80939D0E90939E0E88E50E94AD44882351F00E94D3446093AB
:20678000580C7093590C80935A0C90935B0C8AE50E94AD44882351F00E94D3446093540C30
:2067A0007093550C8093560C9093570C85E40E94AD44882311F40C946D400E94D3446093D5
:2067C000500C7093510C8093520C9093530C0C946D40F4E0EF0EF11CD01611F40C946D40A7
:2067E000D8018D918D010E94AD44882391F30E94D344F7016083718382839383EACF8AED7F
:2068000090E00E94DBAC81110C946D4088E50E94AD44882381F00091501410E00E94D34446
:20682000000F111F000F111FF801E35FFA4F608371838283938389E50E94AD44882381F047
:206840000091501410E00E94D344000F111F000F111FF801EB5EFA4F60837183828393839F
:20686000EFEDFBE08491882341F09091C00095FFFCCF8093C6003196F5CFE5E5F3E084911A
:20688000882341F09091C00095FFFCCF8093C6003196F5CF10925014809150148230E0F576
:2068A000EAE6F4E08191882339F09091C00095FFFCCF8093C600F6CFE091501424E0E29F16
:2068C000F0011124E35FFA4F608171818281938142E00E94645AEEE6F3E08191882339F00E
:2068E0009091C00095FFFCCF8093C600F6CFE091501434E0E39FF0011124EB5EFA4F6081B6
:2069000071818281938142E00E94645A809150148F5F80935014C0CF8091C00085FFFCCF63
:206920008AE08093C6000C946D4083E50E94AD44882311F40C946D400E94D3440E9466E32B
