:100000000C9487250C94B4250C94B4250C94B42539
:100010000C94B4250C94B4250C94B4250C94B425FC
:100020000C94B4250C94B4250C94B4250C94B425EC
:100030000C94B4250C949CFC0C94B4250C94B4251D
:100040000C94B4250C94B8920C94B4250C94B4255B
:100050000C94B4250C94B4250C94BD9B0C94F1F82D
:100060000C94B4250C9402420C94B4250C94B42541
:100070000C94B4250C94B4250C94B4250C94B4259C
:100080000C94B4250C94B4250C94B4250C94B4258C
:100090000C94B4250C94B4250C94B4250C94C9F09C
:1000A0000C94B4250C94B4250C94B4250C94B4256C
:1000B0000C94B4250C94B4250C94B4250C94B4255C
:1000C0000C94B4250C94B4250C94B4250C94B4254C
:1000D0000C94B4250C94B4250C94B4250C94B4253C
:1000E0000C94B425084AD73B3BCE016E84BCBFFDBF
:1000F000C12F3D6C74319ABD56833DDA3D00C77FF8
:1001000011BED9E4BB4C3E916BAAAABE0000008090
:100110003F05A84CCDB2D44EB93836A9020C50B91F
:10012000918688083CA6AAAA2ABE000000803F4DFE
:10013000383420582059205A2045006563686F3AAA
:100140000043616E6E6F7420656E74657220737506
:10015000626469723A20004D3234004D32332025FA
:1001600073006175746F25692E67004572726F7236
:100170003A006572726F722077726974696E6720D7
:10018000746F2066696C65004E6F74205344207054
:1001900072696E74696E67002F0053442070726933
:1001A0006E74696E67206279746520002E00446564
:1001B0006C6574696F6E206661696C65642C20469D
:1001C000696C653A200046696C652064656C6574ED
:1001D00065643A002E006F70656E206661696C651B
:1001E000642C2046696C653A200057726974696E08
:1001F0006720746F2066696C653A20002E006F706E
:10020000656E206661696C65642C2046696C653A90
:1002100020002E006F70656E206661696C65642C2D
:100220002046696C653A200046696C652073656CF0
:100230006563746564002053697A653A20004669F5
:100240006C65206F70656E65643A20002E006F70DB
:10025000656E206661696C65642C2046696C653A40
:1002600020004E6F772066726573682066696C6542
:100270003A20004E6F7720646F696E672066696C64
:10028000653A20002220706F730022207061726531
:100290006E743A2200535542524F5554494E4520F0
:1002A00043414C4C207461726765743A2200747249
:1002B00079696E6720746F2063616C6C207375625E
:1002C0002D67636F64652066696C65732077697458
:1002D0006820746F6F206D616E79206C6576656C37
:1002E000732E204D4158206C6576656C2069733AF9
:1002F0000053442063617264206F6B006F70656E01
:10030000526F6F74206661696C656400766F6C75FE
:100310006D652E696E6974206661696C6564005351
:100320004420696E6974206661696C006563686F5A
:100330003A0048617264636F646564204465666175
:10034000756C742053657474696E6773204C6F61AB
:100350006465640053746F726564207365747469B6
:100360006E677320726574726965766564002044F7
:10037000002049002020204D3330312050005049CA
:10038000442073657474696E67733A00205A0020C4
:10039000590020204D323036205800486F6D6520BE
:1003A0006F666673657420286D6D293A00204500DC
:1003B000205A0020580020420020540020204D32B6
:1003C0003035205300416476616E63656420766148
:1003D000726961626C65733A20533D4D696E2066A7
:1003E0006565647261746520286D6D2F73292C20FA
:1003F000543D4D696E2074726176656C206665654A
:10040000647261746520286D6D2F73292C20423D24
:100410006D696E696D756D207365676D656E7420AD
:1004200074696D6520286D73292C20583D6D6178A5
:10043000696D756D205859206A65726B20286D6D45
:100440002F73292C20205A3D6D6178696D756D20C0
:100450005A206A65726B20286D6D2F73292C20201D
:10046000453D6D6178696D756D2045206A65726BDB
:1004700020286D6D2F73290020540020204D32302C
:1004800034205300416363656C65726174696F6EFB
:100490003A20533D616363656C65726174696F6E88
:1004A0002C20543D726574726163742061636365CE
:1004B0006C65726174696F6E00204500205A0020DF
:1004C000590020204D3230312058004D6178696D3F
:1004D000756D20416363656C65726174696F6E2030
:1004E000286D6D2F7332293A00204500205A0020D4
:1004F000590020204D3230332058004D6178696D0D
:10050000756D2066656564726174657320286D6D14
:100510002F73293A00204500205A0020590020203E
:100520004D39322058005374657073207065722005
:10053000756E69743A0053657474696E67732053FD
:10054000746F726564006563686F3A004572726F1C
:10055000723A00D09ED0A1D0A2D090D09DD09ED093
:1005600092D09BD095D09DD09E2E005072696E7413
:1005700065722073746F7070656420647565207493
:100580006F206572726F72732E20466978207468CE
:1005900065206572726F7220616E642075736520CC
:1005A0004D39393920746F20726573746172742EFD
:1005B000202854656D706572617475726520697369
:1005C0002072657365742E205365742069742061F0
:1005D000667465722072657374617274696E6729DE
:1005E00000D0A3D091D098D0A2D09E2E0050726996
:1005F0006E7465722068616C7465642E206B696C22
:100600006C28292063616C6C656421006F6B00525B
:100610006573656E643A20002200556E6B6E6F77CD
:100620006E20636F6D6D616E643A202200436861D5
:100630006E67652066696C616D656E74005A204F47
:100640006666736574203A20007A5F6D61783A209F
:10065000007A5F6D696E3A20005A204F66667365B6
:1006600074005A204F6666736574206F6B006C636C
:100670006420636F6E74726173742076616C75654B
:100680003A2000486F74656E64206F666673657407
:10069000733A007A5F6D696E3A2000795F6D696E1A
:1006A0003A2000785F6D696E3A2000205A3A0020A7
:1006B000593A0020436F756E7420583A2000204547
:1006C0003A00205A3A0020593A00583A0046495216
:1006D0004D574152455F4E414D453A4D61726C69EF
:1006E0006E2056313B20537072696E7465722F67AD
:1006F00072626C206D617368757020666F7220671E
:10070000656E36204649524D574152455F55524C11
:100710003A68747470733A2F2F6769746875622E23
:10072000636F6D2F4572696B5A616C6D2F4D6172ED
:100730006C696E2F2050524F544F434F4C5F5645BB
:100740005253494F4E3A312E30204D414348494E85
:10075000455F545950453A5052494D45203220206A
:100760002045585452554445525F434F554E543AD4
:100770003220555549443A30303030303030302D09
:10078000303030302D303030302D303030302D3072
:1007900030303030303030303030300A0050524954
:1007A0004D452032202020D092D18BD0BAD0BB2E04
:1007B000202E005052494D4520322020D093D0BEEB
:1007C000D182D0BED0B22E0042656420646F6E65C7
:1007D0002E0020423A0020453A00543A0042656417
:1007E0002048656174696E672E0048656174696EA2
:1007F0006720646F6E652E0020573A0020453A004E
:10080000543A0048656174696E672E2E2E002042AE
:10081000403A0020403A00202F003A0020540020A7
:100820002F0020423A00202F006F6B20543A002501
:1008300069206D696E2C2025692073656300456E03
:10084000642066696C65206C697374004265676931
:100850006E2066696C65206C69737400D09DD0B59C
:10086000D18220D0B4D0B2D0B8D0B6D0B5D0BDD01F
:10087000B8D18F2E005052494D4520322020D093C0
:10088000D0BED182D0BED0B22E00526573756D69D4
:100890006E67207072696E7400D09ED0B6D0B8D0EA
:1008A000B4D0B0D0BDD0B8D0B8D0B500D0A1D0BEF3
:1008B000D0BD2E2E2E00FFFFFF0000C84300008297
:1008C0004300007A430000A0400000A04000000068
:1008D00040000000000000000000000000000000D8
:1008E0000000000000000000000000C8430000827B
:1008F0004300007A43256920686F7572732025696B
:10090000206D696E7574657300446F6E652070723A
:10091000696E74696E672066696C6500D09ED0A1AF
:10092000D0A2D090D09DD09ED092D09BD095D09D7B
:10093000D09E2E005072696E7465722073746F7051
:100940007065642064756520746F206572726F72C3
:10095000732E2046697820746865206572726F7204
:1009600020616E6420757365204D39393920746FAC
:1009700020726573746172742E202854656D7065E1
:100980007261747572652069732072657365742E67
:1009900020536574206974206166746572207265E5
:1009A0007374617274696E6729006F6B004E6F20FB
:1009B0004C696E65204E756D62657220776974684A
:1009C00020636865636B73756D2C204C61737420B4
:1009D0004C696E653A20004E6F20436865636B7307
:1009E000756D2077697468206C696E65206E756D11
:1009F0006265722C204C617374204C696E653A20DC
:100A000000636865636B73756D206D69736D6174E8
:100A100063682C204C617374204C696E653A200029
:100A20004C696E65204E756D626572206973206E2B
:100A30006F74204C617374204C696E65204E756D27
:100A40006265722B312C204C617374204C696E6589
:100A50003A20004D31313000446F6E65207361766D
:100A6000696E672066696C652E006F6B004D3239C8
:100A7000002020506C616E6E65724275666665720C
:100A800042797465733A20002046726565204D6591
:100A90006D6F72793A20004D617920203420323018
:100AA000313600436F6D70696C65643A2000286EC2
:100AB0006F6E652C2064656661756C7420636F6E63
:100AC0006669672900207C20417574686F723A203E
:100AD000004D617920203420323031362031393ACE
:100AE00030323A313600204C6173742055706461A5
:100AF0007465643A2000312E302E30004D61726CE6
:100B0000696E0020536F6674776172652052657359
:100B1000657400205761746368646F672052657361
:100B20006574002042726F776E206F757420526575
:100B3000736574002045787465726E616C2052652F
:100B400073657400506F77657255700073746172CD
:100B500074002200656E717565696E67202200223F
:100B600000656E717565696E672022006563686F48
:100B70003A0020746F6F206C6F6E67206578747216
:100B80007573696F6E2070726576656E746564004A
:100B900020636F6C6420657874727573696F6E2062
:100BA00070726576656E746564007C3C3E5E2B3DBC
:100BB0003F2F5B5D3B2C2A225C0045303A20005AD7
:100BC0003A2000593A2000583A20004D53312C4D1C
:100BD00053322050696E730A0024F404D9201BC4D8
:100BE0000C5C0E9804C4095F0265077101F405F9F5
:100BF00000FB04B30048048700C103690058035593
:100C00000003034500BE023A008402310053022A69
:100C1000002902250004022000E4011C00C801197B
:100C200000AF011700980114008401130071011036
:100C3000006101100051010E0043010D0036010B4F
:100C4000002B010B0020010B00150109000C01090C
:100C50000003010800FB000800F3000800EB000798
:100C600000E4000600DE000600D8000600D2000600
:100C700000CC000500C7000500C2000500BD00044F
:100C800000B9000400B5000400B1000400AD000488
:100C900000A9000400A5000300A20003009F0004B7
:100CA000009B0003009800030095000200930003DE
:100CB00000900003008D0002008B000300880002FA
:100CC000008600020084000300810002007F000211
:100CD000007D0002007B0002007900020077000125
:100CE0000076000200740002007200010071000230
:100CF000006F0002006D0001006C0002006A00013C
:100D00000069000200670001006600010065000143
:100D10000064000200620001006100010060000147
:100D2000005F0002005D0001005C0001005B00014B
:100D3000005A00010059000100580001005700014D
:100D4000005600010055000100540001005300004E
:100D50000053000100520001005100010050000149
:100D6000004F0001004E0000004E0001004D000148
:100D7000004C0001004B0000004B0001004A000144
:100D80000049000100480000004800010047000140
:100D9000004600000046000100450000004500013B
:100DA0000044000100430000004300010042000035
:100DB000004200010041000000410001004000012C
:100DC000003F0000003F0001003E0000003E000127
:100DD000003D0000003D0001003C0000003C000020
:100DE000003C0001003B0000003B0001003A000015
:100DF000003A00010039000000390001003800000D
:100E00000038000000380001003700000037000102
:100E100000360000003600000036000100350000FA
:100E200000350000003500010034000000340000EF
:100E300000340001003300000033000000330001E3
:100E400000320000003200000032000100310000DA
:100E500000310000003100010030000000300000CF
:100E600000300001002F0000002F0000002F0000C4
:100E7000002F0001002E0000002E0000002E0001B7
:100E8000002D0000002D0000002D0000002D0001AD
:100E9000002C0000002C0000002C0000002C0001A1
:100EA000002B0000002B0000002B0000002B000195
:100EB000002A0000002A0000002A0000002A000189
:100EC000002900000029000000290000002900007E
:100ED0000029000100280000002800000028000070
:100EE0000028000000280001002700000027000063
:100EF0000027000000270000002700010026000056
:100F00000026000000260000002600000026000148
:100F1000002500000025000000250000002500003D
:100F2000002500000025000100240000002400002E
:100F30000024000000240000002400010023000021
:100F40000023000000230000002300000023000015
:100F50000023000000230001002200000022000006
:100F600000220000002200000022000000220001F8
:100F700000210000002100000021000000210000ED
:100F800000210000002100000021000100200000DD
:100F900000200000002000000020000000200000D1
:100FA000002000000020000000200001001F0000C1
:100FB000001F0000001F0000001F0000001F0000B5
:100FC000001F0000001F0001001E0000001E0000A6
:100FD000001E0000001E00000024F4D43050C38E18
:100FE00020C2A24017828B7011127A910D816CD9A8
:100FF0000AA861E108C7586607615143061E4B5DA8
:1010000005C145A7041A411104093D9803713931FE
:10101000034036DB0265339102D4305402802E1D2A
:1010200002632CEE01752AC501B028A001102781AA
:10103000018F2564012B244B01E0223401AC211FD8
:10104000018D200D01801FFC00841EED00971DDF27
:1010500000B81CD200E61BC600201BBC00641AB2FC
:1010600000B219A8000A19A0006A189900D11791B6
:101070000040178B00B516840031167E00B3157939
:10108000003A157300C7146F0058146A00EE136617
:10109000008813630025135E00C7125B006C1257B3
:1010A0000015125400C111510070114F0021114B55
:1010B00000D61049008D104700461044000210422F
:1010C00000C00F4000800F3E00420F3C00060F3B67
:1010D00000CB0E3800930E37005C0E3500270E341F
:1010E00000F30D3200C10D3100900D3000600D2E67
:1010F00000320D2D00050D2C00D90C2B00AE0C2953
:1011000000850C29005C0C2700350C27000E0C26EE
:1011100000E80B2400C40B2400A00B23007D0B234C
:10112000005A0B2100390B2100180B2000F80A1F70
:1011300000D90A1E00BB0A1E009D0A1D00800A1D60
:1011400000630A1C00470A1B002C0A1B00110A1A24
:1011500000F7091A00DD091900C4091900AB0919C3
:1011600000920917007B091800630917004C091643
:101170000036091600200916000A091500F50815A1
:1011800000E0081400CC081400B8081400A40814E7
:1011900000900813007D0812006B08130058081215
:1011A000004608120034081100230811001208112B
:1011B0000001081100F0071000E0071000D0071030
:1011C00000C0071000B0070F00A107100091070E24
:1011D0000083070F0074070F0065070E0057070E06
:1011E0000049070E003B070D002E070E0020070DDB
:1011F0000013070D0006070D00F9060C00ED060DA3
:1012000000E0060C00D4060C00C8060C00BC060C5E
:1012100000B0060C00A4060B0099060C008D060B0E
:101220000082060B0077060B006C060B0061060AB5
:101230000057060B004C060A0042060A0038060A50
:10124000002E060A0024060A001A060A00100609E3
:101250000007060A00FD050900F4050900EB050971
:1012600000E2050900D9050900D0050900C70509F4
:1012700000BE050900B5050800AD050800A5050973
:10128000009C050800940508008C050800840508EA
:10129000007C050800740508006C0507006505085A
:1012A000005D050700560508004E050700470507C5
:1012B000004005080038050700310507002A05072A
:1012C00000230507001C050600160507000F05078B
:1012D000000805060002050700FB040600F50407E8
:1012E00000EE040600E8040600E2040700DB040642
:1012F00000D5040600CF040600C9040600C3040696
:1013000000BD040600B7040600B1040500AC0406E5
:1013100000A6040600A00405009B04060095040531
:1013200000900406008A0405008504050080040678
:10133000007A04050075040500700405006B0405BF
:101340000066040500610405005C040500570405FF
:1013500000520405004D040500480405004304053F
:10136000003E0404003A040500350405003004047E
:10137000002C04050027040400230405001E0404B7
:10138000001A04040016040500110404000D0404EE
:1013900000090405000404040000040400FC030424
:1013A00000F8030400F4030400F0030400EC030459
:1013B00000E8030400E4030400E0030400DC030489
:1013C00000D8030400D4030400D0030400CC0304B9
:1013D00000C8030300C50303006563686F3A006536
:1013E0006E6473746F7073206869743A205A0020B9
:1013F0005A3A00656E6473746F7073206869743A4A
:1014000020590020593A00656E6473746F70732020
:101410006869743A20580020583A00656E64737405
:101420006F7073206869743A20004572726F723A67
:10143000004572723A204D415854454D5020424566
:10144000440054656D7065726174757265206865DD
:10145000617465642062656420737769746368658C
:1014600064206F66662E204D415854454D502074BF
:101470007269676765726564202121004572723A5E
:10148000204D494E54454D50003A204578747275B0
:10149000646572207377697463686564206F66663B
:1014A0002E204D494E54454D502074726967676532
:1014B0007265642021004572723A204D41585445AE
:1014C0004D50003A204578747275646572207377C8
:1014D000697463686564206F66662E204D415854B8
:1014E000454D5020747269676765726564202100FC
:1014F000202D20496E76616C696420657874727560
:10150000646572206E756D62657220210070012C19
:101510000190012701B0012201C0011D01F0011855
:10152000011002130130020E016002090190020451
:1015300001C002FF000003FA004003F5008003F041
:1015400000D003EB002004E6007004E100E004DCBE
:10155000004005D700C005D2004006CD00D006C827
:10156000008007C3003008BE00F008B900C009B40D
:1015700000B00AAF00B00BAA00D00CA500000EA06E
:1015800000500F9B00C01096005012910000148C68
:1015900000C0158700B0178200B0197D00D01B78FD
:1015A00000001E730040206E0090226900F0246449
:1015B0000040275F0090295A00E02B5500102E5064
:1015C0000020304B0010324600E033410090353CA3
:1015D000001037370070383200A0392D00B03A289B
:1015E00000A03B2300603C1E00103D1900903D14FC
:1015F00000103E0F00703E0A00C03E0500003F0094
:1016000000504944204175746F74756E6520666999
:101610006E69736865642120507574207468652054
:101620006C617374204B702C204B6920616E6420B8
:101630004B6420636F6E7374616E74732066726F97
:101640006D2061626F766520696E746F20436F6EE6
:1016500066696775726174696F6E2E6800504944DF
:10166000204175746F74756E65206661696C656480
:10167000212074696D656F75740020403A006F6BAE
:1016800020543A006F6B20423A0050494420417583
:10169000746F74756E65206661696C656421205491
:1016A000656D706572617475726520746F6F206806
:1016B00069676800204B643A2000204B693A20009B
:1016C000204B703A200020436C6173736963205093
:1016D000494420002054753A2000204B753A2000E0
:1016E000206D61783A2000206D696E3A20002064F8
:1016F0003A200020626961733A200000070800FE6A
:1017000006018902FE20FFFE07FE06FE000000051E
:101710000000010606020000808080800080030334
:1017200003040003A0A0A00507070600FF5050F81F
:1017300050F850500509090600FE2070A8A0702836
:10174000A870200608080700FF40A8481020485449
:10175000080507070600FF609090609890680103F5
:10176000030200038080800207070300FF4080809F
:10177000808080400207070300FF804040404040D7
:10178000800505050600008850F850880505050607
:1017900000002020F820200204040300FEC0404086
:1017A00080050101060002F8020202030000C0C029
:1017B000040606050000101020408080040606057F
:1017C000000060909090906003060604000040C006
:1017D000404040E00406060500006090102040F004
:1017E000040606050000F020601010E0050606065D
:1017F000000010305090F810040606050000F0803C
:10180000E01010E00406060500006080E0909060A3
:10181000040606050000F0101020404004060605EE
:1018200000006090609090600406060500006090E3
:1018300090701060020505030000C0C000C0C00227
:1018400007070300FEC0C000C04040800505050634
:1018500000001860806018050303060001F800F816
:10186000050505060000C0300830C0040707050064
:101870000060901060400040050606060000709071
:10188000A8B08070050606060000205088F88888F9
:10189000050606060000F088F08888F004060605B4
:1018A0000000609080809060040606050000E090D3
:1018B000909090E0040606050000F080E08080F043
:1018C000040606050000F080E0808080040606051E
:1018D0000000609080B090600406060500009090C3
:1018E000F0909090030606040000E040404040E085
:1018F0000506060600003810101090600406060564
:10190000000090A0C0A09090040606050000808012
:10191000808080F005060606000088D8A8A8888880
:1019200004060605000090D0B090909005060606CB
:101930000000708888888870040606050000E09022
:1019400090E080800407070500FF609090D0B060B1
:1019500010040606050000E09090E0909004060652
:10196000050000609040209060050606060000F823
:1019700020202020200406060500009090909090E2
:1019800060040606050000909090F0606005060671
:101990000600008888A8A8D88805060606000088E2
:1019A0005020205088050606060000888850202018
:1019B00020040606050000F010204080F003060613
:1019C000040000E080808080E004060605000080BE
:1019D0008040201010030606040000E02020202094
:1019E000E00503030600032050880501010600FE00
:1019F000F8020202030004804004040405000070A1
:101A00009090700406060500008080E09090E0044D
:101A100004040500007080807004060605000010B4
:101A2000107090907004040405000060B0C0700451
:101A30000606050000205040E04040040606050070
:101A4000FE6090907010600406060500008080E043
:101A50009090900306060400004000C04040E00360
:101A600008080400FE200060202020A04004060694
:101A70000500008080A0C0A090030606040000C0FE
:101A800040404040E0050404060000D0A8A88804B7
:101A90000404050000E09090900404040500006038
:101AA0009090600406060500FEE09090E0808004BF
:101AB00006060500FE7090907010100404040500E6
:101AC00000A0D0808004040405000070C030E00451
:101AD00006060500004040E04050200404040500D4
:101AE00000909090700404040500009090606005E0
:101AF000040406000088A8A850040404050000900F
:101B00006060900406060500FE909090709060045E
:101B10000404050000F02040F00307070400002043
:101B20004040804040200107070200FF8080808005
:101B300080808003070704000080404020404080F0
:101B400004020205000350A0030606040000E0A002
:101B5000A0A0A0E00506060600FEF08888F08080C0
:101B6000050404060000708880780504040600005F
:101B7000F82020200506060600FE88888878087070
:101B80000508080600FE202070A8A8702020040484
:101B900004050000906060900506060600FE909027
:101BA00090F80810050404060000888878080504E9
:101BB00004060000A8A8A8F80506060600FEA8A8C6
:101BC000A8F80810050404060000C0704870050459
:101BD0000406000088E898E804040405000080E09A
:101BE00090E0040404050000E05030E00504040621
:101BF000000090E8E89004040405000070907090E4
:101C0000050606060000205088F8888805060606A6
:101C10000000F080F08888F0050606060000F088D5
:101C2000F08888F0040606050000F080808080803F
:101C30000507070600FF3050505050F8880406068C
:101C4000050000F080E08080F0050606060000A890
:101C5000A870A8A8A80506060600007088300888A5
:101C6000700406060500009090B0D090900407071D
:101C7000050000609090B0D090900406060500002A
:101C800090A0C0A09090050606060000384848487D
:101C9000488805060606000088D8A8A88888040693
:101CA000060500009090F090909005060606000052
:101CB000708888888870050606060000F88888887D
:101CC0008888040606050000E09090E08080040605
:101CD0000605000060908080906005060606000002
:101CE000F820202020200506060600008888887835
:101CF00008700506060600002070A8A870200506DA
:101D0000060600008850202050880508080600FEBE
:101D10009090909090F808100506060600008888BC
:101D200088780808050606060000A8A8A8A8A8F84C
:101D30000508080600FEA8A8A8A8A8F80810050627
:101D400006060000C0407048487005060606000000
:101D50008888E89898E80406060500008080E090EE
:101D600090E00506060600007088380888700506B1
:101D70000606000090A8E8E8A89004060605000002
:101D80007090907090900504040600007090907818
:101D9000040707050000106080E0909060040404D0
:101DA000050000C0A0D0E0040404050000F080801D
:101DB000800505050600FF305050F888040404052E
:101DC00000006090E070050404060000A87070A890
:101DD000040404050000605030E00504040600001F
:101DE0008898A8C805060606000050208898A8C84C
:101DF00004040405000090A0E0900504040600001F
:101E00003848488805040406000088D8A8880504D6
:101E10000406000088F8888805040406000070881D
:101E20008870050404060000F88888880000000116
:101E3000000003040404000240A0A04005050506BC
:101E400000012010F8102000000001000000000038
:101E5000010000000000010000000000010000007F
:101E6000000001000000000001000000000001006F
:101E70000000000001000000000001000000000060
:101E8000010000000000010000000000010000004F
:101E9000000001000000000001000000000001003F
:101EA0000000000001000000000001000000000030
:101EB000010000000000010000000000010000001F
:101EC000000001000000000001000000000001000F
:101ED0000000000001000000000001000000000000
:101EE00001000000000001000000000001000000EF
:101EF00000000100000000000100000000000100DF
:101F000000000000010000000000010000000000CF
:101F100001000000000001000000000001000000BE
:101F200000000100000000000100000000000100AE
:101F3000000000000100000000000100000000009F
:101F4000010000000000010000000000010000008E
:101F5000000001000000000001000000000001007E
:101F6000000000000100000000000100000000006F
:101F7000010000000000010000000000010000005E
:101F8000000001000000000001000000000001004E
:101F9000000000000100000000000100000000003F
:101FA000010000000000010000000000010000002E
:101FB000000001000000070900FE0701950327202B
:101FC000FFFE08FE07FE00000006000001070702F2
:101FD000000080808080800080030303040004A050
:101FE000A0A00507070600005050F850F850500513
:101FF00007070600002070A070287020050707065C
:10200000000048A8502050A890050707060000408F
:10201000A0A040A890680103030200048080800310
:102020000707040000204080808040200307070449
:102030000000804020202040800505050600018822
:1020400050F850880505050600012020F8202002E0
:1020500003030400FF404080050101060003F8016E
:10206000020204010080800507070600000808102E
:10207000204080800507070600002050888888508F
:10208000200507070600002060A0202020F8050793
:1020900007060000708808304080F8050707060032
:1020A00000F8081030088870050707060000103097
:1020B0005090F81010050707060000F880B0C80817
:1020C0008870050707060000304080B0C88870059A
:1020D0000707060000F80810102040400507070613
:1020E00000007088887088887005070706000070F7
:1020F0008898680810600105050401008080008050
:10210000800206060400FF404000404080040707AC
:102110000500001020408040201005030306000247
:10212000F800F804070705000080402010204080D8
:10213000050707060000708810202000200507070B
:10214000060000708898A8B0807005070706000098
:1021500020508888F88888050707060000F048485E
:10216000704848F005070706000070888080808866
:1021700070050707060000F04848484848F0050782
:1021800007060000F88080F08080F8050707060049
:1021900000F88080F08080800507070600007088C6
:1021A0008080988870050707060000888888F8886E
:1021B0008888030707040000E04040404040E005F5
:1021C000070706000038101010109060050707067A
:1021D00000008890A0C0A090880507070600008036
:1021E0008080808080F80507070600008888D8A8CE
:1021F0008888880507070600008888C8A898888806
:10220000050707060000708888888888700507071A
:10221000060000F08888F08080800508080600FF2E
:102220007088888888A87008050707060000F0886D
:1022300088F0A09088050707060000708880700865
:102240008870050707060000F820202020202005C0
:1022500007070600008888888888887005070706B1
:102260000000888888505050200507070600008825
:102270008888A8A8D8880507070600008888502005
:1022800050888805070706000088885020202020F5
:10229000050707060000F80810204080F80307072C
:1022A000040000E08080808080E0050707060000D1
:1022B00080804020100808030707040000E0202069
:1022C000202020E0050303060004205088050101BA
:1022D0000600FFF80202020300068040050505061D
:1022E000000070087888780507070600008080B035
:1022F000C888C8B00505050600007088808870058C
:10230000070706000008086898889868050505060C
:1023100000007088F880700507070600003048400C
:10232000F04040400507070600FE78888878088856
:10233000700507070600008080B0C88888880307FA
:10234000070400004000C0404040E00409090500C7
:10235000FE10003010101090906005070706000076
:1023600080808890E09088030707040000C0404008
:10237000404040E0050505060000D0A8A8A8880553
:102380000505060000B0C888888805050506000018
:1023900070888888700507070600FEB0C888C8B036
:1023A00080800507070600FE689888986808080579
:1023B0000505060000B0C880808005050506000000
:1023C00070807008F00507070600004040F04040AC
:1023D00048300505050600008888889868050505C9
:1023E00006000088885050200505050600008888F2
:1023F000A8A850050505060000885020508805074C
:10240000070600FE8888986808887005050506009C
:1024100000F8102040F8040707050000304020C0F5
:10242000204030010707020000808080808080808B
:10243000040707050000C02040304020C00503030A
:1024400006000448A890040707050000F09090904B
:102450009090F00507070600FEB0C888C8B08080DD
:1024600005050506000070888088700505050600D2
:1024700000F8202020200507070600FE88888878BD
:102480000888700509090600FE202070A8A8A87019
:102490002020050505060000885020508805070704
:1024A0000600FE90909090F80808050505060000CB
:1024B0008888780808050505060000A8A8A8A8F8D7
:1024C0000507070600FEA8A8A8A8F808080505053E
:1024D000060000C0407048700605050700008484AF
:1024E000E494E40405050500008080E090E0050523
:1024F0000506000070883888700505050600009004
:10250000A8E8A89005050506000078887888880561
:10251000070706000020508888F888880507070606
:102520000000F08080F08888F0050707060000F0C2
:102530008888F08888F0050707060000F88080800A
:102540008080800508080600FF182828484848F8B9
:1025500088050707060000F88080F08080F80507EE
:1025600007060000A8A8A870A8A8A80507070600E5
:102570000070880830088870050707060000888802
:1025800098A8C8888805080806000050208898A8E0
:10259000C888880507070600008890A0C0A090881A
:1025A00005070706000038484848484888050707D7
:1025B0000600008888D8A8888888050707060000D4
:1025C000888888F88888880507070600007088884A
:1025D00088888870050707060000F888888888883A
:1025E00088050707060000F08888F08080800507CE
:1025F0000706000070888080808870050707060045
:1026000000F82020202020200507070600008888E9
:1026100088502040800507070600002070A8A8A861
:10262000702005070706000088885020508888051C
:1026300009090600FE909090909090F80808050710
:10264000070600008888887808080805070706003C
:1026500000A8A8A8A8A8A8F80509090600FEA8A827
:10266000A8A8A8A8F80808050707060000C0404069
:1026700070484870050707060000888888E8989821
:10268000E8040707050000808080E09090E00507DF
:1026900007060000708808380888700507070600DC
:1026A0000090A8A8E8A8A890050707060000788869
:1026B000887828488805050506000070087888781D
:1026C0000507070600007880708888887005050572
:1026D000060000F088F088F0040505050000F08091
:1026E0008080800506060600FF30505050F88805AF
:1026F00005050600007088F88070050505060000D5
:10270000A8A870A8A8050505060000708830887084
:102710000505050600008898A8C888050707060073
:102720000050208898A8C8880505050600008890F4
:10273000E0908805050506000038484848880505EA
:102740000506000088D8A8888805050506000088C9
:1027500088F8888805050506000070888888700557
:102760000505060000F8888888880000000600003B
:1027700003030304000440A0400000000600000022
:102780000000010000000000010000000000010046
:102790000000000001000000000001000000000037
:1027A0000100000000000100000000000100000026
:1027B0000000010000000000010000000000010016
:1027C0000000000001000000000001000000000007
:1027D00001000000000001000000000001000000F6
:1027E00000000100000000000100000000000100E6
:1027F00000000000010000000000010000000000D7
:1028000001000000000001000000000001000000C5
:1028100000000100000000000100000000000100B5
:1028200000000000010000000000010000000000A6
:102830000100000000000100000000000100000095
:102840000000010000000000010000000000010085
:102850000000000001000000000001000000000076
:102860000100000000000100000000000100000065
:102870000000010000000000010000000000010055
:102880000000000001000000000001000000000046
:102890000100000000000100000000000100000035
:1028A0000000010000000000010000000000010025
:1028B0000000000001000000000001000000000016
:1028C00001000000000001000005050506000120D0
:1028D00010F810200606060600022070A820203CF2
:1028E00000000001000000000001000000000001E5
:1028F00000000000000100000000000000000000D7
:10290000000000007FFFE000000000000000000069
:102910000000007000E00000000000000000000067
:102920000000630C600000000000000000000000D8
:1029300000470E2000000000000000000000000022
:102940004F0F200000000000000000000000005FAA
:102950000FA00000000000000000000000005E0763
:10296000A07F80003FC0003FC000410400406020C5
:10297000FBC00079E00079E00020820040F020F305
:10298000C00076E00076E00020820040F020EBC03E
:10299000007EE0007EE0004104004060207B80007B
:1029A0003DC00039C0008208005E07A07B80003B6C
:1029B000C0003EC0010410005F0FA0FBC00077E024
:1029C0000076E0010410004F0F20FBC00070E00013
:1029D00079E000820800470E20FFC0007FE0007F02
:1029E000E000410400630C603F00001F80001F8076
:1029F000000000007000E01E00000F00000F00014A
:102A0000FFFF807FFFE00C0000060000060001FFD2
:102A1000FF80000000000000000000000000000037
:102A2000007FFFE000000000000000000000000048
:102A30007000E000000000000000000000000061E5
:102A4000F86000000000000000000000000041F8F5
:102A50002000000000000000000000000040F02006
:102A600000000000000000000000000040602000A6
:102A700000000000000000000000005801A07F805E
:102A8000003FC0003FC0004104005C63A0FBC000E9
:102A900079E00079E0002082005EF7A0F3C00076C4
:102AA000E00076E0002082005EF7A0EBC0007EE050
:102AB000007EE0004104005C63A07B80003DC0001C
:102AC00039C0008208005801A07B80003BC0003E56
:102AD000C001041000406020FBC00077E00076E0F9
:102AE0000104100040F020FBC00070E00079E0001D
:102AF00082080041F820FFC0007FE0007FE0004135
:102B0000040061F8603F00001F80001F800000008B
:102B1000007000E01E00000F00000F0001FFFF80AA
:102B20007FFFE00C0000060000060001FFFF8000B0
:102B300000005900C12000C12000C12000C12000B8
:102B4000C12000C120002D2D3A2D2D0000000000D5
:102B5000000000000000000000003C0A000000002F
:102B600000002E3C0000000000005319000000008F
:102B70000010511B000000000058220C0000000053
:102B8000008C180000000000010E0000000000068C
:102B9000C20F00000000000E123F00000000000FF6
:102BA000B063007C00000002F1D7809C0000001D93
:102BB00071F501FC0000001DE096003E0000008A57
:102BC000E034013E00000603C012181C00003C4027
:102BD00000001CF800007C2018041F000000F81002
:102BE00020003F800001F00040083F000003E009A2
:102BF00002007F000007A006011FFF00000EB00CBE
:102C00000084FE00001FA81000437E0003FFFC604C
:102C10000021FC007FFFFFE000100400CFFFFFF069
:102C200000200000FCFFFFFFC0780000FFCFFFFC8A
:102C3000C0F82400FFF9FFCFC0F87200FFFF9CFF2F
:102C400085F8F800FFFFF7FF8FF0FE00FFFFF7FFAA
:102C50009FE47200FFFFF7FFDFC43400E7FFF7FFD8
:102C6000BD8C0000C1FFF7FFCF9C000041CFF7FFF4
:102C7000FFFC000049C3F7FFFFF400007CC1F7FF31
:102C8000FF7C000078C0F7FFFFF8000070C477FFFA
:102C9000FFF0000071C637FF07C0000079C637FE9D
:102CA00007C0000079C637FC07C000005CC717F8F2
:102CB0000FC000006CC717F00FC000006CC717E012
:102CC0000FC0000060C717E00FC0000070C717F703
:102CD0000FC000007DC617FF6FC000007FC617F849
:102CE000EFC000007FC017FEBFC000007FE037FFCD
:102CF000FFC000003FF837FFFFC000000FFFF7FFE5
:102D0000FF00000003FFF7FFFC00000001FFF7FFDA
:102D1000F0000000007FF7FFC0000000001FF7FF79
:102D2000000000000007F7FC000000000003F7F0BF
:102D3000000000000000F7C00000000000003700A5
:102D4000000000000000000000000000D09DD0B591
:102D5000D18220D0BAD0B0D180D182D18B00D09C8A
:102D6000D0B5D0BDD18E20D0BAD0B0D180D182D153
:102D70008B2020202020207E00D09ED181D182D0A7
:102D8000B0D0BDD0BED0B2D0B8D182D18C20D0BF0F
:102D9000D0B5D187D0B0D182D18C00D0B2D0BED046
:102DA000B7D0BED0B1D0BD2E20D0BFD0B5D187D046
:102DB000B0D182D18C00D09FD180D0BED0B4D0BE53
:102DC000D0BBD0B6D0B8D182D18C20D0BFD0B5D1B5
:102DD00087D0B0D182D18C00D09DD0B0D181D182AA
:102DE000D180D0BED0B9D0BAD0B8200300D094D012
:102DF000B5D0B9D181D182D0B2D0B8D18F20202026
:102E000020202020207E00D09DD0B0D181D182D141
:102E100080D0BED0B9D0BAD0B82020202020202029
:102E20007E00D09ED0B1D0B7D0BED180202020204F
:102E3000202020202020200300F92E2E00D09CD01E
:102E4000B5D0BDD18E2003004D3234004D32332039
:102E50002573004D383420582059205A204500D081
:102E6000A1D0B1D180D0BED18120D0BDD0B0D18190
:102E7000D182D180D0BED0B5D0BA00D097D0B0D05A
:102E8000B3D180D183D0B72E20D0B8D0B720455051
:102E9000524F4D00D0A1D0BED185D180D0B0D0BD91
:102EA000D0B8D182D18C20D0B2204550524F4D00A5
:102EB000436F6E747261737400D0A1D0BAD0BED16A
:102EC00080D0BED181D182D0B820202020202020E7
:102ED000207E00D0A2D0B5D0BCD0BFD0B5D180D09C
:102EE000B0D182D183D180D0B020202020207E009C
:102EF000D09CD0B5D0BDD18E200300436F6E7472CC
:102F0000617374004520D188D0B0D0B32F6D6D3A75
:102F1000004520D188D0B0D0B32F6D6D3A005A2033
:102F2000D188D0B0D0B32F6D6D3A005A20D188D05F
:102F3000B0D0B32F6D6D3A005920D188D0B0D0B346
:102F40002F6D6D3A005920D188D0B0D0B32F6D6D60
:102F50003A005820D188D0B0D0B32F6D6D3A0058C8
:102F600020D188D0B0D0B32F6D6D3A00412D72655D
:102F700074726163743A00412D7265747261637496
:102F80003A00416D617820653A00416D61782065B5
:102F90003A00416D6178207A3A00416D6178207A7B
:102FA0003A00416D617820793A00416D617820796D
:102FB0003A00416D617820783A00416D617820785F
:102FC0003A005654726176206D696E3A005654721A
:102FD0006176206D696E3A00566D696E3A00566DE5
:102FE000696E3A00566D617820653A00566D6178D9
:102FF00020653A00566D6178207A3A00566D617806
:10300000207A3A00566D617820793A00566D6178E1
:1030100020793A00566D617820783A00566D6178D3
:1030200020783A0056652D6A65726B0056652D6AE8
:1030300065726B00567A2D6A65726B00567A2D6A3E
:1030400065726B005678792D6A65726B3A2000566E
:1030500078792D6A65726B3A20004163633A0041CA
:1030600063633A00D09DD0B0D181D182D180D0BEEF
:10307000D0B9D0BAD0B8200300D09DD0B0D181D182
:1030800082D180D0BED0B9D0BAD0B820414253004E
:10309000D09DD0B0D181D182D180D0BED0B9D0BAAC
:1030A000D0B820504C41005049442D433A200050A4
:1030B00049442D433A20005049442D443A200050C1
:1030C00049442D443A20005049442D493A200050AB
:1030D00049442D493A20005049442D503A2000508F
:1030E00049442D503A20000220D0A4D0B0D0BAD10B
:1030F00082D0BED1803A000220D0A4D0B0D0BAD1C4
:1031000082D0BED1803A000220D09CD0B0D0BAD1BB
:1031100081D0B8D0BCD183D0BC3A000220D09CD0A2
:10312000B0D0BAD181D0B8D0BCD183D0BC3A0002E3
:1031300020D09CD0B8D0BDD0B8D0BCD183D0BC3AC0
:10314000000220D09CD0B8D0BDD0B8D0BCD183D0A4
:10315000BC3A00D092D18BD0BAD0BB2E2000D092F6
:10316000D0BAD0BB2E2000D092D18BD0BAD0BB2EFB
:103170002000D092D0BAD0BB2E20004175746F745D
:10318000656D703A00D09AD183D0BBD0BBD0B5D199
:10319000803A00D09AD183D0BBD0BBD0B5D1803A91
:1031A000000220D09AD180D0BED0B2D0B0D182D18E
:1031B0008C3A000220D09AD180D0BED0B2D0B0D10B
:1031C00082D18C3A000220D0A4D0B8D0BBD18CD010
:1031D000B5D180D0B0323A000220D0A4D0B8D0BB54
:1031E000D18CD0B5D180D0B0323A000220D0A4D05A
:1031F000B8D0BBD18CD0B5D180D0B03A000220D0AD
:10320000A4D0B8D0BBD18CD0B5D180D0B03A00D04A
:103210009DD0B0D181D182D180D0BED0B9D0BAD02A
:10322000B8200300D0A1D0BED185D180D0B0D0BD10
:10323000D0B8D182D18C20D0B2204550524F4D0011
:103240000220D09AD180D0BED0B2D0B0D182D18C61
:103250003A000220D09AD180D0BED0B2D0B0D18274
:10326000D18C3A000220D0A4D0B8D0BBD18CD0B53C
:10327000D180D0B03A000220D0A4D0B8D0BBD18C3D
:10328000D0B5D180D0B03A00D09AD183D0BBD0BBDA
:10329000D0B5D1803A00D09AD183D0BBD0BBD0B5C5
:1032A000D1803A00D0A2D0B5D0BCD0BFD0B5D180AB
:1032B000D0B0D182D183D180D0B020202020207EF8
:1032C00000D0A1D0BED185D180D0B0D0BDD0B8D1F2
:1032D00082D18C20D0B2204550524F4D000220D0D8
:1032E0009AD180D0BED0B2D0B0D182D18C3A000277
:1032F00020D09AD180D0BED0B2D0B0D182D18C3A79
:10330000000220D0A4D0B8D0BBD18CD0B5D180D011
:10331000B03A000220D0A4D0B8D0BBD18CD0B5D167
:1033200080D0B03A00D09AD183D0BBD0BBD0B5D139
:10333000803A00D09AD183D0BBD0BBD0B5D1803AEF
:1033400000D0A2D0B5D0BCD0BFD0B5D180D0B0D144
:1033500082D183D180D0B020202020207E00D09444
:10336000D0B2D0B8D0B6D0B5D0BDD0B8D0B520D0BE
:10337000BFD0BE20D0BED181D18FD0BC004D38305F
:103380000053776974636820506F776572204F6EC1
:10339000004D38310053776974636820506F77654A
:1033A00072204F666600D09ED185D0BBD0B0D0B61B
:1033B000D0B4D0B5D0BDD0B8D0B500D09FD180D0DA
:1033C000B5D0B4D0BDD0B0D0B3D180D0B5D0B220BC
:1033D00041425300D09FD180D0B5D0B4D0BDD0B041
:1033E000D0B3D180D0B5D0B220504C4100536574D9
:1033F00020686F6D65206F66667365747300473271
:103400003800D09FD0B0D180D0BAD0BED0B2D0BA20
:10341000D0B0004D383400D092D18BD0BAD0BB2E72
:1034200020D0B4D0B2D0B8D0B3D0B0D182D0B5D043
:10343000BBD0B800D09CD0B5D0BDD18E2003004DFC
:103440006F766520302E316D6D004D6F76652031C1
:103450006D6D004D6F76652031306D6D00D094D06C
:10346000B5D0B9D181D182D0B2D0B8D18F202020AF
:1034700020202020207E00457874727564657200DB
:103480004D6F7665205A004D6F76652059004D6F5F
:103490007665205800D094D0B2D0B8D0B6D0B5D090
:1034A000BDD0B8D0B520D0BFD0BE20D0BED181D144
:1034B0008FD0BC004578747275646572005A0059EB
:1034C000005800D09FD180D0B5D0B42E20414253B7
:1034D00020D09AD180D0BED0B2D0B0D182D18C00D1
:1034E000D09FD180D0B5D0B4D0BDD0B0D0B32E2035
:1034F00041425320D0B2D181D0B52000D09FD1809D
:10350000D0B5D0B4D0BDD0B0D0B3D180D0B5D0B2CA
:10351000204142533100D09FD180D0B5D0B4D0BD2E
:10352000D0B0D0B3D180D0B5D0B22041425330001A
:10353000D094D0B5D0B9D181D182D0B2D0B8D18F0A
:1035400020202020202020207E00D09FD180D0B5B8
:10355000D0B42E20504C4120D09AD180D0BED0B2D1
:10356000D0B0D182D18C00D09FD180D0B5D0B4D092
:10357000BDD0B0D0B32E20504C4120D0B2D181D09C
:10358000B500D09FD180D0B5D0B4D0BDD0B0D0B32D
:10359000D180D0B5D0B220504C413100D09FD180E5
:1035A000D0B5D0B4D0BDD0B0D0B3D180D0B5D0B22A
:1035B00020504C413000D094D0B5D0B9D181D182C7
:1035C000D0B2D0B8D18F20202020202020207E0013
:1035D0004D363030004368616E67652066696C6106
:1035E0006D656E740020D09FD0BED182D0BED0BA9F
:1035F000313A0020D09FD0BED182D0BED0BA313A6D
:103600000020D09FD0BED182D0BED0BA303A0020A8
:10361000D09FD0BED182D0BED0BA303A00D09FD099
:10362000BED182D0BED0BA3A00D09FD0BED182D017
:10363000BED0BA3A00D09AD183D0BBD0BBD0B5D1DE
:10364000803A00D09AD183D0BBD0BBD0B5D1803ADC
:10365000000220D09AD180D0BED0B2D0B0D182D1D9
:103660008C3A000220D09AD180D0BED0B2D0B0D156
:1036700082D18C3A000220D0A4D0B8D0BBD18CD05B
:10368000B5D180D0B0323A000220D0A4D0B8D0BB9F
:10369000D18CD0B5D180D0B0323A000220D0A4D0A5
:1036A000B8D0BBD18CD0B5D180D0B03A000220D0F8
:1036B000A4D0B8D0BBD18CD0B5D180D0B03A00D096
:1036C000A1D0BAD0BED180D0BED181D182D18C3A26
:1036D00000D0A1D0BAD0BED180D0BED181D182D10C
:1036E0008C3A00D09CD0B5D0BDD18E200300D09AAA
:1036F000D0B0D180D182D0B020D0B8D0B7D0B2D0A5
:10370000BBD0B5D187D0B5D0BDD0B000D09AD0B0A5
:10371000D180D182D0B020D0B2D181D182D0B0D0EE
:10372000B2D0BBD0B5D0BDD0B0004D333030205377
:103730003639382050323030004D33303020533657
:10374000353920503230300001050800FF060121D4
:10375000023520FFFF07FF06FF09005022165680A2
:103760008080800080153353A0A0A002575750508E
:10377000F850F850500257572070A070287020134E
:10378000355580A040A02002475740A0A040A0A0EF
:1037900050251353808080122656408080808040C0
:1037A0001226568040404040800245559060F060AF
:1037B000900255552020F82020113353604080049A
:1037C0004151F011335340E0400246561010204062
:1037D000808012365640A0A0A0A04012365640C0AD
:1037E000404040E00246566090106080F00246562D
:1037F000F020601090600246562060A0F020200269
:103800004656F080E01090600246566080E090904E
:1038100060024656F01020204040024656609060FC
:10382000909060024656609090701060122555C0CE
:10383000C000C0C01136566060006040801236562D
:10384000204080804020034353F000F01236568021
:10385000402020408012365640A0204000400158B1
:1038600058304898A8A8904030024656609090F092
:103870009090024656E090E09090E00246566090AC
:1038800080809060024656E090909090E00246560C
:10389000F080E08080F0024656F080E08080800278
:1038A0004656609080B090600246569090F090909E
:1038B00090123656E040404040E0024656702020CC
:1038C00020A04002465690A0C0A0A090024656807C
:1038D00080808080F002465690F0F09090900246F2
:1038E0005690D0F0B0B090024656609090909060A4
:1038F000024656E09090E08080014757609090D05B
:10390000B06010024656E09090E0909002465660FB
:103910009040209060123656E040404040400246C1
:103920005690909090906002465690909090606073
:10393000024656909090F0F090024656909060604B
:103940009090025656888850202020024656F0104B
:10395000204080F0123656E080808080E00246569B
:10396000808040201010123656E020202020E016E3
:10397000325240A0014151F016225280400244547C
:10398000709090700246568080E09090E01234541F
:10399000608080600246561010709090700244540F
:1039A00060B0C060024656205040E040400145559E
:1039B00060907010600246568080E09090901236C1
:1039C000564000C04040E01137572000202020A082
:1039D00040024656808090E09090123656C040409B
:1039E0004040E0025454D0A8A8A8024454E090906B
:1039F0009002445460909060014555E090E08080D2
:103A00000145557090701010024454A0D08080126F
:103A1000345460C020C00246564040E0405020026E
:103A2000445490909070123454A0A0A0400254547A
:103A300088A8A85002445490606090014555909029
:103A4000709060024454F02040F00247573040200C
:103A5000C0204030221656808080808080024757E8
:103A6000C02040304020C006425250A0FFFFFFFF60
:103A7000FFFFFFFFFFFFFFFFFFFFFFFFFFFFFFFF56
:103A8000FFFFFFFFFFFFFFFFFFFFFFFFFF090050EA
:103A90002216568000808080800146562070A0A0AB
:103AA00070200246562050E04050A00255558870C4
:103AB0005070880256568850F820F82022175780F8
:103AC0008080008080800247577080E0907010E016
:103AD000173151A002565670A8C8C8A870143555A1
:103AE00060A06000E003435350A050123353E02025
:103AF00020143151E002565670E8D8E8D8701731DA
:103B000051E015335340A04012355540E04000E0ED
:103B100014355540A02040E0143555C020C020C0C9
:103B20001622524080014555909090E080025656F2
:103B300078E8E86828282411518011225240801426
:103B4000355540C04040E014355540A04000E003EA
:103B50004353A050A0024757808080A060F020020D
:103B600047578080A0D01020700247578040806067
:103B7000A0F02012365640004080A0400247574037
:103B8000206090F0909002475720406090F0909015
:103B900002475760906090F0909002475750A060A5
:103BA00090F0909002475790006090F090900247FC
:103BB0005760906090F0909002465670A0A0F0A0E0
:103BC000B001475760908080906040024757402086
:103BD000F080E080F00247572040F080E080F00263
:103BE00047576090F080E080F00247579000F080E7
:103BF000E080F01237578040E0404040E0123757F5
:103C00002040E0404040E012375740A0E0404040B4
:103C1000E0123757A000E0404040E002565670489E
:103C2000E848487002475750A090D0B090900247A3
:103C300057402060909090600247572040609090DD
:103C40009060024757609060909090600247575094
:103C5000A0609090906002475790006090909060B4
:103C6000123353A040A002465670B0B0D0D0E0024C
:103C70004757402090909090600247572040909086
:103C800090906002475760909090909060024757E4
:103C900090009090909060025757102088502020FC
:103CA0002002465680E09090E0800246566090A048
:103CB000A090A00247574020007090907002475794
:103CC00020400070909070024757205000709090F4
:103CD0007002475750A000709090700246565000F6
:103CE000709090700247576090607090907002548E
:103CF00054F068B0781135556080806040024757B5
:103D000040200060B0C06002475720400060B0C053
:103D10006002475760900060B0C060024656500095
:103D200060B0C060123757804000C04040E012379A
:103D300057204000C04040E012375740A000C0402C
:103D400040E0123656A000C04040E0024757A04075
:103D5000A01070906002475750A000E09090900231
:103D60004757402000609090600247572040006015
:103D700090906002475760900060909060024757B3
:103D800050A0006090906002465690006090906055
:103D90001235554000E0004002445470B0D0E002BB
:103DA0004757402000909090700247572040009065
:103DB0009090700247576090009090907002465625
:103DC0009000909090700148582040009090709022
:103DD000600147578080E090E08080014757900065
:103DE000909070906000091200FC0A01E803D7204F
:103DF000FFFD0EFD0BFD00000009000E010B0B097D
:103E00000400808080808080800000808004040422
:103E100009030790909090080A0A090000242424BE
:103E2000FF2424FF242424070B0B0901FF107C929C
:103E30009050381412927C10070A0A09010042A41B
:103E4000A4481010244A4A84070A0A090100609015
:103E50009090606294889462010404090407808051
:103E60008080030C0C0903FF20404080808080800C
:103E700080404020030C0C0903FF8040402020209C
:103E80002020204040800707070901031092543882
:103E9000549210070707090101101010FE101010AE
:103EA0000204040904FEC0C04080070101090104A6
:103EB000FE020202090400C0C0070A0A090100024A
:103EC000040408101020404080070A0A0901003845
:103ED000448282828282824438070A0A09010010E1
:103EE0003050901010101010FE070A0A0901003817
:103EF0004482020408102040FE070A0A090100FE5D
:103F0000020408180402028478070A0A090100045E
:103F10000C14244484FE040404070A0A090100FE68
:103F2000808080F80402028478070A0A0901003CB4
:103F3000408080B8C482824438070A0A090100FE22
:103F4000020404080810101010070A0A09010038BA
:103F5000448244384482824438070A0A09010038FE
:103F6000448282463A02020478020707090400C02C
:103F7000C0000000C0C00209090904FEC0C0000062
:103F800000C0C040800509090902000810204080D7
:103F900040201008070404090102FE0000FE050984
:103FA00009090200804020100810204080070A0AFA
:103FB00009010038448202040810100010070A0AA0
:103FC00009010038449AAAAAAAAA9C403C070A0AF6
:103FD00009010010282828447C44828282070A0AAA
:103FE000090100F8848284F884828284F8070A0A2E
:103FF0000901003C42808080808080423C070A0AA0
:10400000090100F88482828282828284F8070A0A87
:10401000090100FE808080F880808080FE070A0A07
:10402000090100FE808080F88080808080070A0A75
:1040300009010038448280808E82824438070A0A4F
:1040400009010082828282FE8282828282050A0ABD
:10405000090200F82020202020202020F8070A0A4A
:104060000901003E080808080808888870070A0A3D
:1040700009010082848890A0D088848282070A0A7D
:10408000090100808080808080808080FE070A0A8D
:104090000901008282C6AA928282828282070A0A6B
:1040A0000901008282C2A2928A86828282070A0A5B
:1040B0000901007C82828282828282827C070A0AD3
:1040C000090100F884828284F880808080080B0BCC
:1040D0000901FF384482828282828A443A01070AB7
:1040E0000A090100F884828284F890888482070A91
:1040F0000A0901007C8280807C020202827C070A1D
:104100000A090100FE101010101010101010070AFC
:104110000A09010082828282828282824438070AEE
:104120000A09010082828244444428282810070A90
:104130000A0901008282828292929292AA44070A1C
:104140000A09010082824428101028448282070A4A
:104150000A09010082824428101010101010070A6A
:104160000A090100FE0204081020408080FE040CB1
:104170000C0903FFF080808080808080808080F048
:10418000070A0A09010080404020101008040402B8
:10419000040C0C0902FFF010101010101010101079
:1041A00010F00704040901061028448208010109DF
:1041B00000FFFF03030309030A80402007070709E4
:1041C00001007C02027E82867A070A0A09010080C9
:1041D0008080BCC2828282C2BC0707070901007CC2
:1041E00082808080827C070A0A0901000202027A2A
:1041F00086828282867A0707070901007C8282FE16
:1042000080827C070A0A0901001C22222020F82053
:10421000202020070A0A0901FD7A84848478807CA2
:1042200082827C070A0A090100808080BCC28282E7
:10423000828282050A0A090200600000E020202034
:104240002020F8050D0D0902FD18000038080808A7
:10425000080808888870070A0A090100808080849D
:104260008890B0C88482050A0A090200E020202054
:104270002020202020F8070707090100EC929292E5
:10428000929282070707090100BCC2828282828261
:104290000707070901007C82828282827C070A0A62
:1042A0000901FDB8C4828282C4B8808080070A0AEE
:1042B0000901FD3A46828282463A02020207070756
:1042C0000901009C62424040404007070709010085
:1042D0007C82807C02827C0709090901002020FC85
:1042E00020202020221C07070709010082828282E9
:1042F00082867A0707070901008282444428281031
:104300000707070901008282929292AA44070707D1
:1043100009010082442810284482070A0A0901FD85
:10432000424224242418181090600707070901004E
:10433000FE0408102040FE060B0B0902001C202082
:104340002020C0202020201C010C0C0904FF8080AC
:1043500080808080808080808080060B0B09010037
:10436000E0101010100C10101010E00703030901EA
:104370000762928CFFFFFFFFFFFFFFFFFFFFFFFFC2
:10438000FFFFFFFFFFFFFFFFFFFFFFFFFFFFFFFF3D
:10439000FFFFFFFFFF00000009000E010B0B0904E7
:1043A000008080000080808080808080060808096E
:1043B000010008789490A0A47840070A0A09010037
:1043C0001C222020F8202060A25C070606090103B9
:1043D000827C44447C82070A0A09010082824428C4
:1043E0007C107C101010010B0B0904FF8080808072
:1043F00080008080808080040B0B0902FF60908029
:10440000609090906010906003020209030BA0A0DE
:104410000809090900013C4299A5A1A599423C055A
:104420000707090103609070907800F807080809F1
:104430000101122448909048241206040409010244
:10444000FC040404050101090204F8080909090033
:10445000013C42B9A5BDA9A5423C060101090109DB
:10446000FC0404040903066090906007090909012F
:1044700001101010FE10101000FE040606090104C1
:104480006090106080F0040606090104609020101E
:10449000906003030309030A20408007090909010A
:1044A000FE8282828282C6BA8080070A0A090100DF
:1044B0007E8A8A8A7A0A0A0A0A0A0202020904041D
:1044C000C0C00403030902FD209060030606090131
:1044D0000440C0404040E005060609010470888899
:1044E0007000F807080809010190482412122448B6
:1044F00090070A0A09010040C0404042E60A121A29
:1045000006070A0A09010040C040404CF2020C10A4
:104510001E070A0A0901006090201092660A121A0A
:1045200006070A0A0901001000101020408082824C
:104530007C070E0E090100201008001028282844CE
:104540007C44828282070E0E0901000810200010B0
:10455000282828447C44828282070E0E090100101C
:1045600028440010282828447C44828282070D0DAC
:1045700009010034580010282828447C4482828293
:10458000070D0D09010028280010282828447C4424
:10459000828282070E0E0901001028281010282898
:1045A00028447C44828282070A0A0901001E2828C6
:1045B000284E784888888E070D0D0901FD3C428001
:1045C0008080808080423C082418070E0E0901007C
:1045D00020100800FE808080F880808080FE070E1A
:1045E0000E09010008102000FE808080F880808085
:1045F00080FE070E0E09010010284400FE80808016
:10460000F880808080FE070D0D090100282800FE3B
:10461000808080F880808080FE050E0E09020040B8
:10462000201000F82020202020202020F8050E0E49
:1046300009020010204000F8202020202020202007
:10464000F8050E0E09020020508800F820202020D6
:1046500020202020F8050D0D090200505000F82000
:1046600020202020202020F8070A0A090100784491
:104670004242F24242424478070D0D09010034588B
:10468000008282C2A2928A86828282070E0E09016D
:1046900000201008007C82828282828282827C07D3
:1046A0000E0E090100081020007C82828282828224
:1046B00082827C070E0E090100102844007C828251
:1046C0008282828282827C070D0D090100345800AB
:1046D0007C82828282828282827C070D0D090100A7
:1046E0002828007C82828282828282827C0707075D
:1046F00009010182442810284482070C0C0901FF9B
:10470000027C868A8A9292A2A2C27C80070E0E093F
:1047100001002010080082828282828282824438D4
:10472000070E0E0901000810200082828282828218
:1047300082824438070E0E0901001028440082824C
:104740008282828282824438070D0D090100282866
:104750000082828282828282824438070E0E0901A0
:10476000000810200082824428101010101010073A
:104770000A0A0901008080FC828282FC8080800617
:104780000A0A09010038444448D0484444445807C0
:104790000B0B090100201008007C02027E82867A41
:1047A000070B0B090100081020007C02027E8286A4
:1047B0007A070B0B090100102844007C02027E825C
:1047C000867A070A0A0901003458007C02027E82B8
:1047D000867A070A0A0901002828007C02027E82E4
:1047E000867A070C0C09010010282810007C0202B0
:1047F0007E82867A0707070901006C12127E90926A
:104800006C070A0A0901FD7C82808080827C104846
:1048100030070B0B090100201008007C8282FE800B
:10482000827C070B0B090100081020007C8282FEAD
:1048300080827C070B0B090100102844007C8282D7
:10484000FE80827C070A0A0901002828007C8282F7
:10485000FE80827C050C0C0902008040200000E0F4
:104860002020202020F8050C0C0902001020400018
:1048700000E02020202020F8050C0C090200205028
:10488000880000E02020202020F8050B0B09020002
:1048900050500000E02020202020F8070B0B0901D9
:1048A00000483050083C448282824438070A0A0992
:1048B0000100345800BCC28282828282070B0B093D
:1048C0000100201008007C82828282827C070B0B10
:1048D000090100081020007C82828282827C070B02
:1048E0000B090100102844007C82828282827C07AE
:1048F0000A0A0901003458007C82828282827C0785
:104900000A0A0901002828007C82828282827C07B0
:10491000090909010010381000FE001038100709BD
:10492000090901FF027C8A8A92A2A27C80070B0BF4
:10493000090100402010008282828282867A070B61
:104940000B090100081020008282828282867A0789
:104950000B0B090100102844008282828282867A31
:10496000070A0A0901002828008282828282867A48
:10497000070E0E0901FD04081000424224242418E9
:1049800018109060070B0B0901FE8080B8C482826A
:1049900082C4B88080070D0D0901FD242400424225
:1049A00024242418181090600000210024002700FF
:1049B0002A002D003000330001010000040107012E
:1049C0000A0100002200250028002B002E003100E3
:1049D000340002010000050108010B010000200065
:1049E0002300260029002C002F00320000010000C7
:1049F0000301060109010505050507050808080862
:104A0000020202020A0A0808040404040101010166
:104A10000101010103030303030303030407070761
:104A20000C0C0C0C0C0C0C0C020202020606060606
:104A3000060606060B0B0B0B0B0B0B0B01021020D3
:104A400020080810204010204080020102010804C4
:104A50000201010204081020408080402010080458
:104A600002018004020180402010080402010804B1
:104A700002010102040810204080010204081020F5
:104A800040800000090A02080B0C0D070603040110
:104A90000000000000000000000000000000000016
:104AA00000000000000000000000000000001110E5
:104AB0000F000000000000000000000000000000E7
:104AC000000000000000000002494E46494E4954D3
:104AD000594E414ECDCCCC3D0AD7233C17B7D138E7
:104AE00077CC2B329595E6241FB14F0A0000204168
:104AF0000000C84200401C4620BCBE4CCA1B0E5AD7
:104B0000AEC59D74964243454DE438F03E451124B0
:104B10001FBECFEFD1E2DEBFCDBF00E00CBF14E07F
:104B2000A0E0B2E0E8EAFAE002E00BBF02C00790C2
:104B30000D92AA3DB107D9F71BBE15E1AAEDB4E06D
:104B400001C01D92A03CB107E1F71BE4CCE0DBE41F
:104B500004C02297FE010F94FA04C430D107C9F7AC
:104B60000E94F5FB0D9448050C940000A0E0B0E015
:104B7000ECEBF5E20D941705EC015B016115710595
:104B800019F0FB0191838083F9908F2D90E00F94B1
:104B9000FE04892BC9F7FDE2FF1621F4F990EE24FB
:104BA000E39405C02BE2F21609F4F990EE248E018D
:104BB00001501040C80169EC7AE443E050E072D241
:104BC000892BF9F48E010E5F1F4FC8016CEC7AE45B
:104BD00045E050E067D2892B19F48E01095F1F4F21
:104BE000A114B10419F0F50111830083E0FC04C0A5
:104BF00070E090E080E813C070E090E080E86FEF34
:104C000007C1C80161ED7AE443E050E04BD2892B43
:104C100069F4A114B10429F470E090E080EC6FE72E
:104C2000F7C02296F501D183C083F6CF882499245A
:104C300040E050E060E070E0EF2DE053EA30A0F596
:104C4000F2E0EF2A8E2D90E09C0128703070E2FE99
:104C500006C0232B79F50894811C911C2BC0232BB3
:104C600019F0089481089108DB01CA0112E0880F4D
:104C7000991FAA1FBB1F1A95D1F7480F591F6A1F0A
:104C80007B1F440F551F661F771F4E0F511D611D5F
:104C9000711D483929E9520729E9620729E172079C
:104CA00048F084E0E82A06C0EE3F31F4E3FC39C066
:104CB00098E0E92AF990C0CFE53311F0E53189F5A4
:104CC00029912D3219F4E0E1EE2A05C02B3219F0BA
:104CD00081E090E003C0299182E090E0E22FE05370
:104CE000EA3018F0C81BD90B1CC020E030E0FCE013
:104CF00020383F075CF4C901880F991F880F991F5E
:104D0000280F391F220F331F2E0F311DE991E05359
:104D1000EA3068F3E4FE03C0309521953F4F820EE0
:104D2000931ECE2CDD24E1FE07C0A114B10421F0B6
:104D30002197F501D183C083CB01BA010F946301A0
:104D40007B018C01F3E0CF22DD2423E0C216D104E5
:104D500021F417FB109517F9109557016801C80148
:104D6000B70120E030E040E050E00F94C30088231A
:104D700009F44AC097FE0DC028EEE22E2AE4F22E76
:104D80009094819491089394C0E2D0E000E010E008
:104D900012C090E0E92E9BE4F92EF6CFF7012591A1
:104DA000359145915491C601B5010F94A3035B0160
:104DB0006C018C1A9D0A8C169D0684F7D595C795B3
:104DC0000F5F1F4F0630110529F08CEF9FEFE80EA3
:104DD000F91EF1CFC501D6017C018D018C2D880F04
:104DE0008D2D881F8F3F51F0C601B50120E030E0C6
:104DF00040E050E00F94C300882331F482E290E059
:104E00009093BF158093BE157E2D9F2D802F612F0F
:104E1000272F392F482F562FB901CA01CDB7DEB73A
:104E2000ECE00D9433052F923F925F926F927F9248
:104E30008F929F92AF92BF92CF92DF92EF92FF92AA
:104E40000F931F93CF93DF938C011B01EA01611530
:104E5000710519F0FB0191838083209749F0CE0101
:104E60000297839728F020E030E040E050E0F6C061
:104E7000F801A1908F018A2D90E00F94FE04892BF8
:104E8000B9F7FDE2AF1631F4F801A1908F01552476
:104E9000539407C0FBE2AF1619F4F801A1908F01FB
:104EA0005524209719F0C031D105C1F4F0E3AF16B5
:104EB00079F4F8018081883711F0883549F4F801D8
:104EC000A1800E5F1F4FF2E05F2AC0E1D0E006C074
:104ED000209721F480E3A816E9F427C0C830D10553
:104EE00031F1C930D10524F4C230D10531F50CC0FF
:104EF000CA30D10589F0C031D105F9F4C12CD12CCB
:104F0000E12CB8E0FB2E28C0C12CD12CE12CA0E470
:104F1000FA2E22C0CAE0D0E0FCECCF2EFCECDF2E53
:104F2000FCECEF2EFCE0FF2E17C0C8E0D0E0C12C57
:104F3000D12CE12CE0E1FE2E0FC09E01442737FD6D
:104F40004095542F60E070E080E090E80F94BB043F
:104F5000C901DA016C017D0120E030E040E050E061
:104F600060E03E01882477FC8094982C70EDB72E89
:104F7000BA0CE9E0EB1570F48A2D81548A3118F4EB
:104F800099ECB92E06C08A2D81568A3150F589EAEE
:104F9000B82EBA0C8B2D90E08C179D0714F56F3F3F
:104FA000E1F0C216D306E406F506B0F0CA01B90175
:104FB000A40193010F9475049B01AC012B0D311DCD
:104FC000411D511D2130F0E03F07F0E04F07F0E8B0
:104FD0005F0710F461E001C06FEFF801A1908F014D
:104FE000C5CF2114310481F0662331F00150104007
:104FF000F1011183008308C051FE1AC00250104015
:10500000F1011183008314C067FF12C050FC05C07A
:105010002FEF3FEF4FEF5FE704C020E030E040E0CC
:1050200050E882E290E09093BF158093BE1516C0C1
:1050300050FE08C050954095309521953F4F4F4FF9
:105040005F4F0CC057FF0AC082E290E09093BF15FB
:105050008093BE152FEF3FEF4FEF5FE7B901CA0115
:10506000DF91CF911F910F91FF90EF90DF90CF9044
:10507000BF90AF909F908F907F906F905F903F9088
:105080002F900895FB01DC0105900D920020E1F7BF
:105090000895FC0105900020E9F7809590958E0F0A
:1050A0009F1F0895FB01DC014150504088F08D9115
:1050B00081341CF08B350CF4805E659161341CF0FA
:1050C0006B350CF4605E861B611171F3990B0895CA
:1050D000881BFCCFFB01DC014150504048F005909B
:1050E0000D920020C9F701C01D9241505040E0F7D9
:1050F0000895FB0155915523A9F0BF01DC014D91A5
:1051000045174111E1F759F4CD010590002049F010
:105110004D9140154111C9F3FB014111EFCF81E0E1
:1051200090E001970895FB01DC0104C08D9101908E
:10513000801921F441505040C8F7881B990B0895FD
:10514000FB01DC0102C001900D9241505040D8F7A4
:105150000895FB01DC010D900020E9F71197019003
:105160000D920020E1F70895FC018191861721F04E
:105170008823D9F7992708953197CF010895FB0126
:10518000DC018D91019080190110D9F3990B0895DC
:10519000FB01DC0101900D920020E1F70895FB0175
:1051A000DC014150504030F08D910190801919F48C
:1051B0000020B9F7881B990B0895FB01DC014150D1
:1051C000504048F001900D920020C9F701C01D9297
:1051D00041505040E0F70895AEE0B0E0E2EFF8E271
:1051E0000D941F050E891F898EE08C831A83098315
:1051F0008FEF9FE79E838D839E01265E3F4FCE01FA
:105200000196688D798DA9010AD02F813885020F0A
:10521000131FF80110822E96E4E00D943B05ABE0DD
:10522000B0E0E5E1F9E20D9411053C012B015A01D2
:10523000FC0117821682838181FD03C06FEF7FEF2F
:10524000B9C19AE0892E1E010894211C311CF3017A
:105250002381F20123FD859123FF81912F01882372
:1052600009F4A5C1853239F423FD859123FF81918D
:105270002F01853221F490E0B301B7D1E8CF982F08
:10528000FF24EE249924FFE1FF15D0F09B3269F052
:105290009C3228F4903259F0933291F40EC09D3232
:1052A00049F0903369F441E024C052E0F52A84E0EB
:1052B000F82A28C098E0F92A25C0E0E1FE2A22C099
:1052C000F7FC29C0892F80538A3070F4F6FE05C0A0
:1052D000989C902C1124980E15C0E89CE02C112469
:1052E000E80EF0E2FF2A0EC09E3229F4F6FC5FC100
:1052F00040E4F42A07C09C3619F450E8F52A02C0AD
:10530000983649F4F20123FD959123FF91912F01E5
:10531000992309F0B8CF892F8554833018F0805233
:10532000833038F444E050E0A40EB51E5FE35983A7
:105330000FC0933631F0933779F0933509F052C0AE
:105340001FC0F5018081898342E050E0A40EB51EA4
:10535000610101E010E011C0F501C080D180F6FCD0
:1053600003C06FEF7FEF02C0692D70E042E050E0B4
:10537000A40EB51EC6012ED18C015FE7F52213C025
:10538000F501C080D180F6FC03C06FEF7FEF02C053
:10539000692D70E042E050E0A40EB51EC6010FD1A9
:1053A0008C0150E8F52AF3FE06C018C080E290E0B8
:1053B000B3011BD1EA948E2D90E008171907B0F3C2
:1053C0000DC0F601F7FC8591F7FE81916F0190E029
:1053D000B3010BD1E110EA94015010400115110501
:1053E00081F7E2C0943611F0993661F5F7FE08C0F6
:1053F000F501208131814281538184E090E00AC02F
:10540000F501808191819C01442737FD4095542FFF
:1054100082E090E0A80EB91E9FE6F92257FF09C06E
:1054200050954095309521953F4F4F4F5F4FE0E8A5
:10543000FE2ACA01B901A1012AE030E002D1D82E2A
:10544000D2183FC0953729F41F2D1F7E2AE030E087
:105450001DC01F2D197F9F3661F0903720F49835BD
:1054600009F0A5C00FC0903739F0983709F09FC0F8
:1054700004C028E030E00AC0106114FD146020E18F
:1054800030E004C014FD166020E132E017FF08C0D0
:10549000F501608171818281938144E050E008C010
:1054A000F50180819181BC0180E090E042E050E014
:1054B000A40EB51EA101C5D0D82ED2188FE7F82EA4
:1054C000F122F6FE0BC05EEFF522D91438F4F4FE9B
:1054D00007C0F2FC05C08FEEF82202C01D2D01C0EE
:1054E000192DF4FE0DC0FE01ED0DF11D80818033FC
:1054F00019F499EEF92208C01F5FF2FE05C003C03F
:105500008F2D867809F01F5F0F2DF3FC13C0F0FE7E
:105510000EC01E1510F09D2C0AC09D2C9E0C911AD9
:105520001E2D05C080E290E0B3015FD01F5F1E1505
:10553000C8F304C01E1510F4E11A01C0EE2404FFE4
:105540000EC080E390E0B30150D002FF1BC001FD0C
:1055500003C088E790E00EC088E590E00BC0802F84
:10556000867881F001FF02C08BE201C080E2F7FC87
:105570008DE290E0B30139D005C080E390E0B30143
:1055800034D09A94D914C8F3DA94F101ED0DF11DD9
:10559000808190E0B30129D0DD20B1F705C080E221
:1055A00090E0B30122D0EA94EE20C9F750CEF30187
:1055B00066817781CB012B96E2E10D942D05FC01EC
:1055C0000590615070400110D8F7809590958E0F2E
:1055D0009F1F0895FC016150704001900110D8F7A1
:1055E000809590958E0F9F1F08950F931F93CF93D3
:1055F000DF938C01EB018B8181FF1BC082FF0DC00B
:105600002E813F818C819D812817390764F4E881C0
:10561000F9810193F983E88306C0E885F985802F35
:105620001995892B31F48E819F8101969F838E83FA
:1056300002C00FEF1FEFC801DF91CF911F910F91B3
:105640000895FA01AA27283051F1203181F1E89418
:105650006F936E7F6E5F7F4F8F4F9F4FAF4FB1E065
:105660003ED0B4E03CD0670F781F891F9A1FA11D60
:10567000680F791F8A1F911DA11D6A0F711D811D61
:10568000911DA11D20D009F468943F912AE0269F26
:1056900011243019305D3193DEF6CF010895462F85
:1056A0004770405D4193B3E00FD0C9F7F6CF462F66
:1056B0004F70405D4A3318F0495D31FD40524193CF
:1056C00002D0A9F7EACFB4E0A6959795879577958C
:1056D0006795BA95C9F700976105710508959B0113
:1056E000AC010A2E06945795479537952795BA959C
:1056F000C9F7620F731F841F951FA01D0895FC0139
:10570000128213820895FC018381882311F081E0C5
:1057100082830895FC018281811112820895CF93C2
:10572000DF93DC01FC01EB55FE4F808191810097F6
:10573000C9F1019791838083ED01CC5ADF4FFD01C0
:10574000ED58FF4F8BE1019009928150E1F7FD0187
:10575000EE5AFF4FAF58BF4F8D919C911197A157B3
:10576000B04091838083FD01ED58FF4F20E030E091
:10577000AD014B555E4F10C02F5F3F4FEF01DF0172
:105780005F968BE10D9009928150E1F7858D968DA2
:10579000329791838083B196DA018D919C9128177D
:1057A000390750F3DF91CF910895FC0180EB94E02D
:1057B000918380838781882321F0CF0104960C9404
:1057C000DA840895CF92DF92EF92FF920F931F93A6
:1057D000DF93CF93CDB7DEB76F970FB6F894DEBFE8
:1057E0000FBECDBF8C016B01095A1F4FD8018C91A0
:1057F00007551040882321F42FE2E22EF12C03C03C
:1058000090E5E92EF12CE00EF11E80EB94E09A83F6
:1058100089831C821B8218861D82B7016C5F7F4FB3
:10582000CE010596A60121E00E94C68B882391F542
:10583000EBE3F1E0949108C08091C00085FFFCCFBC
:105840009093C600319694919923B1F7E1E4F1E089
:10585000949108C08091C00085FFFCCF9093C60052
:10586000319694919923B1F709C08091C00085FFCA
:10587000FCCF0894C11CD11C9093C600F601908106
:10588000992399F78091C00085FFFCCF8AE080932F
:10589000C6005AC0F801EB55FE4F208131812A30F5
:1058A000310508F040C02F5F3F4F318320832150E6
:1058B0003040F90185E0EE0FFF1F8A95E1F7E21B0A
:1058C000F30BED58FF4FE00FF11F13C0AF01415E26
:1058D0005F4FBF018BE1DB010D90BD01DA010D923D
:1058E000AD018150C1F7929182913296968F858F4A
:1058F0007F9721503040BFEF2E3F3B0739F7D8014B
:10590000AD58BF4FF70134968BE101900D92815055
:10591000E1F70F581F4FF70182819381D8018D93D2
:105920009C9301571040D801AC5ABF4FFE013596E9
:105930008BE101900D928150E1F70E5A1F4F8B8140
:105940009C81F80191838083CE0101962EDF6F96B2
:105950000FB6F894DEBF0FBECDBFCF91DF911F9180
:105960000F91FF90EF90DF90CF900895EF92FF920C
:105970000F931F938C013EECE32E31E0F32EE80EE3
:10598000F91EC7010E948D84C7010E94DA84F801C4
:10599000108211821F910F91FF90EF900895CF9286
:1059A000DF92EF92FF920F931F93CF93DF937C01CF
:1059B0006B01DB010D900020E9F78D0101501040D3
:1059C000061B170BEEECF1E0EE0EFF1ED7011C924A
:1059D000E2E3FEEFEE0EFF1ECB016EE470E0C4DBEF
:1059E000EC01009731F4F8013197EC0DFD1D8601B3
:1059F0000CC060E270E0B8DB8C010F5F1F4FCE017E
:105A00006AE270E0B1DBFC0131978DE081838AE0CE
:105A100082831382C70186539E4FB8010E94BF8CB8
:105A20008EEC91E0E80EF91ED7018C91882319F1D4
:105A3000EBE6F1E0949108C08091C00085FFFCCFB7
:105A40009093C600319694919923B1F7E2E7F1E083
:105A5000949108C08091C00085FFFCCF9093C60050
:105A6000319694919923B1F78091C00085FFFCCFC6
:105A70008AE08093C600DF91CF911F910F91FF9034
:105A8000EF90DF90CF900895CF93DF93EC018B815F
:105A9000882309F43BC0EAE9F1E0949108C08091C1
:105AA000C00085FFFCCF9093C60031969491992356
:105AB000B1F7CD57DD4F488159816A817B81C35849
:105AC000D2408EE595E02AE030E00E942F43E8E9DD
:105AD000F1E0949108C08091C00085FFFCCF9093C5
