:200000000C9445240C9476240C9476240C9476240C9476240C9476240C9476240C94762441
:200020000C9476240C9476240C9476240C9476240C9476240C94B5ED0C9476240C947624E8
:200040000C9476240C9472800C9476240C9476240C9476240C9476240C949F920C947BE719
:200060000C9476240C94B52A0C9476240C9476240C9476240C9476240C9476240C9476246B
:200080000C9476240C9476240C9476240C9476240C9476240C9476240C9476240C94762490
:2000A0000C9476240C9476240C9476240C9476240C9476240C9476240C9476240C94762470
:2000C0000C9476240C9476240C9476240C9476240C9476240C9476240C9476240C94762450
:2000E0000C9476241A932993459354936E937D9397939B939D93A193A993B1E8B6E8BBE8BB
:20010000C5E8CFE848E9D9E8E1E8E9E8F3E8FDE807E916E920E948E92AE934E93EE96AE95C
:200120006DE95CE960E966E9A4E971E975E97BE97FE983E989E98DE991E9A4E997E99BE91C
:200140009FE9084AD73B3BCE016E84BCBFFDC12F3D6C74319ABD56833DDA3D00C77F11BE68
:20016000D9E4BB4C3E916BAAAABE000000803F05A84CCDB2D44EB93836A9020C50B9918618
:2001800088083CA6AAAA2ABE000000803F0048617264636F6465642044656661756C74206F
:2001A00053657474696E6773204C6F616465640053746F7265642073657474696E67732063
:2001C000726574726965766564002044002049002020204D33303120500050494420736502
:2001E0007474696E67733A00205A0020590020204D323036205800486F6D65206F66667345
:20020000657420286D6D293A00204500205A0020580020420020540020204D3230352053BC
:2002200000416476616E636564207661726961626C65733A20533D4D696E2066656564729B
:2002400061746520286D6D2F73292C20543D4D696E2074726176656C2066656564726174CD
:200260006520286D6D2F73292C20423D6D696E696D756D207365676D656E742074696D6583
:2002800020286D73292C20583D6D6178696D756D205859206A65726B20286D6D2F73292C78
:2002A00020205A3D6D6178696D756D205A206A65726B20286D6D2F73292C2020453D6D617A
:2002C00078696D756D2045206A65726B20286D6D2F73290020540020204D323034205300C6
:2002E000416363656C65726174696F6E3A20533D616363656C65726174696F6E2C20543D83
:200300007265747261637420616363656C65726174696F6E00204500205A00205900202046
:200320004D3230312058004D6178696D756D20416363656C65726174696F6E20286D6D2F4C
:200340007332293A00204500205A0020590020204D3230332058004D6178696D756D20663F
:20036000656564726174657320286D6D2F73293A00204500205A0020590020204D39322099
:20038000580053746570732070657220756E69743A0053657474696E67732053746F7265F7
:2003A00064006563686F3A0053544F505045442E20005072696E7465722073746F707065F4
:2003C000642064756520746F206572726F72732E2046697820746865206572726F722061FA
:2003E0006E6420757365204D39393920746F20726573746172742E202854656D706572613A
:20040000747572652069732072657365742E20536574206974206166746572207265737456
:20042000617274696E6729004B494C4C45442E20005072696E7465722068616C7465642E67
:20044000206B696C6C28292063616C6C656421006F6B00526573656E643A20002200556E5F
:200460006B6E6F776E20636F6D6D616E643A2022004368616E67652066696C616D656E741E
:20048000005A204F6666736574203A20007A5F6D61783A20007A5F6D696E3A20005A204F48
:2004A0006666736574005A204F6666736574206F6B006C636420636F6E74726173742076F2
:2004C000616C75653A2000486F74656E64206F6666736574733A007A5F6D696E3A20007975
:2004E0005F6D696E3A2000785F6D696E3A2000205A3A0020593A0020436F756E7420583A48
:20050000200020453A00205A3A0020593A00583A004649524D574152455F4E414D453A4DBF
:2005200061726C696E2056313B20537072696E7465722F6772626C206D6173687570206642
:200540006F722067656E36204649524D574152455F55524C3A68747470733A2F2F67697412
:200560006875622E636F6D2F4572696B5A616C6D2F4D61726C696E2F2050524F544F434F7A
:200580004C5F56455253494F4E3A312E30204D414348494E455F545950453A4D656E6465E8
:2005A0006C2045585452554445525F434F554E543A3220555549443A3030303030303030D7
:2005C0002D303030302D303030302D303030302D3030303030303030303030300A004D652B
:2005E0006E64656C204F66662E004D656E64656C2072656164792E0042656420646F6E6566
:200600002E0020423A0020453A00543A004265642048656174696E672E0048656174696E71
:200620006720646F6E652E0020573A0020453A00543A0048656174696E672E2E2E002042D5
:20064000403A0020403A00202F003A00205400202F0020423A00202F006F6B20543A0025A2
:2006600069206D696E2C2025692073656300456E642066696C65206C69737400426567694E
:200680006E2066696C65206C697374004E6F206D6F76652E004D656E64656C20726561647D
:2006A000792E00526573756D696E67207072696E74005761697420666F7220757365722EF3
:2006C0002E2E00536C6565702E2E2E00256920686F757273202569206D696E757465730089
:2006E000446F6E65207072696E74696E672066696C650053544F505045442E200050726991
:200700006E7465722073746F707065642064756520746F206572726F72732E20466978204E
:20072000746865206572726F7220616E6420757365204D39393920746F20726573746172A2
:20074000742E202854656D70657261747572652069732072657365742E205365742069746B
:200760002061667465722072657374617274696E6729006F6B004E6F204C696E65204E7599
:200780006D626572207769746820636865636B73756D2C204C617374204C696E653A200082
:2007A0004E6F20436865636B73756D2077697468206C696E65206E756D6265722C204C61E3
:2007C0007374204C696E653A2000636865636B73756D206D69736D617463682C204C6173FB
:2007E00074204C696E653A20004C696E65204E756D626572206973206E6F74204C61737451
:20080000204C696E65204E756D6265722B312C204C617374204C696E653A20004D3131308A
:2008200000446F6E6520736176696E672066696C652E006F6B004D3239002020506C616E3F
:200840006E657242756666657242797465733A20002046726565204D656D6F72793A200003
:200860004F6374203131203230313600436F6D70696C65643A2000286E6F6E652C20646573
:200880006661756C7420636F6E6669672900207C20417574686F723A20004F63742031314C
:2008A00020323031362031343A34363A313900204C61737420557064617465643A2000315C
:2008C0002E302E30004D61726C696E0020536F66747761726520526573657400205761741F
:2008E0006368646F67205265736574002042726F776E206F75742052657365740020457830
:200900007465726E616C20526573657400506F7765725570007374617274002200656E71C8
:200920007565696E672022002200656E717565696E67202200FFFFFF0000A0400000A040E0
:20094000000000400000964300007F4300008C430000000000000000000000000000964314
:2009600000007F4300008C430000000000000000000000006563686F3A004572726F723AC9
:20098000007C3C3E5E2B3D3F2F5B5D3B2C2A225C004D383420582059205A20450043616ECB
:2009A0006E6F7420656E746572207375626469723A20004D3234004D3233202573006175B2
:2009C000746F25692E67006572726F722077726974696E6720746F2066696C65004E6F74CF
:2009E000205344207072696E74696E67002F005344207072696E74696E6720627974652070
:200A0000002E0044656C6574696F6E206661696C65642C2046696C653A200046696C652029
:200A200064656C657465643A002E006F70656E206661696C65642C2046696C653A200057C3
:200A4000726974696E6720746F2066696C653A20002E006F70656E206661696C65642C203B
:200A600046696C653A20002E006F70656E206661696C65642C2046696C653A200046696CF6
:200A8000652073656C6563746564002053697A653A200046696C65206F70656E65643A20FE
:200AA000002E006F70656E206661696C65642C2046696C653A20004E6F772066726573683F
:200AC0002066696C653A20004E6F7720646F696E672066696C653A20002220706F730022C7
:200AE00020706172656E743A2200535542524F5554494E452043414C4C20746172676574FD
:200B00003A2200747279696E6720746F2063616C6C207375622D67636F64652066696C65C4
:200B200073207769746820746F6F206D616E79206C6576656C732E204D4158206C65766574
:200B40006C2069733A0053442063617264206F6B006F70656E526F6F74206661696C6564CD
:200B600000766F6C756D652E696E6974206661696C656400534420696E6974206661696C4F
:200B8000006563686F3A004572726F723A0020746F6F206C6F6E6720657874727573696F53
:200BA0006E2070726576656E7465640020636F6C6420657874727573696F6E20707265762A
:200BC000656E746564006563686F3A00656E6473746F7073206869743A205A00205A3A00EF
:200BE000656E6473746F7073206869743A20590020593A00656E6473746F707320686974E5
:200C00003A20580020583A00656E6473746F7073206869743A200024F4D43050C38E20C2A2
:200C2000A24017828B7011127A910D816CD90AA861E108C7586607615143061E4B5D05C12E
:200C400045A7041A411104093D9803713931034036DB0265339102D4305402802E1D02636D
:200C60002CEE01752AC501B028A001102781018F2564012B244B01E0223401AC211F018D5D
:200C8000200D01801FFC00841EED00971DDF00B81CD200E61BC600201BBC00641AB200B223
:200CA00019A8000A19A0006A189900D117910040178B00B516840031167E00B31579003AAB
:200CC000157300C7146F0058146A00EE1366008813630025135E00C7125B006C1257001553
:200CE000125400C111510070114F0021114B00D61049008D1047004610440002104200C05D
:200D00000F4000800F3E00420F3C00060F3B00CB0E3800930E37005C0E3500270E3400F3F6
:200D20000D3200C10D3100900D3000600D2E00320D2D00050D2C00D90C2B00AE0C290085EB
:200D40000C29005C0C2700350C27000E0C2600E80B2400C40B2400A00B23007D0B23005A4A
:200D60000B2100390B2100180B2000F80A1F00D90A1E00BB0A1E009D0A1D00800A1D0063CC
:200D80000A1C00470A1B002C0A1B00110A1A00F7091A00DD091900C4091900AB09190092DD
:200DA0000917007B091800630917004C09160036091600200916000A091500F5081500E0DB
:200DC000081400CC081400B8081400A4081400900813007D0812006B0813005808120046FB
:200DE00008120034081100230811001208110001081100F0071000E0071000D0071000C066
:200E0000071000B0070F00A107100091070E0083070F0074070F0065070E0057070E004945
:200E2000070E003B070D002E070E0020070D0013070D0006070D00F9060C00ED060D00E0AB
:200E4000060C00D4060C00C8060C00BC060C00B0060C00A4060B0099060C008D060B0082B0
:200E6000060B0077060B006C060B0061060A0057060B004C060A0042060A0038060A002E5F
:200E8000060A0024060A001A060A001006090007060A00FD050900F4050900EB050900E2C6
:200EA000050900D9050900D0050900C7050900BE050900B5050800AD050800A50509009CF3
:200EC000050800940508008C050800840508007C050800740508006C050700650508005DE9
:200EE000050700560508004E050700470507004005080038050700310507002A05070023AF
:200F00000507001C050600160507000F0507000805060002050700FB040600F5040700EE4D
:200F2000040600E8040600E2040700DB040600D5040600CF040600C9040600C3040600BDCE
:200F4000040600B7040600B1040500AC040600A6040600A00405009B04060095040500902A
:200F60000406008A04050085040500800406007A04050075040500700405006B0405006668
:200F8000040500610405005C04050057040500520405004D04050048040500430405003E8D
:200FA0000404003A04050035040500300404002C04050027040400230405001E0404001AA0
:200FC00004040016040500110404000D040400090405000404040000040400FC030400F89B
:200FE000030400F4030400F0030400EC030400E8030400E4030400E0030400DC030400D889
:20100000030400D4030400D0030400CC030400C8030300C503030024F404D9201BC40C5C4F
:201020000E9804C4095F0265077101F405F900FB04B30048048700C10369005803550003A3
:20104000034500BE023A008402310053022A002902250004022000E4011C00C8011900AF10
:201060000117009801140084011300710110006101100051010E0043010D0036010B002B01
:20108000010B0020010B00150109000C01090003010800FB000800F3000800EB000700E403
:2010A000000600DE000600D8000600D2000600CC000500C7000500C2000500BD000400B9B2
:2010C000000400B5000400B1000400AD000400A9000400A5000300A20003009F0004009BB5
:2010E000000300980003009500020093000300900003008D0002008B000300880002008665
:2011000000020084000300810002007F0002007D0002007B000200790002007700010076DD
:201120000002007400020072000100710002006F0002006D0001006C0002006A0001006930
:20114000000200670001006600010065000100640002006200010061000100600001005F6D
:201160000002005D0001005C0001005B0001005A000100590001005800010057000100569A
:20118000000100550001005400010053000000530001005200010051000100500001004FB7
:2011A0000001004E0000004E0001004D0001004C0001004B0000004B0001004A00010049CB
:2011C0000001004800000048000100470001004600000046000100450000004500010044D9
:2011E000000100430000004300010042000000420001004100000041000100400001003FDF
:201200000000003F0001003E0000003E0001003D0000003D0001003C0000003C0000003CE2
:201220000001003B0000003B0001003A0000003A00010039000000390001003800000038DE
:201240000000003800010037000000370001003600000036000000360001003500000035D9
:201260000000003500010034000000340000003400010033000000330000003300010032CF
:201280000000003200000032000100310000003100000031000100300000003000000030C5
:2012A0000001002F0000002F0000002F0000002F0001002E0000002E0000002E0001002DB8
:2012C0000000002D0000002D0000002D0001002C0000002C0000002C0000002C0001002BAA
:2012E0000000002B0000002B0000002B0001002A0000002A0000002A0000002A000100299A
:20130000000000290000002900000029000000290001002800000028000000280000002888
:20132000000000280001002700000027000000270000002700000027000100260000002674
:20134000000000260000002600000026000100250000002500000025000000250000002561
:2013600000000025000100240000002400000024000000240000002400010023000000234C
:20138000000000230000002300000023000000230000002300010022000000220000002237
:2013A000000000220000002200000022000100210000002100000021000000210000002121
:2013C00000000021000000210001002000000020000000200000002000000020000000200A
:2013E00000000020000000200001001F0000001F0000001F0000001F0000001F0000001FF2
:201400000000001F0001001E0000001E0000001E0000001E0000006563686F3A0045727232
:201420003A204D415854454D50204245440054656D70657261747572652068656174656432
:2014400020626564207377697463686564206F66662E204D415854454D50207472696767C4
:2014600065726564202121004572723A204D494E54454D50003A2045787472756465722000
:201480007377697463686564206F66662E204D494E54454D50207472696767657265642031
:2014A00021004572723A204D415854454D50003A204578747275646572207377697463680D
:2014C0006564206F66662E204D415854454D5020747269676765726564202100202D2049AA
:2014E0006E76616C6964206578747275646572206E756D62657220210050494420417574CA
:201500006F74756E652066696E6973686564212050757420746865206C617374204B702C80
:20152000204B6920616E64204B6420636F6E7374616E74732066726F6D2061626F76652097
:20154000696E746F20436F6E66696775726174696F6E2E6800504944204175746F74756ED6
:2015600065206661696C6564212074696D656F75740020403A006F6B20543A006F6B2042DB
:201580003A00504944204175746F74756E65206661696C6564212054656D70657261747542
:2015A000726520746F6F206869676800204B643A2000204B693A2000204B703A2000204333
:2015C0006C61737369632050494420002054753A2000204B753A2000206D61783A20002012
:2015E0006D696E3A200020643A200020626961733A20004572726F723A001000600350014E
:201600002C0190012201D001180110020E0170020401E002FA006003F0000004E600B0049A
:20162000DC00A005D200B006C8000008BE00A009B400800BAA00D00DA00090109600C013FB
:201640008C0070178200901B780010206E00C0246400E02D500080353C00A03A2800A03DBF
:201660001400003F0000A03FECFF70012C0190012701B0012201C0011D01F0011801100227
:20168000130130020E016002090190020401C002FF000003FA004003F5008003F000D003B6
:2016A000EB002004E6007004E100E004DC004005D700C005D2004006CD00D006C800800735
:2016C000C3003008BE00F008B900C009B400B00AAF00B00BAA00D00CA500000EA000500FC7
:2016E0009B00C01096005012910000148C00C0158700B0178200B0197D00D01B7800001EEA
:20170000730040206E0090226900F024640040275F0090295A00E02B5500102E50002030DE
:201720004B0010324600E033410090353C001037370070383200A0392D00B03A2800A03B36
:201740002300603C1E00103D1900903D1400103E0F00703E0A00C03E0500003F000043616A
:2017600072642072656D6F766564004361726420696E736572746564004D33303020533600
:2017800039382050323030004D33303020533635392050323030005900B02000B02000B034
:2017A0002000B02000B02000B020002D2D3A2D2D004D363030004368616E67652066696C27
:2017C000616D656E7400466C6F77203100466C6F77203100466C6F77203000466C6F772082
:2017E0003000466C6F7700466C6F770046616E2073706565640046616E20737065656400FD
:2018000042656400426564004E6F7A7A6C6532004E6F7A7A6C6532004E6F7A7A6C65004E7A
:201820006F7A7A6C65005370656564005370656564004D61696E00507265686561742050D4
:201840004C4120426564005072656865617420504C4120416C6C0050726568656174205098
:201860004C412032005072656865617420504C4120310050726570617265005072656865AF
:201880006174204142532042656400507265686561742041425320416C6C00507265686566
:2018A0006174204142532032005072656865617420414253203100507265706172650058D4
:2018C0000059005A004578747275646572004578747275646572004D6F7665205A004D6FE2
:2018E00076652059004D6F76652058004D6F76652061786973004D6F766520302E316D6DF9
:20190000004D6F766520316D6D004D6F76652031306D6D0050726570617265004D6F7665AD
:201920002061786973004D38300053776974636820706F776572206F6E004D3831005377E1
:201940006974636820706F776572206F666600436F6F6C646F776E00507265686561742009
:20196000414253005072656865617420504C410053657420686F6D65206F666673657473BC
:2019800000473238004175746F20686F6D65004D38340044697361626C652073746570707B
:2019A000657273004D61696E0053746F7265206D656D6F72790042656400426564004E6FBF
:2019C0007A7A6C65004E6F7A7A6C650046616E2073706565640046616E2073706565640034
:2019E00054656D70657261747572650053746F7265206D656D6F727900426564004265647D
:201A0000004E6F7A7A6C65004E6F7A7A6C650046616E2073706565640046616E20737065FF
:201A200065640054656D706572617475726500507265686561742041425320636F6E6600CA
:201A40005072656865617420504C4120636F6E66005049442D43005049442D430050494483
:201A60002D44005049442D44005049442D49005049442D49005049442D50005049442D504D
:201A800000200220466163740020022046616374002002204D6178002002204D61780020D6
:201AA00002204D696E002002204D696E004F6666004F6E20004F6666004F6E200041757460
:201AC0006F74656D700046616E2073706565640046616E20737065656400426564004265A3
:201AE00064004E6F7A7A6C6532004E6F7A7A6C6532004E6F7A7A6C65004E6F7A7A6C650016
:201B0000436F6E74726F6C004573746570732F6D6D004573746570732F6D6D005A73746544
:201B200070732F6D6D005A73746570732F6D6D005973746570732F6D6D005973746570730E
:201B40002F6D6D005873746570732F6D6D005873746570732F6D6D00412D7265747261636D
:201B60007400412D7265747261637400416D6178206500416D6178206500416D6178207A55
:201B800000416D6178207A00416D6178207900416D6178207900416D6178207800416D61B6
:201BA000782078005654726176206D696E005654726176206D696E00566D696E00566D69A1
:201BC0006E00566D6178206500566D6178206500566D6178207A00566D6178207A00566D26
:201BE0006178207900566D6178207900566D6178207800566D617820780056652D6A6572AD
:201C00006B0056652D6A65726B00567A2D6A65726B00567A2D6A65726B005678792D6A6530
:201C2000726B005678792D6A65726B00416363656C00416363656C00436F6E74726F6C0016
:201C40004C434420636F6E747261737400526573746F7265206661696C73616665004C6F29
:201C60006164206D656D6F72790053746F7265206D656D6F7279004C434420636F6E747207
:201C8000617374004D6F74696F6E0054656D7065726174757265004D61696E004D3834209A
:201CA000582059205A2045004D3234004D323320257300F92E2E004D61696E004E6F20534D
:201CC000442063617264005072696E742066726F6D2053440053746F70207072696E74007B
:201CE000526573756D65207072696E74005061757365207072696E7400436F6E74726F6CFA
:201D000000507265706172650054756E6500496E666F2073637265656E000000000000002C
:201D20000000000000007FFFE00000000000000000000000007000E00000000000000000F5
:201D40000000000061F86000000000000000000000000041F8200000000000000000000071
:201D6000000040F02000000000000000000000000040602000000000000000000000000053
:201D80005801A07F80003FC0000000004104005C63A0FBC00079E0000000002082005EF79D
:201DA000A0F3C00076E0000000002082005EF7A0EBC0007EE0000000004104005C63A07BBB
:201DC00080003DC0000000008208005801A07B80003BC000000001041000406020FBC0007D
:201DE00077E00000000104100040F020FBC00070E00000000082080041F820FFC0007FE01B
:201E00000000000041040061F8603F00001F80000000000000007000E01E00000F00000069
:201E20000001FFFF807FFFE00C0000060000000001FFFF8000000000000000000000000034
:201E40000000007FFFE00000000000000000000000007000E00000000000000000000000D4
:201E600000630C60000000000000000000000000470E200000000000000000000000004FCF
:201E80000F200000000000000000000000005F0FA00000000000000000000000005E07A000
:201EA0007F80003FC000000000410400406020FBC00079E00000000020820040F020F3C066
:201EC0000076E00000000020820040F020EBC0007EE0000000004104004060207B80003D74
:201EE000C0000000008208005E07A07B80003BC0000000010410005F0FA0FBC00077E00068
:201F00000000010410004F0F20FBC00070E000000000820800470E20FFC0007FE000000006
:201F200000410400630C603F00001F80000000000000007000E01E00000F0000000001FF32
:201F4000FF807FFFE00C0000060000000001FFFF80000000FFFFFFFFFFFFFFF0FFFFFFFF2E
:201F6000FFFFFFF0FFFFFFF9FFFFFFF0FFFFFFF0FFFFFFF0FFFFFFE07FFFFFF0FFFFFFC0B0
:201F80003FFFFFF0FFFFFF801FFFFFF0FFFFFF000FFFFFF0FFFFFE0007FFFFF0FFFFFC00A5
:201FA00003FFFFF0FFFFF80001FFFFF0FFFFF00000FFFFF0FFFFE000007FFFF0FFFFC00065
:201FC000003FFFF0FFFF8000003FFFF0FFFF0000001FFFF0FFFE0000000FFFF0FFFE000023
:201FE0000007FFF0FFFC00000007FFF0FFFC00000003FFF0FFF800000003FFF0FFF800002D
:202000000003FFF0FFF800000001FFF0FFF800000001FFF0FFF800000001FFF0FFF8000022
:202020000001FFF0FFF800000001FFF0FFF800000001FFF0FFF800000001FFF0FFF8000004
:202040000001FFF0FFF800000003FFF0FFF800000003FFF0FFFC00000003FFF0FFFC0000D6
:202060000007FFF0FFFE00000007FFF0FFFE0000000FFFF0FFFF0000001FFFF0FFFF8000F2
:20208000001FFFF0FFFFC000003FFFF0FFFFE000007FFFF0FFFFF00001FFFFF0FFFFFC0023
:2020A00003FFFFF0FFFFFF001FFFFFF0FFFFFFFFFFFFFFF0FFFFFFFFFFFFFFF0FFFFFFFF57
:2020C000FFFFFFF0FFFFFFFFFFFFFFF0FFFFFFFFFFFFFFF0FFFFFFFFFFFFFFF0FFFFFFFF5C
:2020E000FFFFFFF083FFFFFE0FFFFFF080FFFFFE03FFFFF0887FFFFE23FFFFF08C70380EB3
:202100007181C0708C60380E6380C03080E319C607F8C73080E019C60380C7108C6279C69A
:20212000639CC7308C63F8C67118C6308E30180E7180C0309E38391E79C4C4F0FFFFF9FFA4
:20214000FFFFC7F0FFFFF9FFFFFFC7F0FFFFFFFFFFFFFFF000000000000000000000000036
:2021600000000000000000000000000000000000000000000000000000000000000000005F
:2021800000000000000000000000000000000000000000060900FE070199032B20FFFE083E
:2021A000FE07FE00000006000001070706020080808080800080030303060104A0A0A00506
:2021C00007070600005050F850F850500507070600002070A0702870200507070600004899
:2021E000A8502050A89005070706000040A0A040A89068010303060204808080030707061C
:20220000010020408080804020030707060100804020202040800505050600018850F8504F
:20222000880505050600012020F820200303030601FF604080050101060003F80303030642
:2022400001FF40E040050707060000080810204080800507070600002050888888502005EF
:2022600007070600002060A0202020F8050707060000708808304080F8050707060000F8C0
:2022800008103008887005070706000010305090F81010050707060000F880B0C80888709C
:2022A000050707060000304080B0C88870050707060000F8081010204040050707060000B3
:2022C00070888870888870050707060000708898680810600307070601FF40E0400040E06E
:2022E000400307070601FF40E040006040800407070601001020408040201005030306007D
:2023000002F800F80407070601008040201020408005070706000070881020200020050755
:2023200007060000708898A8B0807005070706000020508888F88888050707060000F048C6
:2023400048704848F005070706000070888080808870050707060000F04848484848F00556
:202360000707060000F88080F08080F8050707060000F88080F0808080050707060000705F
:20238000888080988870050707060000888888F8888888030707060100E04040404040E0CC
:2023A000050707060000381010101090600507070600008890A0C0A090880507070600003A
:2023C000808080808080F80507070600008888D8A88888880507070600008888C8A898880B
:2023E0008805070706000070888888888870050707060000F08888F0808080050808060010
:20240000FF7088888888A87008050707060000F08888F0A09088050707060000708880704B
:20242000088870050707060000F820202020202005070706000088888888888870050707FF
:2024400006000088888850505020050707060000888888A8A8D888050707060000888850F4
:202460002050888805070706000088885020202020050707060000F80810204080F80307D8
:2024800007060100E08080808080E005070706000080804020100808030707060100E0203D
:2024A00020202020E00503030600042050880501010600FFF80202020602068040050505C8
:2024C00006000070087888780507070600008080B0C888C8B00505050600007088808870F0
:2024E000050707060000080868988898680505050600007088F880700507070600003048A5
:2025000040F04040400507070600FE788888780888700507070600008080B0C88888880388
:2025200007070601004000C0404040E00409090601FE1000301010109090600507070600C2
:202540000080808890E09088030707060100C04040404040E0050505060000D0A8A8A8880E
:20256000050505060000B0C888888805050506000070888888700507070600FEB0C888C8CA
:20258000B080800507070600FE68988898680808050505060000B0C88080800505050600BA
:2025A0000070807008F00507070600004040F040404830050505060000888888986805058B
:2025C0000506000088885050200505050600008888A8A85005050506000088502050880571
:2025E00007070600FE88889868088870050505060000F8102040F80407070601003040209B
:20260000C020403001070706020080808080808080040707060100C02040304020C0050342
:202620000306000448A8900000000100000000000100000000000100000000000100000009
:20264000000001000000000001000000000001000000000001000000000001000000000075
:20266000010000000000010000000000010000000000010000000000010000000000010054
:20268000000000000100000000000100000000000100000000000100000000000100000035
:2026A000000001000000000001000000000001000000000001000000000001000000000015
:2026C0000100000000000100000000000100000000000100000000000100000000000100F4
:2026E0000000000001000000000001000000000006000001070706020080008080808080BB
:202700000507070600FF2078A0A0A07820050707060000304840E04048B005050506000093
:2027200088705070880508080600FF88885020F82020200107070602008080800080808050
:202740000508080600FF7080E09048380870030101060107A00507070600007088A8C8A82B
:2027600088700406060601017090B05000F00605050600002448904824040202060102F0DA
:2027800010040101060103F00507070600007088E8C8C88870050101060007F8030303068D
:2027A000010440A0400506060600002020F82020F804050506010360902040F00405050601
:2027C0000103E0106010E002020206020640800506060600FF888888C8B080050707060022
:2027E0000078E8E868282828010101060203800202020602FE408003050506010340C04000
:2028000040E00406060601016090906000F006050506000090482448900609090600FF4069
:20282000C04040E40C143C040609090600FF40C04040E81404081C0509090600FFC0204017
:2028400020C818287808050707060000200020204088700508080600004020708888F888A4
:20286000880508080600001020708888F888880508080600002050708888F88888050808D5
:2028800006000048B0708888F888880508080600005000708888F888880508080600002084
:2028A00050708888F888880607070600003C50909CF0909C0509090600FE70888080808837
:2028C00070204005080806000040F88080F08080F805080806000010F88080F08080F805DD
:2028E000080806000020F88080F08080F805080806000050F88080F08080F803080806015D
:20290000008040E040404040E00308080601002040E040404040E003080806010040A0E023
:2029200040404040E0030808060100A000E040404040E0050707060000F04848E84848F03C
:20294000050808060000285088C8A8988888050808060000402070888888887005080806AE
:20296000000010207088888888700508080600002050708888888870050808060000285009
:202980007088888888700508080600005000708888888870050505060000885020508805E2
:2029A0000707060000709898A8C8C87005080806000040208888888888700508080600000D
:2029C000102088888888887005080806000020500088888888700508080600005000888819
:2029E00088888870050808060000102088885020202005070706000080F088F0808080053E
:202A00000707060000708890A09088B005080806000040200070087888780508080600002C
:202A20001020007008788878050808060000205000700878887805080806000028500070F8
:202A40000878887805070706000050007008788878050808060000205020700878887806FC
:202A6000050506000078147C907C0507070600FE70888088702040050808060000402000D0
:202A80007088F880700508080600001020007088F880700508080600002050007088F88030
:202AA0007005070706000050007088F88070030808060100804000C0404040E0030808060A
:202AC0000100408000C0404040E003080806010040A000C0404040E0060A0A0600FEA4A811
:202AE00000FC8480808084FC060A0A0600FE549400FC8404040484FC0508080600002850B1
:202B000000B0C88888880508080600004020007088888870040A0A0602FE304080909090F4
:202B200090909090040A0A0600FEC0201090909090909090060707060001448C8C8480409E
:202B40003C06070706000188C4C4840408F00505050600012000F8002005080806000040E5
:202B6000F0C88888987810050808060000E0F88888888888F80505050600012030F830202C
:202B80000508080600002070F820202020E00509090600FF2070A8A8B888885020050909E7
:202BA0000600FFE080C0B0A8A83028280509090600FFF8A88888888888A8F8050A0A06004D
:202BC000FE205050505088A8A8887000060900FE06018902FE20FFFE07FE06FE00000006FE
:202BE0000007010606060200808080800080030303060103A0A0A00507070600FF5050F896
:202C000050F850500509090600FE2070A8A07028A870200608080600FF40A84810204854F2
:202C2000080507070600FF609090609890680103030602038080800207070602FF4080801B
:202C4000808080400207070602FF804040404040800505050600008850F85088050505068B
:202C600000002020F820200204040602FEC0404080050101060002F8020202060200C0C077
:202C800004060606010010102040808004060606010060909090906003060606010040C070
:202CA000404040E00406060601006090102040F0040606060100F020601010E0050606066F
:202CC000000010305090F810040606060100F080E01010E00406060601006080E09090600E
:202CE000040606060100F0101020404004060606010060906090906004060606010060901F
:202D000090701060020505060200C0C000C0C00207070602FEC0C000C040408005050506C4
:202D200000001860806018050303060001F800F8050505060000C0300830C004070706010B
:202D400000609010604000400506060600007090A8B08070050606060000205088F888881D
:202D6000050606060000F088F08888F0040606060100609080809060040606060100E09056
:202D8000909090E0040606060100F080E08080F0040606060100F080E0808080040606064F
:202DA0000100609080B090600406060601009090F0909090030606060100E040404040E055
:202DC00005060606000038101010906004060606010090A0C0A090900406060601008080A6
:202DE000808080F005060606000088D8A8A8888804060606010090D0B0909090050606069E
:202E00000000708888888870040606060100E09090E080800407070601FF609090D0B06043
:202E200010040606060100E09090E09090040606060100609040209060050606060000F805
:202E40002020202020040606060100909090909060040606060100909090F0606005060603
:202E60000600008888A8A8D8880506060600008850202050880506060600008888502020CE
:202E800020040606060100F010204080F0030606060100E080808080E004060606010080BE
:202EA0008040201010030606060100E020202020E00503030600032050880501010600FEA5
:202EC000F80202020602048040040404060100709090700406060601008080E09090E0041A
:202EE00004040601007080807004060606010010107090907004040406010060B0C0700455
:202F00000606060100205040E040400406060601FE6090907010600406060601008080E022
:202F20009090900306060601004000C04040E00308080601FE200060202020A04004060683
:202F40000601008080A0C0A090030606060100C040404040E0050404060000D0A8A8880465
:202F60000404060100E0909090040404060100609090600406060601FEE09090E0808004C6
:202F800006060601FE709090701010040404060100A0D0808004040406010070C030E00426
:202FA00006060601004040E0405020040404060100909090700404040601009090606005C3
:202FC000040406000088A8A850040404060100906060900406060601FE909090709060049F
:202FE0000404060100F02040F0030707060100204040804040200107070602FF8080808094
:203000008080800307070601008040402040408004020206010350A0FFFFFFFFFFFFFFFFFE
:20302000FFFFFFFFFFFFFFFFFFFFFFFFFFFFFFFFFFFFFFFFFFFFFFFFFF000000060007019B
:2030400006060602008000808080800406060601FF2070A0A070200507070600FF30484096
:20306000F04040F8050505060000A8508850A80506060600008850F820F820010707060225
:20308000FF808080008080800407070601FF708060906010E0030101060105A0060707061E
:2030A0000000788494A494847803050506010160A06000E00505050600002850A05028044E
:2030C0000303060100F01010040101060102F00607070600007884B4A4A4847804010106BA
:2030E0000105F00403030601026090600507070600FF2020F8202000F8030505060101409A
:20310000A02040E0030505060101C0204020C002020206020440800405050601FF9090B004
:20312000D08005060606000078E8E8682828010101060202800202020602FE4080030505C2
:2031400006010140C04040E003050506010140A04000E0050505060000A0502850A00508C8
:20316000080600FF40C04050703078100508080600FF40C04050680810380508080600FF0E
:20318000C0204030F0307810040707060100200020608090600507070600004020205070B5
:2031A000888805070706000010202050708888050707060000205020507088880507070634
:2031C000000028502050708888050707060000500020507088880507070600002050205035
:2031E00070888805060606000078A0F0A0A0B80408080601FE6090808090602040040707CD
:203200000601004020F080E080F00407070601002040F080E080F00407070601002050F0D5
:2032200080E080F00407070601005000F080E080F00307070601008040E0404040E0030733
:20324000070601002040E0404040E003070706010040A0E0404040E0030707060100A00050
:20326000E0404040E00506060600007048E848487004070706010050A090D0B090900407D3
:203280000706010040206090909060040707060100204060909090600407070601002050DE
:2032A000609090906004070706010050A06090909060040707060100500060909090600547
:2032C000050506000088502050880408080601FF1070B0B0D0D0E08004070706010040209B
:2032E0009090909060040707060100204090909090600407070601002050909090906004E8
:20330000070706010050009090909060050707060000102088502020200406060601008090
:20332000E09090E0800406060601006090A0A090A004070706010040200070909070040732
:2033400007060100204000709090700407070601002050007090907004070706010050A06D
:20336000007090907004060606010050007090907004070706010020502070909070050434
:203380000406000070A8B0780406060601FE70808070204004070706010040200060B0C045
:2033A0007004070706010020400060B0C07004070706010020500060B0C070040606060104
:2033C00000500060B0C070030707060100804000C04040E0030707060100204000C04040AD
:2033E000E003070706010040A000C04040E0030606060100A000C04040E0040707060100E6
:203400003060107090906004070706010050A000E09090900407070601004020006090908A
:20342000600407070601002040006090906004070706010020500060909060040707060151
:203440000050A000609090600406060601005000609090600505050600002000F800200404
:20346000040406010070B0D0E00407070601004020009090907004070706010020400090CB
:20348000909070040707060100205000909090700406060601005000909090700409090650
:2034A00001FE2040009090907090600408080601FE8080E09090E080800408080601FE503B
:2034C0000090909070906000091200FC0A01E803D720FFFD0EFD0BFD00000009000E010BA6
:2034E0000B090400808080808080800000808004040409030790909090080A0A090000248C
:203500002424FF2424FF242424070B0B0901FF107C929050381412927C10070A0A090100EC
:2035200042A4A4481010244A4A84070A0A0901006090909060629488946201040409040737
:2035400080808080030C0C0903FF204040808080808080404020030C0C0903FF80404020BF
:20356000202020202040408007070709010310925438549210070707090101101010FE1007
:2035800010100204040904FEC0C04080070101090104FE020202090400C0C0070A0A0901E9
:2035A0000002040408101020404080070A0A09010038448282828282824438070A0A09016B
:2035C00000103050901010101010FE070A0A090100384482020408102040FE070A0A0901B9
:2035E00000FE020408180402028478070A0A090100040C14244484FE040404070A0A09013F
:2036000000FE808080F80402028478070A0A0901003C408080B8C482824438070A0A09016E
:2036200000FE020404080810101010070A0A09010038448244384482824438070A0A0901AA
:203640000038448282463A02020478020707090400C0C0000000C0C00209090904FEC0C02E
:20366000000000C0C04080050909090200081020408040201008070404090102FE0000FE61
:20368000050909090200804020100810204080070A0A0901003844820204081010001007B8
:2036A0000A0A09010038449AAAAAAAAA9C403C070A0A09010010282828447C4482828207D8
:2036C0000A0A090100F8848284F884828284F8070A0A0901003C42808080808080423C0726
:2036E0000A0A090100F88482828282828284F8070A0A090100FE808080F880808080FE0708
:203700000A0A090100FE808080F88080808080070A0A09010038448280808E82824438075D
:203720000A0A09010082828282FE8282828282050A0A090200F82020202020202020F807C0
:203740000A0A0901003E080808080808888870070A0A09010082848890A0D0888482820793
:203760000A0A090100808080808080808080FE070A0A0901008282C6AA92828282828207F1
:203780000A0A0901008282C2A2928A86828282070A0A0901007C82828282828282827C0747
:2037A0000A0A090100F884828284F880808080080B0B0901FF384482828282828A443A01B9
:2037C000070A0A090100F884828284F890888482070A0A0901007C8280807C020202827C07
:2037E000070A0A090100FE101010101010101010070A0A0901008282828282828282443865
:20380000070A0A09010082828244444428282810070A0A0901008282828292929292AA4446
:20382000070A0A09010082824428101028448282070A0A090100828244281010101010106E
:20384000070A0A090100FE0204081020408080FE040C0C0903FFF080808080808080808032
:2038600080F0070A0A09010080404020101008040402040C0C0902FFF010101010101010DB
:20388000101010F0070404090106102844820801010900FFFF03030309030A8040200707CD
:2038A000070901007C02027E82867A070A0A090100808080BCC2828282C2BC070707090131
:2038C000007C82808080827C070A0A0901000202027A86828282867A0707070901007C829E
:2038E00082FE80827C070A0A0901001C22222020F820202020070A0A0901FD7A84848478ED
:20390000807C82827C070A0A090100808080BCC28282828282050A0A090200600000E020FA
:2039200020202020F8050D0D0902FD18000038080808080808888870070A0A0901008080C3
:2039400080848890B0C88482050A0A090200E02020202020202020F8070707090100EC9234
:203960009292929282070707090100BCC282828282820707070901007C82828282827C07AE
:203980000A0A0901FDB8C4828282C4B8808080070A0A0901FD3A46828282463A0202020759
:2039A00007070901009C6242404040400707070901007C82807C02827C0709090901002053
:2039C00020FC20202020221C0707070901008282828282867A070707090100828244442891
:2039E00028100707070901008282929292AA4407070709010082442810284482070A0A0999
:203A000001FD42422424241818109060070707090100FE0408102040FE060B0B0902001CAE
:203A200020202020C0202020201C010C0C0904FF808080808080808080808080060B0B0960
:203A40000100E0101010100C10101010E007030309010762928CFFFFFFFFFFFFFFFFFFFF85
:203A6000FFFFFFFFFFFFFFFFFFFFFFFFFFFFFFFFFFFFFFFFFFFFFF00000009000E010B0B2F
:203A8000090400808000008080808080808006080809010008789490A0A47840070A0A09B5
:203AA00001001C222020F8202060A25C070606090103827C44447C82070A0A090100828224
:203AC00044287C107C101010010B0B0904FF8080808080008080808080040B0B0902FF609B
:203AE0009080609090906010906003020209030BA0A00809090900013C4299A5A1A59942E7
:203B00003C050707090103609070907800F807080809010112244890904824120604040994
:203B20000102FC040404050101090204F80809090900013C42B9A5BDA9A5423C06010109D2
:203B40000109FC04040409030660909060070909090101101010FE10101000FE04060609C8
:203B600001046090106080F004060609010460902010906003030309030A2040800709092A
:203B80000901FE8282828282C6BA8080070A0A0901007E8A8A8A7A0A0A0A0A0A0202020917
:203BA0000404C0C00403030902FD20906003060609010440C0404040E0050606090104700F
:203BC00088887000F80708080901019048241212244890070A0A09010040C0404042E60A58
:203BE000121A06070A0A09010040C040404CF2020C101E070A0A0901006090201092660A2D
:203C0000121A06070A0A0901001000101020408082827C070E0E09010020100800102828F8
:203C200028447C44828282070E0E0901000810200010282828447C44828282070E0E09012E
:203C4000001028440010282828447C44828282070D0D09010034580010282828447C448211
:203C60008282070D0D09010028280010282828447C44828282070E0E090100102828101006
:203C8000282828447C44828282070A0A0901001E2828284E784888888E070D0D0901FD3C57
:203CA00042808080808080423C082418070E0E09010020100800FE808080F880808080FE27
:203CC000070E0E09010008102000FE808080F880808080FE070E0E09010010284400FE80E4
:203CE0008080F880808080FE070D0D090100282800FE808080F880808080FE050E0E0902B3
:203D00000040201000F82020202020202020F8050E0E09020010204000F8202020202020EF
:203D20002020F8050E0E09020020508800F82020202020202020F8050D0D0902005050006D
:203D4000F82020202020202020F8070A0A09010078444242F24242424478070D0D0901006F
:203D60003458008282C2A2928A86828282070E0E090100201008007C828282828282828236
:203D80007C070E0E090100081020007C82828282828282827C070E0E090100102844007C15
:203DA00082828282828282827C070D0D0901003458007C82828282828282827C070D0D098E
:203DC00001002828007C82828282828282827C07070709010182442810284482070C0C0956
:203DE00001FF027C868A8A9292A2A2C27C80070E0E09010020100800828282828282828210
:203E00004438070E0E0901000810200082828282828282824438070E0E090100102844008C
:203E200082828282828282824438070D0D09010028280082828282828282824438070E0ECC
:203E40000901000810200082824428101010101010070A0A0901008080FC828282FC8080AD
:203E600080060A0A09010038444448D04844444458070B0B090100201008007C02027E827B
:203E8000867A070B0B090100081020007C02027E82867A070B0B090100102844007C020220
:203EA0007E82867A070A0A0901003458007C02027E82867A070A0A0901002828007C0202DC
:203EC0007E82867A070C0C09010010282810007C02027E82867A0707070901006C12127E9C
:203EE00090926C070A0A0901FD7C82808080827C104830070B0B090100201008007C82822F
:203F0000FE80827C070B0B090100081020007C8282FE80827C070B0B090100102844007CAB
:203F20008282FE80827C070A0A0901002828007C8282FE80827C050C0C0902008040200088
:203F400000E02020202020F8050C0C0902001020400000E02020202020F8050C0C090200B1
:203F60002050880000E02020202020F8050B0B09020050500000E02020202020F8070B0B76
:203F8000090100483050083C448282824438070A0A090100345800BCC28282828282070BFA
:203FA0000B090100201008007C82828282827C070B0B090100081020007C82828282827C51
:203FC000070B0B090100102844007C82828282827C070A0A0901003458007C828282828205
:203FE0007C070A0A0901002828007C82828282827C07090909010010381000FE001038107D
:204000000709090901FF027C8A8A92A2A27C80070B0B090100402010008282828282867AF9
:20402000070B0B090100081020008282828282867A070B0B0901001028440082828282826A
:20404000867A070A0A0901002828008282828282867A070E0E0901FD04081000424224244F
:20406000241818109060070B0B0901FE8080B8C4828282C4B88080070D0D0901FD242400D9
:204080004242242424181810906001050800FF060121023520FFFF07FF06FF0900502216DA
:2040A00056808080800080153353A0A0A00257575050F850F850500257572070A070287097
:2040C0002013355580A040A02002475740A0A040A0A05025135380808012265640808080BA
:2040E00080401226568040404040800245559060F060900255552020F820201133536040AB
:2041000080044151F011335340E04002465610102040808012365640A0A0A0A04012365648
:2041200040C0404040E00246566090106080F0024656F020601090600246562060A0F02095
:2041400020024656F080E01090600246566080E0909060024656F010202040400246566017
:204160009060909060024656609090701060122555C0C000C0C011365660600060408012B6
:204180003656204080804020034353F000F012365680402020408012365640A020400040DE
:2041A000015858304898A8A8904030024656609090F09090024656E090E09090E002465634
:2041C000609080809060024656E090909090E0024656F080E08080F0024656F080E0808095
:2041E00080024656609080B090600246569090F0909090123656E040404040E002465670C7
:20420000202020A04002465690A0C0A0A0900246568080808080F002465690F0F090909034
:2042200002465690D0F0B0B090024656609090909060024656E09090E080800147576090F5
:2042400090D0B06010024656E09090E09090024656609040209060123656E04040404040A4
:20426000024656909090909060024656909090906060024656909090F0F090024656909056
:2042800060609090025656888850202020024656F010204080F0123656E080808080E00202
:2042A0004656808040201010123656E020202020E016325240A0014151F0162252804002BB
:2042C0004454709090700246568080E09090E01234546080806002465610107090907002AE
:2042E000445460B0C060024656205040E0404001455560907010600246568080E0909090AF
:204300001236564000C04040E01137572000202020A040024656808090E09090123656C014
:2043200040404040E0025454D0A8A8A8024454E090909002445460909060014555E090E09C
:2043400080800145557090701010024454A0D0808012345460C020C00246564040E0405000
:204360002002445490909070123454A0A0A04002545488A8A85002445490606090014555C2
:204380009090709060024454F02040F0024757304020C020403022165680808080808002B3
:2043A0004757C02040304020C006425250A0FFFFFFFFFFFFFFFFFFFFFFFFFFFFFFFFFFFF77
:2043C000FFFFFFFFFFFFFFFFFFFFFFFFFFFFFF090050221656800080808080014656207058
:2043E000A0A070200246562050E04050A002555588705070880256568850F820F8202217F4
:2044000057808080008080800247577080E0907010E0173151A002565670A8C8C8A870142A
:20442000355560A06000E003435350A050123353E02020143151E002565670E8D8E8D8709D
:20444000173151E015335340A04012355540E04000E014355540A02040E0143555C020C050
:2044600020C01622524080014555909090E08002565678E8E86828282411518011225240EE
:204480008014355540C04040E014355540A04000E0034353A050A0024757808080A060F0C7
:2044A000200247578080A0D010207002475780408060A0F02012365640004080A040024775
:2044C0005740206090F0909002475720406090F0909002475760906090F0909002475750A5
:2044E000A06090F0909002475790006090F0909002475760906090F0909002465670A0A00E
:20450000F0A0B0014757609080809060400247574020F080E080F00247572040F080E0800C
:20452000F00247576090F080E080F00247579000F080E080F01237578040E0404040E01259
:2045400037572040E0404040E012375740A0E0404040E0123757A000E0404040E00256567F
:204560007048E848487002475750A090D0B09090024757402060909090600247572040600B
:20458000909090600247576090609090906002475750A0609090906002475790006090905B
:2045A0009060123353A040A002465670B0B0D0D0E002475740209090909060024757204065
:2045C000909090906002475760909090909060024757900090909090600257571020885083
:2045E00020202002465680E09090E0800246566090A0A090A00247574020007090907002DD
:204600004757204000709090700247572050007090907002475750A000709090700246565E
:2046200050007090907002475760906070909070025454F068B07811355560808060400273
:20464000475740200060B0C06002475720400060B0C06002475760900060B0C0600246569E
:20466000500060B0C060123757804000C04040E0123757204000C04040E012375740A0009A
:20468000C04040E0123656A000C04040E0024757A040A01070906002475750A000E090907C
:2046A000900247574020006090906002475720400060909060024757609000609090600238
:2046C000475750A000609090600246569000609090601235554000E0004002445470B0D0D8
:2046E000E002475740200090909070024757204000909090700247576090009090907002E8
:20470000465690009090907001485820400090907090600147578080E090E080800147573E
:204720009000909070906000000A0B02090C0D0E080703040100000000000000000000000B
:20474000000000000000000000000000000000000000001211100000000000000000000026
:20476000000000000000000000000000000102102020080810204010204080020102010868
:20478000040201010204081020408080402010080402018004020180402010080402010886
:2047A0000402010102040810204080010204081020408005050505070508080808020202AE
:2047C000020A0A08080404040401010101010101010303030303030303040707070C0C0C46
:2047E0000C0C0C0C0C0202020206060606060606060B0B0B0B0B0B0B0B0000200023002684
:204800000029002C002F0032000001000003010601090100002200250028002B002E0031D3
:2048200000340002010000050108010B0100002100240027002A002D0030003300010100FE
:2048400000040107010A01024E414E494E495459494E46CDCCCC3D0AD7233C17B7D13877C7
:20486000CC2B329595E6241FB14F0A000020410000C84200401C4620BCBE4CCA1B0E5AAEC4
:20488000C59D7400C650F6E0CA5011241FBECFEFD1E2DEBFCDBF00E00CBF14E0A0E0B2E0DF
:2048A000E8EEF2EF01E00BBF02C007900D92A83DB107D9F724E1A8EDB4E001C01D92AF3FA5
:2048C000B207E1F718E4C8E8D8E400E006C022970109FE010BBF0E9431F3C438D10780E0B3
:2048E0000807A9F70E9415EE0C9463F90C940000EF92FF920F931F93CF93DF931F92CDB759
:20490000DEB78C017B01460FF70161917F01F8018081918149830E94ACF8F8018081918110
:2049200001969183808349814E11EECF0F90DF91CF911F910F91FF90EF900895EF92FF9267
:204940000F931F93CF93DF931F92CDB7DEB78C017B01460FF8018081918149830E94A4F8F1
:20496000F70181937F01F8018081918101969183808349814E11EECF0F90DF91CF911F91EC
:204980000F91FF90EF9008950F931F93CF93DF93CDB7DEB72A970FB6F894DEBF0FBECDBF83
:2049A00080E390E3A0E3B0E08D839E83AF83B88704E610E01A87098744E0BE016B5F7F4FE6
:2049C000CE01099695DF40E160E571E1CE0109968FDF40E160E671E1CE01099689DF40E1B1
:2049E00060E471E1CE01099683DF44E068E371E1CE0109967DDF44E064E371E1CE0109969B
:204A000077DF44E06CE371E1CE01099671DF44E064E271E1CE0109966BDF44E060E771E18C
:204A2000CE01099665DF44E060E371E1CE0109965FDF44E06CE271E1CE01099659DF44E0D1
:204A400068E271E1CE01099653DF4CE069E577E0CE0109964DDF42E062EC74E1CE0109967C
:204A600047DF42E060EC74E1CE01099641DF42E06EEB74E1CE0109963BDF42E06CEB74E199
:204A8000CE01099635DF42E06AEB74E1CE0109962FDF42E068EB74E1CE01099629DF44E0E8
:204AA00066E477E0CE01099623DF44E068E672E0CE0109961DDF44E064E672E0CE01099689
:204AC00017DF44E060E672E0CE01099611DF42E065EB72E1CE0109960BDF86E591E3A0E347
:204AE000B0E089839A83AB83BC831A87098744E0BE016F5F7F4FCE010996FADEE2EAF3E0FB
:204B00008491882341F09091C00095FFFCCF8093C6003196F5CFE2E9F3E08491882341F071
:204B20009091C00095FFFCCF8093C6003196F5CF8091C00085FFFCCF8AE08093C6002A96AE
:204B40000FB6F894DEBF0FBECDBFDF91CF911F910F910895CF93DF93C2EAD3E0FE0184910A
:204B6000882341F09091C00095FFFCCF8093C6003196F5CFE2E8F3E08491882341F0909106
:204B8000C00095FFFCCF8093C6003196F5CF8091C00085FFFCCF8AE08093C600FE0184911B
:204BA000E2EAF3E0882349F09091C00095FFFCCF8093C60031968491F5CF409150115091A6
:204BC000511160915211709153118AE793E00E944D2E4091541150915511609156117091E3
:204BE000571187E793E00E944D2E409158115091591160915A1170915B1184E793E00E9481
:204C00004D2E40915C1150915D1160915E1170915F1181E793E00E944D2E8091C00085FF6E
:204C2000FCCF8AE08093C600FE018491E2EAF3E0882349F09091C00095FFFCCF8093C600B6
:204C400031968491F5CFE7E5F3E08491882341F09091C00095FFFCCF8093C6003196F5CF80
:204C60008091C00085FFFCCF8AE08093C600FE018491E2EAF3E0882349F09091C00095FFC5
:204C8000FCCF8093C60031968491F5CF409160115091611160916211709163118EE493E07D
:204CA000FCD7409164115091651160916611709167118BE493E0F1D7409168115091691154
:204CC00060916A1170916B1188E493E0E6D740916C1150916D1160916E1170916F1185E448
:204CE00093E0DBD78091C00085FFFCCF8AE08093C600FE018491E2EAF3E0882349F0909174
:204D0000C00095FFFCCF8093C60031968491F5CFE7E2F3E08491882341F09091C00095FFF9
:204D2000FCCF8093C6003196F5CF8091C00085FFFCCF8AE08093C600FE018491E2EAF3E02E
:204D4000882349F09091C00095FFFCCF8093C60031968491F5CF4091401150914111609170
:204D60004211709143118EE193E0A8D7409144115091451160914611709147118BE193E04D
:204D80009DD7409148115091491160914A1170914B1188E193E092D740914C1150914D11DF
:204DA00060914E1170914F1185E193E087D78091C00085FFFCCF8AE08093C600FE01849194
:204DC000E2EAF3E0882349F09091C00095FFFCCF8093C60031968491F5CFE0EEF2E08491E2
:204DE000882341F09091C00095FFFCCF8093C6003196F5CF8091C00085FFFCCF8AE0809396
:204E0000C600FE018491E2EAF3E0882349F09091C00095FFFCCF8093C60031968491F5CF7C
:204E2000409138115091391160913A1170913B1187ED92E032D74091341150913511609187
:204E400036117091371184ED92E027D78091C00085FFFCCF8AE08093C600FE018491E2EA9E
:204E6000F3E0882349F09091C00095FFFCCF8093C60031968491F5CFE1E2F2E0849188236D
:204E800041F09091C00095FFFCCF8093C6003196F5CF8091C00085FFFCCF8AE08093C600DA
:204EA000FE018491E2EAF3E0882349F09091C00095FFFCCF8093C60031968491F5CF4091D1
:204EC0003C1150913D1160913E1170913F1188E192E0E3D6409124115091251160912611EC
:204EE0007091271185E192E0D8D64091701150917111609172117091731182E192E0DED6BC
:204F0000409130115091311160913211709133118FE092E0C2D640912C1150912D1160914C
:204F20002E1170912F118CE092E0B7D6409128115091291160912A1170912B1189E092E01D
:204F4000ACD68091C00085FFFCCF8AE08093C600FE018491E2EAF3E0882349F09091C000F4
:204F600095FFFCCF8093C60031968491F5CFE7EFF1E08491882341F09091C00095FFFCCF81
:204F80008093C6003196F5CF8091C00085FFFCCF8AE08093C600FE018491E2EAF3E08823EC
:204FA00049F09091C00095FFFCCF8093C60031968491F5CF4091590750915A0760915B0739
:204FC00070915C078EEE91E068D640915D0750915E0760915F07709160078BEE91E05DD6EB
:204FE0004091610750916207609163077091640788EE91E052D68091C00085FFFCCF8AE0CE
:205000008093C600FE018491E2EAF3E0882349F09091C00095FFFCCF8093C600319684912B
:20502000F5CFEAEDF1E08491882341F09091C00095FFFCCF8093C6003196F5CF8091C0009E
:2050400085FFFCCF8AE08093C600FE01C491E2EAF3E0CC2349F08091C00085FFFCCFC09330
:20506000C6003196C491F5CF409168025091690260916A0270916B0280ED91E00ED6609185
:2050800064027091650280916602909167020E944E94AB01BC018DEC91E0FFD56091600241
:2050A0007091610280916202909163020E945A94AB01BC018AEC91E0F0D58091C00085FF97
:2050C000FCCF8AE08093C600DF91CF910895AF92BF92CF92DF92EF92FF920F931F93CF9329
:2050E000DF93CDB7DEB7E0970FB6F894DEBF0FBECDBF80E1E3E9F2E0DE01919601900D9232
:205100008A95E1F780E1E3EAF2E0DE01519601900D928A95E1F780E1E3EBF2E0DE01119624
:2051200001900D928A95E1F76E0181E2C80ED11C80E5E82E81E1F82E8E010F5E1F4F60E600
:2051400071E1AE014F5F5F4F90E4A92E91E1B92E20E030E0F60181919191A191B1916F012F
:20516000F70181939193A193B1937F01F80181919191A191B1918F01FB0181939193A1936E
:20518000B193BF01FA0181919191A191B191AF01F50181939193A193B1935F012F5F3F4F96
:2051A00024303105B9F60E947F7F80E090E0AAE7B4E48093381190933911A0933A11B09393
:2051C0003B118093341190933511A0933611B093371110923C1110923D1110923E1110924B
:2051E0003F1180E29EE4A0E0B0E08093701190937111A0937211B09373111092241110923C
:205200002511109226111092271180E090E0A0EAB1E48093301190933111A0933211B09344
:2052200033118DEC9CECACECBEE380932C1190932D11A0932E11B0932F1180E090E0A0EAF0
:20524000B0E48093281190932911A0932A11B0932B11109261071092620710926307109261
:20526000640710925D0710925E0710925F07109260071092590710925A0710925B071092FA
:205280005C0784EB90E09093C3148093C21486E490E09093C1148093C0148FEF90E090931F
:2052A000BF148093BE1420EF30E03093BD142093BC1424E630E03093BB142093BA149093B0
:2052C000B9148093B81480E290E09093B6128093B5128AE999E9A1EBB1E4809368029093D5
:2052E0006902A0936A02B0936B0261E77DE38AE89FE30E9448946093640270936502809304
:2053000066029093670260E070E084EE92E40E945494609360027093610280936202909342
:2053200063020E942D8A80E090E0A0E8BFE380935C0290935D02A0935E02B0935F02E2EABF
:20534000F3E08491882341F09091C00095FFFCCF8093C6003196F5CFEEE8F1E0849188237E
:2053600041F09091C00095FFFCCF8093C6003196F5CF8091C00085FFFCCF8AE08093C600F5
:20538000E0960FB6F894DEBF0FBECDBFDF91CF911F910F91FF90EF90DF90CF90BF90AF90C6
:2053A0000895CF93DF93CDB7DEB72A970FB6F894DEBF0FBECDBF84E690E09A87898786E5E5
:2053C00091E3A0E3B0E089839A83AB83BC8344E0BE016B5F7F4FCE010996B0DA43E050E0EA
:2053E000BE016B5F7F4FCE0101960E946BF6892B09F0B0C040E160E571E1CE0109969EDA32
:2054000040E160E671E1CE01099698DA40E160E471E1CE01099692DA0E947F7F44E068E353
:2054200071E1CE0109968ADA44E064E371E1CE01099684DA44E06CE371E1CE0109967EDA34
:2054400044E064E271E1CE01099678DA44E060E771E1CE01099672DA44E060E371E1CE01D1
:2054600009966CDA44E06CE271E1CE01099666DA44E068E271E1CE01099660DA4CE069E5F3
:2054800077E0CE0109965ADA42E062EC74E1CE01099654DA42E060EC74E1CE0109964EDA59
:2054A00042E06EEB74E1CE01099648DA42E06CEB74E1CE01099642DA42E06AEB74E1CE0199
:2054C00009963CDA42E068EB74E1CE01099636DA44E066E477E0CE01099630DA44E068E620
:2054E00072E0CE0109962ADA44E064E672E0CE01099624DA44E060E672E0CE0109961EDA9A
:2055000042E065EB72E1CE01099618DA0E942D8AE2EAF3E08491882341F09091C00095FF08
:20552000FCCF8093C6003196F5CFE0EBF1E08491882341F09091C00095FFFCCF8093C60096
:205540003196F5CF8091C00085FFFCCF8AE08093C60001C0BCDDFEDA2A960FB6F894DEBF7D
:205560000FBECDBFDF91CF9108951F920F920FB60F9211240BB60F922F933F934F935F93AE
:205580006F938F939F93EF93FF936091C6002091590530915A05C90101968F7799274091C3
:2055A0005B0550915C058417950741F0F901E752FB4F608390935A0580935905FF91EF917E
:2055C0009F918F916F915F914F913F912F910F900BBE0F900FBE0F901F9018959A01AB0105
:2055E000211581EE38074105510549F182E08093C00060E079E08DE390E00E94F0F221504E
:20560000310941095109CA01B90122E030E040E050E00E94F0F23093C5002093C400809131
:20562000C10080618093C1008091C10088608093C1008091C10080688093C1000895109299
:20564000C00020E130E0E7CF20915B0530915C058091590590915A058217930771F0F90113
:20566000E752FB4F80812F5F3F4F2F77332730935C0520935B0590E008958FEF9FEF08959D
:2056800080915B0590915C0590935A058093590508954F925F926F927F928F929F92AF9210
:2056A000BF92CF92DF92EF92FF920F931F93CF93DF93CDB7DEB7A0970FB6F894DEBF0FBE82
:2056C000CDBF5C014115510561057105E9F420E030E040E350E060E070E0A0960FB6F89402
:2056E000DEBF0FBECDBFDF91CF911F910F91FF90EF90DF90CF90BF90AF909F908F907F90CD
:205700006F905F904F905BC08E010F5F1F4FC12CD12C76014801422E512C612C712C8FEFF7
:20572000C81AD80AE80AF80ACB01BA01A30192010E94CEF2CA01F80161938F01A901BC01E2
:20574000411551056105710551F7F1E0CF1AD108E108F108F401EC0DFD1D80818A3010F43D
:2057600040E301C047E3480F552747FD5095652F752F20E030E0C50122D081E0C81AD10803
:20578000E108F108EFEFCE16DE06EE06FE0611F7A0960FB6F894DEBF0FBECDBFDF91CF9134
:2057A0001F910F91FF90EF90DF90CF90BF90AF909F908F907F906F905F904F900895211532
:2057C000310539F48091C00085FFFCCF4093C60008952A30310509F41CC05BCFCF93DF93A9
:2057E000EC0120E030E04DE050E060E070E0E7DF20E030E04AE050E060E070E0CE01DF91C0
:20580000CF91DDCF9A01AB01662757FD6095762FD6CFCF92DF92EF92FF92CF93DF93EC0170
:205820006A017B0177FF0FC020E030E04DE250E060E070E0C4DFF094E094D094C094C11C0D
:20584000D11CE11CF11C2AE0B701A601CE01DF91CF91FF90EF90DF90CF901BCF2115310517
:2058600039F48091C00085FFFCCF4093C600089510CF9A01462F50E060E070E0EFCFCF93D6
:20588000DF93EC019A01AB0160E070E0E7DFCE01DF91CF91A3CF8F929F92AF92BF92CF92B6
:2058A000DF92EF92FF921F93CF93DF93EC016A017B01122F20E030E0A901C701B6010E94EF
:2058C000FDEE87FF0CC020E030E04DE250E060E070E0CE0174DFF7FAF094F7F8F094B12CA5
:2058E00060E070E080E09FE3B11641F020E030E040E251E40E9404EFB394F6CF9B01AC01ED
:20590000C701B6010E9424EE6B017C010E9471EF4B015C010E949DEF9B01AC01C701B601CA
:205920000E9423EE6B017C012AE0B501A401CE01B0DE112361F0E6E6F4E08191882339F0FE
:205940009091C00095FFFCCF8093C600F6CF112319F120E030E040E251E4C701B6010E94A3
:20596000D2F16B017C010E946CEF4B01AA2497FCA094BA2CB501A401CE014BDFC501B401E8
:205980000E949FEF9B01AC01C701B6010E9423EE6B017C011150DBCFDF91CF911F91FF9059
:2059A000EF90DF90CF90BF90AF909F908F90089572CFFC01659175918591949108952F924E
:2059C0003F924F925F926F927F928F929F92AF92BF92CF92DF92EF92FF920F931F93CF9394
:2059E000DF9300D000D0CDB7DEB71C01FC01EB5CF64F14919C01220F331F220F331F3E83CD
:205A00002D832B59384F4901F901108211821282138221E737E04DE657E069E677E085E69F
:205A200097E00E94AD7E8D819E818C5B964FC1DF6B017C01612F772767FD7095872F972F8D
:205A40000E949FEF2B013C012D813E812E5D384F590120E030E040EC5FE3C701B6010E9435
:205A6000D2F1A30192010E94D2F1F50160837183828393832D813E81235D3D4F3C832B83F9
:205A8000F901608171818281938160930B0270930C0280930D0290930E0220E030E040E785
:205AA00052E40E9404EF25E3C22E27E0D22E7B018C012EE237E04AE257E066E277E082E286
:205AC00097E00E94B6740E949687F401108211821282138221E737E04DE657E069E677E052
:205AE00085E697E00E94AD7E2D813E81285C364F3A832983C9015DDF9058A30192010E9451
:205B0000D2F1F501608371838283938320E030E040E752E460910B0270910C0280910D0240
:205B200090910E020E9404EF7B018C012EE237E04AE257E066E277E082E297E00E94B674C6
:205B40000E94968789819A8134DF9B01AC010E9424EEA30192010E94D2F1F50160837183E8
:205B60008283938320E030E040E05FE3EB81FC8160817181828193810E94D2F160930B0260
:205B800070930C0280930D0290930E0220E030E040E752E40E9404EF7B018C012EE237E06D
:205BA0004AE257E066E277E082E297E00E94B6740E9496878D819E81805B964FFADE0D812A
:205BC0001E81075A184FF80120813181428153810E9424EEF40160837183828393838D81D2
:205BE0009E818859964FE5DE2D813E81235B384F7901F80120813181428153810E9424EE7A
:205C0000F70160837183828393838D819E81845A964FCFDE2D813E812F5E3D4F7901F80104
:205C200020813181428153810E9424EEF7016083718382839383F40180819181A281B3817D
:205C4000F50180839183A283B38310920B0210920C0210920D0210920E020E946280F101A4
:205C6000E65BF84F81E0808326960FB6F894DEBF0FBECDBFDF91CF911F910F91FF90EF9007
:205C8000DF90CF90BF90AF909F908F907F906F905F904F903F902F900895FC01249122235C
:205CA00041F03091C00035FFFCCF2093C6000196F4CF22E030E088ED94E07ACEFC0124916B
:205CC000222341F03091C00035FFFCCF2093C6000196F4CF2AE030E088ED94E0BFCDCF930A
:205CE000DF931F921F92CDB7DEB78091F9149091FA149E012F5F3F4F009719F42F5F344108
:205D000002C0281B390B3A83298389819A810F900F90DF91CF910895209177053091780596
:205D2000243031050CF06AC04091790550917A0560E6649F9001659F300D1124BC01C9012D
:205D40008F579A4F0E9464F6E4E7F9E08491882341F09091C00095FFFCCF8093C600319603
:205D6000F5CFEAE2F9E08491882341F09091C00095FFFCCF8093C6003196F5CF8091790596
:205D800090917A0520E6289FF001299FF00D1124EF57FA4F8191882339F09091C00095FFC1
:205DA000FCCF8093C600F6CFE8E2F9E08491882341F09091C00095FFFCCF8093C600319606
:205DC000F5CF8091C00085FFFCCF8AE08093C6008091790590917A05019664E070E00E94A0
:205DE000BBF290937A05809379058091770590917805019690937805809377050895209184
:205E0000770530917805243031050CF06AC04091790550917A0560E6649F9001659F300D4E
:205E20001124BC01C9018F579A4F0E94DEF5E4E7F9E08491882341F09091C00095FFFCCF8D
:205E40008093C6003196F5CFEDE1F9E08491882341F09091C00095FFFCCF8093C600319666
:205E6000F5CF8091790590917A0520E6289FF001299FF00D1124EF57FA4F8191882339F002
:205E80009091C00095FFFCCF8093C600F6CFEBE1F9E08491882341F09091C00095FFFCCF4E
:205EA0008093C6003196F5CF8091C00085FFFCCF8AE08093C6008091790590917A05019655
:205EC00064E070E00E94BBF290937A05809379058091770590917805019690937805809337
:205EE0007705089560E089E20E94A5E9A09A0895269A2E980895F6DFFBDF40E950ED63E05C
:205F000070E088ED94E06ADBE5E1F9E08491882341F09091C00095FFFCCF8093C600319693
:205F2000F5CF8091C00085FFFCCF8AE08093C60084E799E0FC012491222341F03091C000AD
:205F400035FFFCCF2093C6003196F5CF24B720FF14C0EDE0F9E03491332341F04091C000ED
:205F600045FFFCCF3093C6003196F5CF3091C00035FFFCCF3AE03093C60021FF14C0EDEF0B
:205F8000F8E03491332341F04091C00045FFFCCF3093C6003196F5CF3091C00035FFFCCFA9
:205FA0003AE03093C60022FF14C0ECEEF8E03491332341F04091C00045FFFCCF3093C60022
:205FC0003196F5CF3091C00035FFFCCF3AE03093C60023FF14C0ECEDF8E03491332341F020
:205FE0004091C00045FFFCCF3093C6003196F5CF3091C00035FFFCCF3AE03093C60025FFA6
:2060000014C0ECECF8E02491222341F03091C00035FFFCCF2093C6003196F5CF2091C000DC
:2060200025FFFCCF2AE02093C60014BEE5ECF8E02491222341F03091C00035FFFCCF209315
:20604000C6003196F5CFEFEBF8E02491222341F03091C00035FFFCCF2093C6003196F5CF8E
:206060002091C00025FFFCCF2AE02093C600FC012491E4E7F9E0222349F03091C00035FFB4
:20608000FCCF2093C60031962491F5CFEFEAF8E02491222341F03091C00035FFFCCF20936D
:2060A000C6003196F5CFEAE9F8E02491222341F03091C00035FFFCCF2093C6003196F5CF35
:2060C000EEE8F8E02491222341F03091C00035FFFCCF2093C6003196F5CFE7E7F8E0249108
:2060E000222341F03091C00035FFFCCF2093C6003196F5CF2091C00025FFFCCF2AE0209389
:20610000C600ECE6F8E02491222341F03091C00035FFFCCF2093C6003196F5CFE0E6F8E0C2
:206120002491222341F03091C00035FFFCCF2093C6003196F5CF2091C00025FFFCCF2AE046
:206140002093C600FC018491E4E7F9E0882349F09091C00095FFFCCF8093C6003196849137
:20616000F5CFE1E5F8E08491882341F09091C00095FFFCCF8093C6003196F5CFB0DD4AE071
:2061800050E0BC0188ED94E03DDBEAE3F8E08491882341F09091C00095FFFCCF8093C60062
:2061A0003196F5CF4AE050E060ED74E088ED94E029DB8091C00085FFFCCF8AE08093C60009
:2061C00010927D0510927E0510927F0510928005E8D80E94A18C0E9450730E9412870E9458
:2061E00007B2FFEF23ED80E3F15020408040E1F700C000000895809171059091720560E090
:2062000070E001960C9435F380917105909172054AE050E060E070E001960C949DF4682F67
:20622000772767FD709520917B0530917C0540E6429FC001439F900D11248F579A4F0E94F7
:2062400050F6909372058093710521E0892B09F420E0822F08950E94C5E760936D0570931F
:206260006E0580936F059093700508950E94C5E760936D0570936E0580936F0590937005A7
:20628000E0917B05F0917C05E358FA4F8081811114C0E0E5F4E08491882341F09091C000B5
:2062A00095FFFCCF8093C6003196F5CF8091C00085FFFCCF8AE08093C600089588ED94E032
:2062C000DFD9E3E5F4E08491882341F09091C00095FFFCCF8093C6003196F5CF40910607F7
:2062E0005091070760910807709109074F5F5F4F6F4F7F4F2AE030E088ED94E060DA809168
:20630000C00085FFFCCF8AE08093C600AFCF8F929F92AF92BF92CF92DF92EF92FF920F9343
:206320001F93CF93DF9336EFE32E33E0F32E05E617E0C2E2D7E047E7C42E47E0D42EF701EF
:2063400081917F016CDF882311F155DF4B015C01F6018081811103C06091010701C061E08E
:2063600070E080E090E00E949FEFF80120813181428153810E94D2F19B01AC01C501B401C1
:206380000E9424EE688379838A839B8309C0F80180819181A281B38188839983AA83BB8379
:2063A0000C5F1F4F2496FFEFCF1ADF0A8AEFE81683E0F80621F686E432DF8823D1F01BDFBA
:2063C0006B017C016093120770931307809314079093150720E030E0A9010E9400F11816C3
:2063E00044F4C0920B02D0920C02E0920D02F0920E02DF91CF911F910F91FF90EF90DF90E6
:20640000CF90BF90AF909F908F90089580DF89E406DF882351F0EFDE609316077093170709
:20642000809318079093190708C0109216071092170710921807109219078AE4F0DE882336
:2064400051F0D9DE60931A0770931B0780931C0790931D07089510921A0710921B071092C8
:206460001C0710921D070895CF92DF92EF92FF92CF93DF93EC01C0904D07D0904E07E09028
:206480004F07F0905007A7019601688179818A819B810E94FDEE87FF04C0C882D982EA829E
:2064A000FB82C0905107D0905207E0905307F0905407A70196016C817D818E819F810E945E
:2064C000FDEE87FF04C0CC82DD82EE82FF82C0905507D0905607E0905707F0905807A7012B
:2064E0009601688579858A859B850E94FDEE87FF04C0C886D986EA86FB86C0901102D090B3
:206500001202E0901302F0901402A7019601688179818A819B810E9400F1181624F4C882E0
:20652000D982EA82FB82C0901502D0901602E0901702F0901802A70196016C817D818E81DC
:206540009F810E9400F1181624F4CC82DD82EE82FF82C0901902D0901A02E0901B02F090B0
:206560001C02A7019601688579858A859B850E9400F1181624F4C886D986EA86FB86DF91BD
:20658000CF91FF90EF90DF90CF900895CF92DF92EF92FF920F931F9382E297E065DF0E9429
:2065A000C5E760936D0570936E0580936F0590937005209122073091230740912407509193
:2065C0002507609165077091660780916707909168070E94FDEE811179C0209126073091BE
:2065E000270740912807509129076091690770916A0780916B0790916C070E94FDEE811153
:2066000065C020E030E040E752E460910B0270910C0280910D0290910E020E9404EF55E3BD
:20662000C52E57E0D52E7B018C012EE237E04AE257E066E277E082E297E00E94B674809143
:20664000220790912307A0912407B09125078093650790936607A0936707B093680780918A
:20666000260790912707A0912807B09129078093690790936A07A0936B07B0936C0780914A
:206680002A0790912B07A0912C07B0912D0780936D0790936E07A0936F07B093700780910A
:2066A0002E0790912F07A0913007B09131078093710790937207A0937307B09374071F912B
:2066C0000F91FF90EF90DF90CF90089560912B0270912C02882777FD8095982F0E949FEF25
:2066E00020910B0230910C0240910D0250910E020E94D2F120E030E040E752E40E9404EFD5
:2067000020E030E048EC52E488CFAF92BF92CF92DF92EF92FF920F931F93CF93DF93D82F03
:2067200020911A0730911B0740911C0750911D07609116077091170780911807909119070D
:206740000E940DF1C62F172F082FF92E60912B0270912C02882777FD8095982F0E949FEF84
:2067600020910B0230910C0240910D0250910E020E94D2F120E030E040E752E40E9404EF54
:2067800020E030E048EC52E40E9404EF209135072F93DF93FF920F931F93CF935B016C01B9
:2067A00062E0E62E01E020E046E157E062E277E085E697E00E94286C80912207909123070C
:2067C000A0912407B09125078093650790936607A0936707B0936807809126079091270701
:2067E000A0912807B09129078093690790936A07A0936B07B0936C0780912A0790912B07C1
:20680000A0912C07B0912D0780936D0790936E07A0936F07B093700780912E0790912F0780
:20682000A0913007B09131078093710790937207A0937307B09374070E94C5E760936D0532
:2068400070936E0580936F05909370050F900F900F900F900F900F90DF91CF911F910F91C9
:20686000FF90EF90DF90CF90BF90AF900895F8940E949C8D5F9A10924A078A9A10924B07B6
:206880009FB7F894809108018160809308019FBF10924C07129A479A60E08CE00E94A5E943
:2068A000EAE7F9E08491882341F09091C00095FFFCCF8093C6003196F5CFE1E3F4E08491EC
:2068C000882341F09091C00095FFFCCF8093C6003196F5CF8091C00085FFFCCF8AE080939B
:2068E000C60088E294E00E9480B1FFCF2F923F924F925F926F927F928F929F92AF92BF92F9
:20690000CF92DF92EF92FF920F931F93CF93DF93CDB7DEB76E970FB6F894DEBF0FBECDBF06
:20692000A0E69A2E04E010E0BDEFEB2EB6E0FB2E8AE0882E93E7C92E97E0D92E7724739400
