:100000000C9427140C9458140C9458140C945814F1
:100010000C9458140C9458140C9458140C945814B0
:100020000C9458140C9458140C9458140C945814A0
:100030000C9458140C9458140C9458140C94581490
:100040000C9458140C9461270C9458140C94581464
:100050000C9458140C9458140C9496260C94029FEB
:100060000C9458140C945A900C9450900C9458146E
:100070000C9458140C9458140C9458140C94581450
:100080000C9458140C9458140C9458140C94581440
:100090000C9458140C9458140C9458140C94581430
:1000A0000C9458140C9458140C9458140C94581420
:1000B0000C9458140C9458140C9458140C94581410
:1000C0000C9458140C9458140C9458140C94581400
:1000D0000C9458140C9458140C9458140C945814F0
:1000E0000C945814084AD73B3BCE016E84BCBFFD2C
:1000F000C12F3D6C74319ABD56833DDA3D00C77FF8
:1001000011BED9E4BB4C3E916BAAAABE0000008090
:100110003F05A84CCDB2D44EB93836A9020C50B91F
:10012000918688083CA6AAAA2ABE000000803F004B
:100130004E414E494E495459494E46CDCCCC3D0ACC
:10014000D7233C17B7D13877CC2B329595E6241FAF
:10015000B14F0A000020410000C84200401C462068
:10016000BCBE4CCA1B0E5AAEC59D7400407A10F33B
:100170005A00A0724E18090010A5D4E80000E876D5
:1001800048170000E40B54020000CA9A3B0000002C
:10019000E1F505000080969800000040420F000045
:1001A00000A08601000000102700000000E8030006
:1001B0000000006400000000000A000000000001D0
:1001C00000000000002C76D888DC674F0823DFC1D0
:1001D000DFAE59E1B1B796E5E3E453C63AE651998B
:1001E0007696E8E6C28426EB898C9B62ED407C6FB4
:1001F000FCEFBC9C9F40F2BAA56FA5F490055A2A6B
:10020000F75C936B6CF9676DC11BFCE0E40D47FE76
:10021000F520E6B500D0ED902E030094357705006B
:1002200080841E080000204E0A000000C80C3333F2
:1002300033330F986E12831141EF8D2114893BE601
:100240005516CFFEE6DB18D1844B381BF77C1D908A
:100250001DA4BBE424203284725E228100C9F124F3
:10026000ECA1E53D271FE020102310249010A011E1
:10027000202210241037B00840048003001FE02023
:1002800010211023101520112021102110313008C9
:1002900040048003001FE03FF03CF03B701F601EF5
:1002A000E03DF03BF038700FC0078003001FE03FD7
:1002B000F03EF03CF01AE01EE03EF03EF03EF00F63
:1002C000C00780030041425300504C4100506C6510
:1002D000617365205265736574005052494E5445F0
:1002E000522048414C5445440025533A20255300A0
:1002F0004B494C4C45442E20005072696E74657217
:100300002068616C7465642E206B696C6C282920F0
:1003100063616C6C6564210A006563686F3A00452F
:1003200072726F723A0020496E76616C6964206562
:100330007874727564657220004361703A002057CA
:100340003A00436F6F6C696E672E2E2E0048656110
:1003500074696E672E2E2E004525632025530020DC
:10036000573A0042656420436F6F6C696E672E2EAA
:100370002E004265642048656174696E672E2E2EDA
:10038000004572723A207574663820666F6E74206C
:100390006E6F7420696E697469616C697A65642E28
:1003A000004572723A207574663820666F6E74204C
:1003B0006E6F7420696E697469616C697A65642E08
:1003C000004572723A207574663820666F6E74202C
:1003D0006E6F7420696E697469616C697A65642EE8
:1003E0000042656400456E636C6F73757265002032
:1003F0002020202020200020202020007D026502D7
:10040000AD0295023FFFF038007030FC3020FC1048
:100410002078102030102C00D02E31D02F7BD02F00
:100420007BD02E31D02C00D020301020781020FC32
:100430001030FC303800703FFFF03FFFF0380070A4
:100440003186302387102787902F87D02F03D02025
:1004500030102078102078102030102F03D02F87F4
:10046000D02787902387103186303800703FFFF007
:100470001FFFF81FFFF804104002082002082004A4
:100480001040082080104100104100082080041016
:10049000400000001FFFF81FFFF8454550524F4D28
:1004A0002056657273696F6E204572726F720045D7
:1004B0004550524F4D20496E646578204572726FE9
:1004C0007200454550524F4D2043524320457272B1
:1004D0006F72003F0049676E6F7265005265736509
:1004E0007400496E697469616C697A65204545508C
:1004F000524F4D0046696C2E204469612E202A001F
:1005000046696C2E204469612E004520696E206D7D
:100510006D5E330020082046616374002008204D82
:100520006178002008204D696E004F6666004F6EAE
:10053000004175746F74656D700056547261762059
:100540004D696E00566D696E00566D6178204500EC
:10055000566D6178205A00566D6178205900566DAD
:100560006178205800416D6178204500416D6178C7
:10057000205A00416D6178205900416D6178205802
:1005800000412D54726176656C00412D5265747284
:1005900061637400416363656C004520737465702A
:1005A000732F6D6D005A2053746570732F6D6D003D
:1005B000592053746570732F6D6D00582053746506
:1005C00070732F6D6D00416476616E6365642053B6
:1005D000657474696E6773003F0043616E63656C98
:1005E00000496E6974004D34323800496E6974698F
:1005F000616C697A6520454550524F4D0046696CE3
:10060000616D656E740054656D70657261747572AC
:10061000650053746570732F6D6D004A756E637459
:10062000696F6E2044657600416363656C65726135
:1006300074696F6E0056656C6F63697479005365F9
:100640007420486F6D65204F666673657473004350
:100650006F6E66696775726174696F6E005A2052B9
:100660006169736500326E64204E6F7A7A6C652022
:100670005A00326E64204E6F7A7A6C6520590032CF
:100680006E64204E6F7A7A6C652058004265640073
:100690004E6F7A7A6C650046616E205370656564B2
:1006A00000436F6E66696775726174696F6E004CA6
:1006B0006F61642053657474696E6773005265736B
:1006C000746F72652044656661756C747300537451
:1006D0006F72652053657474696E6773005072653C
:1006E00068656174202420436F6E6600546F6F6CE0
:1006F000204368616E676500546F6F6C204F6666BB
:100700007365747300416476616E6365642053653C
:100710007474696E6773004D61696E00436F6E6635
:10072000696775726174696F6E0054656D7065728A
:100730006174757265004D6F74696F6E0054756EEB
:100740006500496E666F2053637265656E00210017
:10075000486F74656E6420746F6F20636F6C640003
:100760004261636B0050726F636565640045787425
:100770007275646572202A004D6F74696F6E004453
:10078000697361626C652053746570706572730083
:100790004D3834004175746F20486F6D65004732E5
:1007A00038004D61696E005072656865617420247F
:1007B00020416C6C0050726568656174202420458E
:1007C0006E64207E0050726568656174202420424A
:1007D000656400507265686561742024207E005451
:1007E000656D706572617475726500C902C50243FA
:1007F0006F6F6C646F776E0050726568656174200E
:10080000240046616E205370656564004265640093
:100810004E6F7A7A6C65207E004D61696E00466C81
:100820006F77207E00466C6F770046616E205370B4
:1008300065656400426564004E6F7A7A6C65207E5F
:10084000005370656564004D61696E006F70656E80
:1008500000545249474745524544003A20007A5FC8
:100860006D696E00795F6D696E00785F6D696E000D
:100870005265706F7274696E6720656E6473746F11
:1008800070207374617475730A0000009643000051
:100890007F4300008C4300000000000000000000C7
:1008A00000005761726E696E673A20486F6D696E1D
:1008B000672042756D702044697669736F72203CC1
:1008C00020310A000202040000964300007F43002A
:1008D000008C430000A0400000A04000000040DB6E
:1008E0000FC93F45BCDA3F8FB30240FCF0274056AA
:1008F000946140FE4B9B4084A5D840E023184134CE
:100900006A5641E859974164DBD5416E271742B4D6
:10091000B75542CE1A9742C8AED542B5885A43D48D
:100920000684BFA65FA7BF7443E0BF10B11AC01C06
:100930002C58C0E8F697C0B849D6C04E4E17C1240F
:10094000D355C1802497C1A0B5D5C1121A17C2448E
:10095000AE55C2781797C26CACD5C267885AC3200F
:10096000746F6F206C6F6E67206578747275736931
:100970006F6E2070726576656E7465640A00206320
:100980006F6C6420657874727573696F6E20707215
:100990006576656E7465640A0053657474696E6784
:1009A000732053746F72656400290A0020627974A1
:1009B00065733B20637263200053657474696E67CE
:1009C000732053746F7265642028004861726463F9
:1009D0006F6465642044656661756C74205365744A
:1009E00074696E6773204C6F616465640A003B2014
:1009F00000546F6F6C2D6368616E67696E673A00B3
:100A000020440020490020204D3330312050005038
:100A100049442073657474696E67733A0020460018
:100A200020420020480020204D3134352053004D15
:100A30006174657269616C2068656174757020709D
:100A40006172616D65746572733A0020204D3231B8
:100A500038205400486F74656E64206F6666736555
:100A600074733A0020204D323036205800486F6DA4
:100A700065206F66667365743A00204A0020530053
:100A800020204D323035204200416476616E63652E
:100A9000643A20423C6D696E5F7365676D656E7484
:100AA0005F74696D655F75733E20533C6D696E5F61
:100AB00066656564726174653E20543C6D696E5F65
:100AC00074726176656C5F66656564726174653EBB
:100AD000204A3C6A756E635F6465763E0020520072
:100AE00020204D323034205000416363656C6572C4
:100AF0006174696F6E2028756E6974732F73322963
:100B00003A20503C7072696E745F616363656C3E3D
:100B100020523C726574726163745F616363656CDB
:100B20003E20543C74726176656C5F616363656CF2
:100B30003E0020204D3230312058004D6178696DE3
:100B4000756D20416363656C65726174696F6E20B9
:100B500028756E6974732F7332293A0020204D3244
:100B600030332058004D6178696D756D206665657C
:100B70006472617465732028756E6974732F7329AC
:100B80003A0053746570732070657220756E6974D5
:100B90003A0020204D3230302053002044002020E5
:100BA0004D3230302054002044697361626C6564BA
:100BB0000A0046696C616D656E74207365747469B2
:100BC0006E67733A0020204D3134392043203B209A
:100BD000556E69747320696E2043656C7369757313
:100BE0000A0020286D6D2900202047323120202066
:100BF000203B20556E69747320696E206D6D004531
:100C00004550524F4D206461746173697A65206567
:100C100072726F722E0A00290A002062797465735D
:100C20003B2063726320002073746F7265642073CD
:100C3000657474696E677320726574726965766530
:100C400064202800202863616C63756C617465649E
:100C500029210A0020213D2000454550524F4D20BA
:100C6000435243206D69736D61746368202D2028A1
:100C700073746F7265642920002053697A653A2085
:100C800000496E6465783A2000000048430000483F
:100C9000430000004000008C420000A0420000A081
:100CA000420080B4450000C242E8030000E80300AF
:100CB0000064000000E8030000204D61726C696E62
:100CC0003D563834290A00454550524F4D2076652F
:100CD0007273696F6E206D69736D6174636820282B
:100CE000454550524F4D3D0024F4D43050C38E2022
:100CF000C2A24017828B7011127A910D816CD90AB1
:100D0000A861E108C7586607615143061E4B5D059F
:100D1000C145A7041A411104093D980371393103F3
:100D20004036DB0265339102D4305402802E1D021E
:100D3000632CEE01752AC501B028A001102781019E
:100D40008F2564012B244B01E0223401AC211F01CB
:100D50008D200D01801FFC00841EED00971DDF001B
:100D6000B81CD200E61BC600201BBC00641AB200EF
:100D7000B219A8000A19A0006A189900D1179100A9
:100D800040178B00B516840031167E00B31579002C
:100D90003A157300C7146F0058146A00EE1366000A
:100DA0008813630025135E00C7125B006C125700A6
:100DB00015125400C111510070114F0021114B0048
:100DC000D61049008D104700461044000210420022
:100DD000C00F4000800F3E00420F3C00060F3B005A
:100DE000CB0E3800930E37005C0E3500270E340012
:100DF000F30D3200C10D3100900D3000600D2E005A
:100E0000320D2D00050D2C00D90C2B00AE0C290045
:100E1000850C29005C0C2700350C27000E0C2600E1
:100E2000E80B2400C40B2400A00B23007D0B23003F
:100E30005A0B2100390B2100180B2000F80A1F0063
:100E4000D90A1E00BB0A1E009D0A1D00800A1D0053
:100E5000630A1C00470A1B002C0A1B00110A1A0017
:100E6000F7091A00DD091900C4091900AB091900B6
:100E7000920917007B091800630917004C09160036
:100E800036091600200916000A091500F508150094
:100E9000E0081400CC081400B8081400A4081400DA
:100EA000900813007D0812006B0813005808120008
:100EB000460812003408110023081100120811001E
:100EC00001081100F0071000E0071000D007100023
:100ED000C0071000B0070F00A107100091070E0017
:100EE00083070F0074070F0065070E0057070E00F9
:100EF00049070E003B070D002E070E0020070D00CE
:100F000013070D0006070D00F9060C00ED060D0095
:100F1000E0060C00D4060C00C8060C00BC060C0051
:100F2000B0060C00A4060B0099060C008D060B0001
:100F300082060B0077060B006C060B0061060A00A8
:100F400057060B004C060A0042060A0038060A0043
:100F50002E060A0024060A001A060A0010060900D6
:100F600007060A00FD050900F4050900EB05090064
:100F7000E2050900D9050900D0050900C7050900E7
:100F8000BE050900B5050800AD050800A505090066
:100F90009C050800940508008C05080084050800DD
:100FA0007C050800740508006C050700650508004D
:100FB0005D050700560508004E05070047050700B8
:100FC0004005080038050700310507002A0507001D
:100FD000230507001C050600160507000F0507007E
:100FE0000805060002050700FB040600F5040700DB
:100FF000EE040600E8040600E2040700DB04060035
:10100000D5040600CF040600C9040600C304060088
:10101000BD040600B7040600B1040500AC040600D8
:10102000A6040600A00405009B0406009504050024
:10103000900406008A04050085040500800406006B
:101040007A04050075040500700405006B040500B2
:1010500066040500610405005C04050057040500F2
:10106000520405004D040500480405004304050032
:101070003E0404003A040500350405003004040071
:101080002C04050027040400230405001E040400AA
:101090001A04040016040500110404000D040400E1
:1010A000090405000404040000040400FC03040017
:1010B000F8030400F4030400F0030400EC0304004C
:1010C000E8030400E4030400E0030400DC0304007C
:1010D000D8030400D4030400D0030400CC030400AC
:1010E000C8030300C503030024F404D9201BC40C67
:1010F0005C0E9804C4095F0265077101F405F900EC
:10110000FB04B30048048700C1036900580355007D
:1011100003034500BE023A008402310053022A0054
:101120002902250004022000E4011C00C801190066
:10113000AF01170098011400840113007101100021
:101140006101100051010E0043010D0036010B003A
:101150002B010B0020010B00150109000C010900F7
:1011600003010800FB000800F3000800EB00070083
:10117000E4000600DE000600D8000600D2000600EB
:10118000CC000500C7000500C2000500BD0004003A
:10119000B9000400B5000400B1000400AD00040073
:1011A000A9000400A5000300A20003009F000400A2
:1011B0009B000300980003009500020093000300C9
:1011C000900003008D0002008B00030088000200E5
:1011D0008600020084000300810002007F000200FC
:1011E0007D0002007B000200790002007700010010
:1011F000760002007400020072000100710002001B
:101200006F0002006D0001006C0002006A00010026
:10121000690002006700010066000100650001002E
:101220006400020062000100610001006000010032
:101230005F0002005D0001005C0001005B00010036
:101240005A00010059000100580001005700010038
:101250005600010055000100540001005300000039
:101260005300010052000100510001005000010034
:101270004F0001004E0000004E0001004D00010033
:101280004C0001004B0000004B0001004A0001002F
:10129000490001004800000048000100470001002B
:1012A0004600000046000100450000004500010026
:1012B0004400010043000000430001004200000020
:1012C0004200010041000000410001004000010017
:1012D0003F0000003F0001003E0000003E00010012
:1012E0003D0000003D0001003C0000003C0000000B
:1012F0003C0001003B0000003B0001003A00000000
:101300003A000100390000003900010038000000F7
:1013100038000000380001003700000037000100ED
:1013200036000000360000003600010035000000E5
:1013300035000000350001003400000034000000DA
:1013400034000100330000003300000033000100CE
:1013500032000000320000003200010031000000C5
:1013600031000000310001003000000030000000BA
:10137000300001002F0000002F0000002F000000AF
:101380002F0001002E0000002E0000002E000100A2
:101390002D0000002D0000002D0000002D00010098
:1013A0002C0000002C0000002C0000002C0001008C
:1013B0002B0000002B0000002B0000002B00010080
:1013C0002A0000002A0000002A0000002A00010074
:1013D0002900000029000000290000002900000069
:1013E000290001002800000028000000280000005B
:1013F000280000002800010027000000270000004E
:101400002700000027000000270001002600000040
:101410002600000026000000260000002600010033
:101420002500000025000000250000002500000028
:101430002500000025000100240000002400000019
:10144000240000002400000024000100230000000C
:101450002300000023000000230000002300000000
:1014600023000000230001002200000022000000F1
:1014700022000000220000002200000022000100E3
:1014800021000000210000002100000021000000D8
:1014900021000000210000002100010020000000C8
:1014A00020000000200000002000000020000000BC
:1014B0002000000020000000200001001F000000AC
:1014C0001F0000001F0000001F0000001F000000A0
:1014D0001F0000001F0001001E0000001E00000091
:1014E0001E0000001E000000043700001E2900003E
:1014F000511B00005810000010090000CC0400002F
:101500007802000041010000423A0020436F756EEE
:101510007420413A00453200426564004531006262
:101520006564002C2073797374656D2073746F701B
:1015300070656421204865617465725F49443A2092
:10154000001000600350012C0190012201D001180D
:101550000110020E0170020401E002FA006003F0C3
:10156000000004E600B004DC00A005D200B006C80C
:10157000000008BE00A009B400800BAA00D00DA096
:101580000090109600C0138C0070178200901B789A
:101590000010206E00C0246400E02D500080353C17
:1015A00000A03A2800A03D1400003F0000A03FEC3E
:1015B000FF4572723A204D415854454D50004D41FF
:1015C0005854454D502074726967676572656400B0
:1015D0004572723A204D494E54454D50004D494E8A
:1015E00054454D50207472696767657265640020C8
:1015F0002F002040002042403A0020403A00496E2F
:1016000076616C69642065787472756465720A002D
:101610004163746976652045787472756465723AC1
:101620002000000C0F00FE07022503BB017FFE080F
:10163000FE08FE05080806000040F0C88888987873
:1016400010050808060000C0F88888888888F80512
:1016500005050600012030F83020050808060000C6
:101660002070F820202020E00509090600FF2070E6
:10167000A8A8B888887020070505070001D86C362F
:101680006CD80509090600FFF8A88888888888A80A
:10169000F8050A0A0600FE205050505088A8A88875
:1016A0007003030306000340A040FFFFFFFFFFFF9E
:1016B000FFFFFFFFFFFFFFFFFFFFFFFFFFFFFFFF3A
:1016C0000000000605FF01070706020080808080F9
:1016D000800080030303060105A0A0A005060606FE
:1016E000000050F85050F8500509090600FF20701E
:1016F000A8A07028A87020050707060000C8C81019
:101700002040989805070706000040A0A040A89038
:10171000680103030602058080800309090601FFB2
:101720002040408080804040200309090601FF805E
:10173000404020202040408005070706000020A8E8
:10174000702070A8200505050600012020F8202043
:101750000203030601FFC04080050101060003F8F3
:10176000020202060100C0C00507070600000810BB
:101770001020404080050707060000708898A8C820
:10178000887003070706010040C040404040E00564
:101790000707060000708808102040F805070706B4
:1017A0000000F808103008887005070706000010D0
:1017B000305090F81010050707060000F880F00878
:1017C000088870050707060000304080F0888870A0
:1017D000050707060000F80810102020200507075D
:1017E000060000708888708888700507070600006A
:1017F00070888878081060020505060100C0C000E6
:10180000C0C00206060601FFC0C000C0408003053C
:10181000050601012040804020050303060002F870
:1018200000F80305050601018040204080050707F8
:101830000600007088102020002005070706000021
:101840007088B8A8B88070050707060000708888FF
:10185000F8888888050707060000F048487048485F
:10186000F0050707060000708880808088700507F3
:1018700007060000F04848484848F00507070600FA
:1018800000F88080F08080F8050707060000F880E7
:1018900080F08080800507070600007088808098AF
:1018A0008870050707060000888888F888888803FC
:1018B0000707060100E04040404040E005070706FA
:1018C000000038101010109060050707060000880F
:1018D00090A0C0A090880507070600008080808047
:1018E0008080F805070706000088D8A888888888BF
:1018F0000507070600008888C8A898888805070794
:101900000600007088888888887005070706000030
:10191000F08888F0808080050707060000708888BE
:1019200088A89068050707060000F08888F0A09056
:101930008805070706000070888070088870050712
:1019400007060000F82020202020200507070600B9
:1019500000888888888888700507070600008888BE
:10196000888850502005070706000088888888A8C6
:10197000A850050707060000888850205088880571
:10198000070706000088885020202020050707064A
:101990000000F80810204080F80309090601FFE064
:1019A00080808080808080E00507070600008040FE
:1019B00040201010080309090601FFE02020202024
:1019C000202020E0050303060005205088050101C2
:1019D0000600FEF803030306010580402005050507
:1019E00006000070087888780507070600008080E8
:1019F000F0888888F00505050600007080808870F2
:101A00000507070600000808788888887805050516
:101A10000600007088F08070050707060000304857
:101A200040E04040400507070600FE70888888783F
:101A300008700507070600008080F0888888880302
:101A400007070601004000C0404040E004090906C5
:101A500001FE1000301010101090600507070600FE
:101A60000080808890E09088030707060100C0404E
:101A700040404040E0050505060000D0A8A8A8A801
:101A8000050505060000B0C888888805050506001C
:101A90000070888888700507070600FEF08888882F
:101AA000F080800507070600FE7888888878080897
:101AB000050505060000B0C8808080050505060004
:101AC0000078807008F00507070600002020F82045
:101AD00020201805050506000088888898680505F7
:101AE0000506000088888850200505050600008846
:101AF00088A8A850050505060000885020508805D4
:101B000007070600FE8888885020408005050506E6
:101B10000000F8102040F80309090601FF204040AA
:101B20004080404040200109090602FF80808080FB
:101B300080808080800309090601FF8040404020AA
:101B40004040408005030306000248A890FF434F31
:101B50004D4D554E49434154494F4E004452595200
:101B6000554E004552524F525300494E464F004584
:101B700043484F006D61726C696E66772E6F7267B5
:101B800000322E302E392E31001FFFFFFFFFFFFFE6
:101B9000600000000001FF400000000000FF800026
:101BA000000000007F83CF00000C303F87FF8000E3
:101BB0000C301F867980000C000F8C30C7838C306E
:101BC000E78C30CFC7CC31F38C30DCECEC33B98C04
:101BD00030D86C6C33198C30D06C0C33198C30D8F5
:101BE0006C0C33198C30DC6C0E3B198C30CF7C07BD
:101BF0009F198C30C77C038F194000000000000241
:101C0000600000000000061FFFFFFFFFFFF87001EB
:101C10002C0190012701B0012201C0011D01F0013A
:101C200018011002130130020E0160020901900236
:101C30000401C002FF000003FA004003F500800326
:101C4000F000D003EB002004E6007004E100E004A3
:101C5000DC004005D700C005D2004006CD00D0060C
:101C6000C8008007C3003008BE00F008B900C009F2
:101C7000B400B00AAF00B00BAA00D00CA500000E53
:101C8000A000500F9B00C01096005012910000144D
:101C90008C00C0158700B0178200B0197D00D01BE2
:101CA0007800001E730040206E0090226900F0242E
:101CB000640040275F0090295A00E02B5500102E49
:101CC000500020304B0010324600E0334100903588
:101CD0003C001037370070383200A0392D00B03A80
:101CE0002800A03B2300603C1E00103D1900903DE1
:101CF0001400103E0F00703E0A00C03E0500003F79
:101D00000000403FFBFF803FF6FFC03FF1FF202077
:101D1000506C616E6E65724275666665724279746A
:101D200065733A20002046726565204D656D6F72BF
:101D3000793A2000436F6D70696C65643A20536591
:101D40007020313920323032310A00204C617374F6
:101D500020557064617465643A20323032312D3020
:101D6000362D3237207C20417574686F723A2028F6
:101D70006E6F6E652C2064656661756C7420636F90
:101D80006E666967290A004D61726C696E20322E99
:101D9000302E392E310A0020536F667477617265D8
:101DA0002052657365740A00205761746368646F1C
:101DB000672052657365740A002042726F776E2047
:101DC0006F75742052657365740A002045787465D8
:101DD000726E616C2052657365740A00506F77658E
:101DE0007255700A0073746172740A00456E6473F0
:101DF000746F7073002553202563202563202563AD
:101E000020256300205A3A0020593A0020583A0011
:101E1000656E6473746F7073206869743A20000093
:101E20004D6F76652025736D6D004D6F76652030A2
:101E30002E316D6D004D6F766520316D6D004D6FEB
:101E400076652031306D6D004D6F76652041786983
:101E500073004578747275646572004D6F76652005
:101E60005A004D6F76652059004D6F7665205800F9
:101E70006F6B00454550524F4D204F4B0A00486F45
:101E80006D65202573257325732046697273740070
:101E90004F666673657473204170706C6965640089
:101EA0004572723A20546F6F206661722100546F40
:101EB0006F206661722066726F6D20726566657252
:101EC000656E636520706F696E740A000000000023
:101ED000000000000000000023646566696E652054
:101EE00044454641554C545F004B6420004B6920EB
:101EF000004B702000504944204175746F74756E1A
:101F0000652066696E697368656421205075742068
:101F1000746865206C617374204B702C204B6920B1
:101F2000616E64204B6420636F6E7374616E7473B2
:101F30002066726F6D2062656C6F7720696E746FBA
:101F400020436F6E66696775726174696F6E2E6883
:101F50000A00504944204175746F74756E6520669F
:101F600061696C6564212074696D656F75740A0020
:101F7000544845524D414C2052554E41574159000D
:101F8000546865726D616C2052756E61776179007D
:101F900048656174696E67204661696C65640048D4
:101FA000656174696E67206661696C65640050499B
:101FB00044204175746F74756E65206661696C6547
:101FC00064212054656D706572617475726520744A
:101FD0006F6F20686967680A00204B643A20002010
:101FE0004B693A2000204B703A200020436C61730B
:101FF00073696320504944200A002054753A200038
:10200000204B753A2000206D61783A2000206D69E0
:102010006E3A200020643A200020626961733A2001
:1020200000504944204175746F74756E6520737457
:102030006172740A00504944204175746F74756E62
:1020400065206661696C6564212054656D706572F8
:10205000617475726520746F6F20686967680A0023
:10206000504944204175746F74756E6520666169CE
:102070006C6564212042616420686561746572202A
:1020800069640A00504944204175746F74756E6527
:102090000064697300656E0043290A0061626C6523
:1020A0006420286D696E2074656D702000436F6C2C
:1020B00064206578747275646573206172652000B0
:1020C00020643A0020693A0020703A00496E766137
:1020D0006C69642065787472756465720A002046C4
:1020E0006C6F773A200046523A00486F74656E6410
:1020F000206F6666736574733A004F4646004F4E14
:102100000020580020204D61783A20002000202037
:102110004D696E3A2000536F667420656E64737467
:102120006F70733A20004D3230362058003F4A20FD
:102130006F7574206F662072616E67652028302E7F
:10214000303120746F20302E33290A0020540020B3
:102150005200416363656C65726174696F6E3A2009
:1021600050004D31343520533C696E6465783E2013
:102170006F7574206F662072616E67652028302D40
:1021800031290A002F2F004D4541545041434B0047
:10219000434F4F4C45525F54454D50455241545565
:1021A0005245004348414D4245525F54454D5045CC
:1021B00052415455524500424142595354455050A2
:1021C000494E470041524353004D4F54494F4E5FD3
:1021D0004D4F44455300544845524D414C5F505279
:1021E0004F54454354494F4E004C4F4E475F46496C
:1021F0004C454E414D45004155544F5245504F526C
:10220000545F53445F5354415455530053445F57F4
:1022100052495445005245504541540053444341AE
:1022200052440050524F4D50545F535550504F52EE
:102230005400484F53545F414354494F4E5F434FFE
:102240004D4D414E445300454D455247454E43592F
:102250005F50415253455200434153455F4C4947FB
:1022600048545F4252494748544E45535300544FD7
:1022700047474C455F4C494748545300534F4654D9
:10228000574152455F504F574552004255494C44C3
:102290005F50455243454E54004C4556454C494EBF
:1022A000475F44415441005A5F50524F42450052EB
:1022B000554E4F5554004155544F4C4556454C00D2
:1022C0005052494E545F4A4F420050524F47524578
:1022D0005353004155544F5245504F52545F54454B
:1022E0004D50004155544F5245504F52545F504F3E
:1022F0005300564F4C554D455452494300454550A7
:10230000524F4D0042494E4152595F46494C455F3C
:102310005452414E534645520053455249414C5F39
:10232000584F4E5F584F4646004649524D5741520E
:10233000455F4E414D453A4D61726C696E20322EBB
:10234000302E392E3120285365702031392032301B
:1023500032312031363A35393A32372920534F5508
:102360005243455F434F44455F55524C3A67697449
:102370006875622E636F6D2F4D61726C696E466970
:10238000726D776172652F4D61726C696E2050526B
:102390004F544F434F4C5F56455253494F4E3A317D
:1023A0002E30204D414348494E455F545950453ADF
:1023B0003344205072696E746572204558545255EA
:1023C0004445525F434F554E543A32205555494487
:1023D0003A63656465326132662D343161322D3481
:1023E0003734382D396231322D63353563363266F4
:1023F00033363766660A003344205072696E74655E
:1024000072204F46462E004D3131332053006F6607
:1024100066006F1B6A1B631B5C1B4E1B44454255C9
:10242000473A006F6B002569730025696D202569A7
:1024300073002569682025696D2025697300256969
:1024400064202569682025696D2025697300256948
:102450007920256964202569682025696D20256912
:1024600073005072696E742074696D653A20004E75
:102470006F204D6F76652E00436C69636B20746F1F
:1024800020526573756D652E2E2E00536C65657038
:102490002E2E2E0047322F47332062616420706158
:1024A00072616D65746572730A0020746F6F206CC1
:1024B0006F6E6720657874727573696F6E207072C5
:1024C0006576656E7465640A0020636F6C642065D0
:1024D0007874727573696F6E2070726576656E744C
:1024E00065640A00486F6D696E67204661696C65B6
:1024F0006400FFFFFF3344205072696E74657220E0
:1025000052656164792E005072696E74696E672E2F
:102510002E2E005072696E742050617573656400D0
:10252000220A00556E6B6E6F776E20636F6D6D6162
:102530006E643A202200204500205900204D393297
:10254000205800205A00627573793A2070617573C3
:10255000656420666F7220696E7075740A0062751A
:1025600073793A2070617573656420666F722075A7
:102570007365720A00627573793A2070726F6365D1
:102580007373696E670A0000002100240027002A87
:10259000002D003000330001010000040107010A92
:1025A000014D3131322053687574646F776E00537A
:1025B000544F505045442E20005072696E7465721D
:1025C0002073746F707065642064756520746F206B
:1025D0006572726F72732E20466978207468652068
:1025E0006572726F7220616E6420757365204D395B
:1025F000393920746F20726573746172742E2028CB
:1026000054656D70657261747572652069732072AE
:10261000657365742E205365742069742061667437
:1026200065722072657374617274696E67290A003D
:102630004E6F20436865636B73756D2077697468AE
:10264000206C696E65206E756D6265722C204C6120
:102650007374204C696E653A2000636865636B7320
:10266000756D206D69736D617463682C204C6173A6
:1026700074204C696E653A20004C696E65204E7579
:102680006D626572206973206E6F74204C61737483
:10269000204C696E65204E756D6265722B312C2061
:1026A0004C617374204C696E653A20004D313130B5
:1026B0000053657269616C20737461747573206D69
:1026C00069736D617463680A002121204B494C4C89
:1026D00020636175736564206279204B494C4C20FE
:1026E000627574746F6E2F70696E0A002121204B21
:1026F000494C4C2063617573656420627920746F66
:102700006F206D75636820696E61637469766520FA
:1027100074696D65202D2063757272656E74206317
:102720006F6D6D616E643A20006F6B0A00526573C5
:10273000656E643A200000002200250028002B006E
:102740002E003100340002010000050108010B01D8
:1027500005050505070508080808020202020A0A1D
:10276000080804040404010101010101010103033B
:10277000030303030303040707070C0C0C0C0C0CE6
:102780000C0C0202020206060606060606060B0BE3
:102790000B0B0B0B0B0B0102102020080810204024
:1027A0001020408002010201080402010102040815
:1027B00010204080804020100804020180040201A3
:1027C00080402010080402010804020101020408EC
:1027D00010204080010204081020408000000A0BF5
:1027E00002090C0D0E0807030401000000000000A0
:1027F00000000000000000000000000000000000D9
:102800000000000000000000121110000000000095
:1028100000000000000000000000000000000000B8
:10282000000020453A00205A3A0020593A00583A10
:10283000004572726F722077726974696E672074D6
:102840006F20454550524F4D210A000035BE1124DE
:102850001FBECFEFD1E2DEBFCDBF00E00CBF13E063
:10286000A0E0B2E0EAEDF2EA01E00BBF02C007909F
:102870000D92AE31B107D9F72FE0AEE1B3E001C060
:102880001D92AE38B207E1F714E1C7E2D4E100E0EF
:1028900006C021970109802FFE010E943BCEC6325F
:1028A000D10780E00807A9F70E9480BE0C946BD185
:1028B0000C9400008F929F92AF92BF92CF92DF92C2
:1028C000EF92FF920F931F93DC011896CD90DD904D
:1028D000ED90FC901B974D915D916D917C911397BC
:1028E00014960D911D912D913C911797EAE5F5E015
:1028F0004A015B01800E911EA21EB31E808291824E
:10290000A282B382401B510B620B730B448355832D
:1029100066837783C086D186E286F3861C968D9186
:102920009D910D90BC91A02D84879587A687B78730
:102930001F910F91FF90EF90DF90CF90BF90AF90DD
:102940009F908F900895BC0120914B0530914C05CC
:1029500040914B0550914C052417350731F481E027
:102960002617370709F080E008959A01F1CF7F928A
:102970008F929F92AF92BF92CF92DF92EF92FF928F
:102980000F931F93CF93DF9370903206CAEFD5E079
:1029900090E3C92E92E0D92E27E5E22E22E0F22E16
:1029A0000AE216E0772009F45EC0F8018080918089
:1029B000A280B38020E030E0A901C501B4010E94EB
:1029C0007AC7882309F44FC020E030E040E05FE39D
:1029D000C501B4010E94DFC79B01AC010E94DFC7A3
:1029E0002BED3FE049E450E40E94DFC79B01AC01BE
:1029F00060E070E080E89FE30E9438CF4B015C010B
:102A000089929992A992B992F601619171916F019F
:102A1000072E000C880B990B0E9480C72AE037ED27
:102A200043E25CE30E94DFC7A50194010E94DFC777
:102A3000F70161937193819391937F010C5F1F4F15
:102A4000F6E0C230DF0709F0ADCFDF91CF911F91E3
:102A50000F91FF90EF90DF90CF90BF90AF909F903D
:102A60008F907F900895812C912C80E8A82E8FE381
:102A7000B82EC6CF90916F0081E091FD02C080E03A
:102A8000089590916F009D7F90936F000895CF926D
:102A9000DF92EF92FF920F931F93CF93DF93E82F74
:102AA000F0E0EF01CC0FDD1FCC0FDD1F461739F032
:102AB000823009F049C0C12CD12C760117C0823078
:102AC000D1F3A09125078A2F90E0DC01AA0FBB1F4C
:102AD000A80FB91FAE0FBF1FAA0FBB1FAA0FBB1FA6
:102AE000AE5FB94FCD90DD90ED90FC908F01000F5F
:102AF000111F000F111FF801EA56F74F259135916C
:102B000045915491C95CDD4FC701B6010E945CCE6E
:102B10006A837B838C839D83F801E657F74F259169
:102B2000359145915491C701B6010E945CCE6E87E4
:102B30007F87888B998BDF91CF911F910F91FF90A9
:102B4000EF90DF90CF90089550E0DA01AA0FBB1FFD
:102B5000A40FB51FAE0FBF1FAA0FBB1FAA0FBB1F2D
:102B6000AE5FB94F862F90E0BC01660F771F680FEC
:102B7000791FE60FF71FEE0FFF1FEE0FFF1FEE5F2F
:102B8000F94F20813181428153816D917D918D91E9
:102B90009C910E945BCE6B017C01C95CDD4FAC0156
:102BA0009B016A817B818C819D810E945CCE6A83BE
:102BB0007B838C839D83A70196016E857F858889A1
:102BC0009989B3CFCF92DF92EF92FF92FC01C08040
:102BD000D180E280F38020E030E0A901C701B60196
:102BE0000E947AC787FF68C0C701B601905820E0ED
:102BF00030E040E251E40E94DFC720E030E040EAEC
:102C000050E40E945CCE20E030E040E251E40E94BB
:102C100038CF0E94A0CF9B0160E22031F7E23F074E
:102C200030F0C90160E177E20E94F8CD605D609309
:102C3000AD04283E83E0380708F445C0C90168EEBA
:102C400073E00E94F8CDCB016AE070E00E94F8CDFD
:102C5000805D8093AE0480E22436310558F0C901CE
:102C600064E670E00E94F8CDCB016AE070E00E945B
:102C7000F8CD805D8093AF0480E22A30310558F0B2
:102C8000EAE0F0E0C901BF010E94F8CDCB01BF012D
:102C90000E94F8CD805D8093B004C9016AE070E0C5
:102CA0000E94F8CD805D8093B1048DEA94E0FF909E
:102CB000EF90DF90CF90089520E030E040E251E4C3
:102CC000C701B60198CF80E2C4CF8F929F92AF9296
:102CD000BF92CF92DF92EF92FF92FC01C080D18031
:102CE000E280F38020E030E040E251E4C701B60129
:102CF0000E94DFC720E030E040E251E40E94DFC7DD
:102D00004B015C0120E030E0A901C701B6010E943F
:102D10007AC720E030E040EA50E487FF04C020E0BA
:102D200030E040EA50ECC501B4010E945CCE20E0E6
:102D300030E040E251E40E9438CF0E94A0CF9B01D6
:102D40008BE237FF05C022273327261B370B8DE286
:102D50008093AC04C90168EE73E00E940CCECB01F5
:102D6000EAE0F0E0BF010E940CCE805D8093AD04EC
:102D7000C90164E670E00E940CCECB01BF010E9445
:102D80000CCE805D8093AE04C901BF010E940CCEC1
:102D9000282FCB01BF010E940CCE805D8093AF0431
:102DA0008EE28093B004205D2093B1048CEA94E01D
:102DB000FF90EF90DF90CF90BF90AF909F908F905B
:102DC00008959C0197FF26C0EE27FF27E81BF90B0B
:102DD0002D398FEF38070CF05DC08DE28093AE0483
:102DE000CF0164E670E00E940CCECB012AE030E017
:102DF000B9010E940CCE805D8093AF04CF01B90170
:102E00000E940CCECB01B9010E940CCE805D809354
:102E1000B0042AC0283E83E03807B4F1C90168EE47
:102E200073E00E940CCECB01EAE0F0E0BF010E940B
:102E30000CCE805D8093AE04C90164E670E00E9410
:102E40000CCECB01BF010E940CCE805D8093AF04FD
:102E5000C901BF010E940CCECB01BF010E940CCE64
:102E6000805D8093B004F901CF016AE070E00E94B8
:102E70000CCE805D8093B1048EEA94E008958DE2DB
:102E800037FDC5CF80E2C3CFF90180E2243631059A
:102E90000CF0A4CF80E28093AE048093AF04EA30BC
:102EA000F1056CF38DE237FF80E28093AF04CF0130
:102EB0006AE070E00E940CCE605D6093B004D4CFF5
:102EC0009C0197FD2DC080E2243631055CF0C901DC
:102ED00064E670E00E940CCECB016AE070E00E94D4
:102EE0000CCE805D8093AF0480E22A3031055CF027
:102EF000EAE0F0E0C901BF010E940CCECB01BF01A6
:102F00000E940CCE805D8093B004C9016AE070E03D
:102F10000E940CCE805D8093B1048FEA94E0089506
:102F20003195219531098DE2DDCF24E6829FC001E4
:102F3000112481589F4F6FEF70E00E940CCE262F16
:102F400081E3643609F080E28093AE0490E22A3097
:102F500040F03AE0822F632F0E94DFCD0E94DFCD48
:102F6000905D9093AF04822F6AE00E94DFCD905D68
:102F70009093B00485E28093B1048EEA94E00895C2
:102F80000F931F93CF93DF938091F40590E0EC01B2
:102F9000CC0FDD1FCC0FDD1F8E01095A1D4F880F8E
:102FA000991FFC01E05DFD4F60817181072E000CCF
:102FB000880B990B0E9480C72AE037ED43E25CE35F
:102FC0000E94DFC7C650DA4F288139814A815B8170
:102FD0000E94DFC7F8016083718382839383DF914E
:102FE000CF911F910F9108950F931F93CF93DF936C
:102FF0008091250790E0EC01CC0FDD1FCC0FDD1F89
:103000008E01095A1D4F880F991FFC01E05DFD4F8D
:1030100060817181072E000C880B990B0E9480C77C
:103020002AE037ED43E25CE30E94DFC7C650DA4F87
:10303000288139814A815B810E94DFC7F801608362
:10304000718382839383DF91CF911F910F910895B4
:103050008091F405811104C08091D20580932707E7
:1030600008958F929F92AF92BF92CF92DF92EF928C
:10307000FF92CF936B017C0120E030E0A9010E9418
:103080007AC787FFA3C06DEB77E386E095EBA701D6
:1030900096010E945CCE6B017C0120E030E040E2B2
:1030A00051E40E94DFC720E030E048EC52E40E9487
:1030B000DFC74B015C0120E030E040E251ECC7018A
:1030C000B6010E947AC7181654F420E030E048ECAC
:1030D00052E4C701B6010E9483D087FD8BC020E077
:1030E00030E0A901C701B6010E947AC787FF73C00B
:1030F00060E070E080EA90ECA50194010E945CCE53
:1031000020E030E040E251E40E9438CF0E94A0CF9E
:103110006B017C01F7FC64C020E137E240E050E045
:103120000E941FCECA01B9012AE030E040E050E021
:103130000E941FCE605D6093AC04C701B60128EE0B
:1031400033E040E050E00E941FCE9AE0892E912C9F
:10315000A12CB12CCA01B901A50194010E941FCE76
:10316000605D6093AD04C701B60124E630E040E045
:1031700050E00E941FCECA01B901A50194010E942E
:103180001FCE605D6093AE048EE28093AF04C701F2
:10319000B601A50194010E941FCEC62FCA01B90134
:1031A000A50194010E941FCE605D6093B004C05DD4
:1031B000C093B1048CEA94E0CF91FF90EF90DF9040
:1031C000CF90BF90AF909F908F9008956DEB77E375
:1031D00086E095E35CCF60E070E080EA90E48CCF1D
:1031E000F094E094D094C094C11CD11CE11CF11C5B
:1031F0006DE2A1CF20E030E0A901C701B6010E9435
:103200007AC787FF6AC060E070E080EA90ECA501B1
:1032100094010E945CCE20E030E040E251E40E9444
:1032200038CF0E94A0CF4B015C0120E030E0A90123
:10323000C701B6010E9483D087FD0BC020E030E0BB
:1032400040E251E4C701B6010E947AC760E287FDFF
:1032500013C0B7FC47C0C501B40128EE33E040E01D
:1032600050E00E941FCECA01B9012AE030E040E0E0
:1032700050E00E941FCE605D6093AD04C501B401B3
:1032800024E630E040E050E00E941FCE8AE0C82EE5
:10329000D12CE12CF12CCA01B901A70196010E94A1
:1032A0001FCE605D6093AE048EE28093AF04C501D3
:1032B000B401A70196010E941FCEC62FCA01B90111
:1032C000A70196010E941FCE605D6093B004C05DAF
:1032D000C093B1048DEA94E06FCF60E070E080EAC3
:1032E00090E495CFB094A09490948094811C911C0C
:1032F000A11CB11C6DE2C0CFCF93DF93EC01CB01D9
:10330000BA010E9480C729EC38EC48EC5EE30E94C9
:1033100038CF20E030E040E05FE30E945CCE0E94C6
:10332000A5CF6883DF91CF9108950E9480C729ECD3
:1033300038EC48EC5EE30E9438CF20E030E040E01B
:103340005FE30E945CCE0E94A5CF862FEECDCF9387
:10335000DF93EC01CB01BA010E9480C768837983B7
:103360008A839B83DF91CF910895CF93DF93EC0104
:10337000CB01BA010E9480C7688379838A839B83CB
:10338000DF91CF910895CF92DF92EF92FF920E944A
:1033900080C76B017C0120E030E0A9010E947AC760
:1033A0002DEB37E346E055E387FF04C02DEB37E311
:1033B00046E055EBC701B6010E945CCE6B017C0173
:1033C00020E030E0A9010E947AC720E030E040E030
:1033D0005FE387FF04C020E030E040E05FEBC7011F
:1033E000B6010E945CCE0E94A0CFCB01FF90EF906F
:1033F000DF90CF9065CDE091F40586E0E802F00122
:103400001124EC5BF94F8091D20590E09583848381
:10341000089580912507882369F08091C8048770FA
:10342000873041F48EE997E09093CA058093C905EF
:10343000109225070895CF93DF9300D01F92CDB748
:10344000DEB70E94A5CF0E947EC769837A838B83F3
:103450009C83CE010196B6DB0F900F900F900F90DA
:10346000DF91CF9108958F929F92AF92BF92CF92AA
:10347000DF92EF92FF92CF936B017C0120E030E06E
:10348000A9010E947AC787FDAAC06DEB77E386E0A9
:1034900095E3A70196010E945CCE6B017C0120E0C0
:1034A00030E0A9010E947AC787FF9EC0C701B6011C
:1034B000905820E030E040E251E40E94DFC720E075
:1034C00030E040E251E40E94DFC720E030E040EA13
:1034D00050E40E945CCE20E030E040E251E40E94E3
:1034E00038CF0E94A0CF6B017C0180E28093AB04B7
:1034F00060E280E1C81687E2D806E104F1048CF0AE
:10350000C701B60120E137E240E050E00E941FCE43
:10351000CA01B9012AE030E040E050E00E941FCE2D
:10352000605D6093AC0460E288EEC81683E0D80664
:10353000E104F1048CF0C701B60128EE33E040E06D
:1035400050E00E941FCECA01B9012AE030E040E0FD
:1035500050E00E941FCE605D6093AD0460E284E69F
:10356000C816D104E104F1048CF0C701B60124E6C9
:1035700030E040E050E00E941FCECA01B9012AE0CD
:1035800030E040E050E00E941FCE605D6093AE04EA
:103590008AE0882E912CA12CB12CC701B601A5017F
:1035A00094010E941FCEC62FCA01B901A501940142
:1035B0000E941FCE605D6093AF048EE28093B004E2
:1035C000C05DC093B1048BEA94E0CF91FF90EF907F
:1035D000DF90CF90BF90AF909F908F9008956DEB4C
:1035E00077E386E095EB55CF20E030E040E251E410
:1035F000C701B60162CFCF92DF92EF92FF92CF93D5
:10360000DF9300D01F92CDB7DEB76B017C0120E0C5
:1036100030E0A9010E947AC787FD1AC06DEB77E3FD
:1036200086E095E3A70196010E945CCE69837A83C8
:103630008B839C83CE010196C5DA0F900F900F907B
:103640000F90DF91CF91FF90EF90DF90CF90089592
:103650006DEB77E386E095EBE5CF8F929F92AF928B
:10366000BF92CF92DF92EF92FF92CF936B017C01DA
:1036700020E030E0A9010E947AC787FD93C06DEB7E
:1036800077E386E095E3A70196010E945CCE6B018B
:103690007C0120E030E040E251E40E94DFC720E0FE
:1036A00030E04AE754E40E94DFC74B015C0120E0B0
:1036B00030E0A901C701B6010E947AC720E030E0DE
:1036C00040EA50E487FF04C020E030E040EA50ECDC
:1036D000C501B4010E945CCE20E030E040E251E43C
:1036E0000E9438CF0E94A0CF6B017C01C114D1048D
:1036F000E104F10409F45BC0F7FE59C0F094E094D2
:10370000D094C094C11CD11CE11CF11C8DE28093AB
:10371000AC04C701B60128EE33E040E050E00E945F
:103720001FCE8AE0882E912CA12CB12CCA01B901A0
:10373000A50194010E941FCE605D6093AD048EE2EE
:103740008093AE04C701B60124E630E040E050E0CB
:103750000E941FCECA01B901A50194010E941FCE8B
:10376000605D6093AF04C701B601A50194010E949A
:103770001FCEC62FCA01B901A50194010E941FCE18
:10378000605D6093B004C05DC093B1048CEA94E0C6
:10379000CF91FF90EF90DF90CF90BF90AF909F9030
:1037A0008F9008956DEB77E386E095EB6CCF80E228
:1037B000AECFCF93DF93EC01CB01BA010E9480C75B
:1037C00020E030E040E251E40E9438CF6883798302
:1037D0008A839B83DF91CF9108950E9480C720E068
:1037E00030E040E251E40E9438CF3DCECF93DF93EA
:1037F000EC01CB01BA010E9480C72AE037ED43E219
:103800005DE30E9438CF0E94A5CF688379838A83C5
:103810009B83DF91CF9108950E9480C72AE037ED06
:1038200043E25DE30E9438CF06CECF93DF93EC01F5
:10383000CB01BA010E9480C72AE037ED43E25DE385
:103840000E9438CF688379838A839B83DF91CF91ED
:1038500008950E9480C72AE037ED43E25DE30E94AD
:1038600038CFC9CE0E9480C7C6CECF93DF93EC017C
:10387000CB01BA010E9480C720E030E048EC52E45E
:103880000E9438CF688379838A839B83DF91CF91AD
:1038900008950E9480C720E030E048EC52E40E9486
:1038A00038CFDFCBCF93DF93EC01CB01BA010E947D
:1038B00080C70E94A0CF79836883DF91CF9108955C
:1038C0000E9480C70E94A0CFCB01FACACF93DF939A
:1038D000EC01CB01BA010E9480C720E030E04AE74A
:1038E00054E40E9438CF688379838A839B83DF9175
:1038F000CF9108950E9480C720E030E04AE754E469
:103900000E9438CFAACEFC0184910895FC018081E9
:1039100008950F931F93522F2091F00C3091F10CCA
:103920002817390721F19093F10C8093F00C8B014B
:1039300030E020E00093DD051093DE052093DF05E5
:103940003093E0054093D6055093D7058C529145AE
:1039500021F41092AA041092A80482E08093360207
:1039600081E08093ED051092A7041092A9041F91A5
:103970000F91089520E040E070E060E08DE591E275
:10398000C8CF21E02093AA04FC0180819181A2810B
:10399000B3818093100290931102A0931202B0930E
:1039A000130220E040E070E060E08091D00590914B
:1039B000D105AFCFCF93DF9300D01F92CDB7DEB745
:1039C0008DEC9CECACECBCE389839A83AB83BC8329
:1039D000CE010196D6DF0F900F900F900F90DF91E0
:1039E000CF910895CF93DF9300D01F92CDB7DEB76C
:1039F0008DEC9CECACECBDE389839A83AB83BC83F8
:103A0000CE010196BEDF0F900F900F900F90DF91C7
:103A1000CF910895CF93DF9300D01F92CDB7DEB73B
:103A200080E090E0A0E8BFE389839A83AB83BC8306
:103A3000CE010196A6DF0F900F900F900F90DF91AF
:103A4000CF910895CF93DF9300D01F92CDB7DEB70B
:103A500080E090E0A0E2B1E489839A83AB83BC83E9
:103A6000CE0101968EDF0F900F900F900F90DF9197
:103A7000CF9108958091B60C9091B70C891B8F70EF
:103A800039F481E09091AA06913019F080E0089510
:103A900081E0089520E040E070E060E08CE291E594
:103AA00038CF8093D20520E040E070E060E08EE700
:103AB0009DE32FCFFC01A081B1811C92A281B38133
:103AC0008C918F5F8C930280F381E02D90818CE04C
:103AD000989F800D1124E2EFFCE013AE84AF0895AF
:103AE000009751F0FC0180E09191992331F0907C96
:103AF0009038D1F38F5FF8CF80E00895119800C01F
:103B00009091020187FD9095917090930001119A18
:103B100000C000C0119800C09091020186FD9095F0
:103B2000917090930001119A00C000C0119800C0DC
:103B30009091020185FD9095917090930001119AEA
:103B400000C000C0119800C09091020184FD9095C2
:103B5000917090930001119A00C000C0119800C0AC
:103B60009091020183FD9095917090930001119ABC
:103B700000C000C0119800C09091020182FD909594
:103B8000917090930001119A00C000C0119800C07C
:103B90009091020181FD9095917090930001119A8E
:103BA00000C000C0119800C0809102018170809314
:103BB0000001119A00C000C00895089590E080E0CF
:103BC0000895282F9091A506833021F495FD0FC00C
:103BD00094FD0FC0892F90E0B0E0A0E004C0B6953E
:103BE000A795979587952A95D2F78170089581E0DA
:103BF000089580E008950F931F930E94D799009134
:103C00006D0410916E0420916F0430917004601B5C
:103C1000710B820B930B97FD0EC086B186FB882734
:103C200080F991E08927349B8260079B02C0329B18
:103C3000846080936C0480916C04817090916C041A
:103C400091FD826090916B04981749F0813009F1E1
:103C500048F0823079F0833091F080936B041F91AB
:103C60000F910895913079F09230B9F790916A04EC
:103C700091500CC0992339F09330C1F3EECF9130BD
:103C8000A9F3923051F790916A049F5F90936A0470
:103C9000E4CF992359F3933001F7F5CFCF92DF9218
:103CA000EF92FF92CF93C82F833011F460935904A1
:103CB0000E94D7996B017C0124EA30E74DE75FE36E
:103CC0006091100270911102809112029091130282
:103CD0000E947AC787FD18C08AEF90E0A0E0B0E0AC
:103CE0008C0D9D1DAE1DBF1D80935A0490935B04E7
:103CF000A0935C04B0935D04C0930E02CF91FF903B
:103D0000EF90DF90CF90089580E090E0DC01E8CF65
:103D1000CF93DF93C091B905D091BA05209729F1CF
:103D20006091B5057091B6058091B7059091B80581
:103D30000E94A0CF6E5F7F4F24976C177D07ACF475
:103D400070939A05609399050E94D799605A7541BE
:103D50008F4F9F4F60939B0570939C0580939D05AB
:103D600090939E05DF91CF91089510929B0510923C
:103D70009C0510929D0510929E05F4CF0F931F9302
:103D8000CF93DF93082F10E097E1899FF001112472
:103D9000E950F94FC085D185209729F1648175815B
:103DA000868197810E94A0CF6E5F7F4F24976C170A
:103DB0007D07CCF486E0809FE001819FD00D112427
:103DC000C156DA4F798368830E94D799605E714B40
:103DD0008F4F9F4F6A837B838C839D83DF91CF912D
:103DE0001F910F91089586E0809FF001819FF00D53
:103DF0001124E156FA4F1282138214821582EECFFB
:103E00008091F405BBCF4091F70521E042276CE09B
:103E100070E00C940A944091F70521E0422761E09C
:103E200070E00C940A944091F70521E0422762E08B
:103E300070E00C940A944091F70521E0422761E07C
:103E400070E00C940A944091F70521E0422768E065
:103E500070E00C940A944091F70521E042276CE051
:103E600070E00C940A944091F70521E0422764E049
:103E700070E00C940A9441E061E070E00C940A94C4
:103E80004091F70521E042270C940A9462E070E02B
:103E90000C9470996CE070E00C94709961E070E0A3
:103EA0000C94709961E070E00C9470996CE070E093
:103EB0000C94709964E070E00C9470994F925F924A
:103EC0006F927F928F929F92AF92BF92CF92DF922A
:103ED000EF92FF920F931F93CF93DF93CDB7DEB78F
:103EE0006A970FB6F894DEBF0FBECDBF9A8F898F49
:103EF0005B018A01DC01D7966D917D918D919C913A
:103F0000DA970E947EC76B017C01F5012081318127
:103F1000428153810E94DFC70E9422CF2B013C01C6
:103F2000D8012D913D914D915C91C701B6010E9440
:103F3000DFC70E9422CF4B015C01C301B2010E9486
:103F4000A5CF698B7A8B8B8B9C8B6837710581052C
:103F5000910540F428E730E040E050E0298B3A8BAF
:103F60004B8B5C8BC501B4010E94A5CF6D877E870A
:103F70008F87988B683771058105910540F488E734
:103F800090E0A0E0B0E08D879E87AF87B88BE98D89
:103F9000FA8DED5BFF4F208131814281538129836E
:103FA0003A834B835C83CA01B9010E9480C72B010D
:103FB0003C0169897A898B899C890E947EC76987BF
:103FC0007A878B879C8720E030E0A901C301B2018A
:103FD0000E947AC7882309F43BC1A7019601C70153
:103FE000B6010E94DFC74B015C0129853A854B85EC
:103FF0005C85CA01B9010E94DFC79B01AC01C50104
:10400000B4010E945BCE4B015C01A3019201C3018C
:10401000B2010E945CCE9B01AC01C501B4010E94BB
:1040200038CF0E9422CF0E94A5CF6D837E838F83DD
:10403000988769817A818B819C8190958095709514
:1040400061957F4F8F4F9F4F0E9480C74B015C014E
:104050006D857E858F8598890E947EC769837A8366
:104060008B839C8320E030E0A901C501B4010E944C
:104070007AC7882309F4F0C029813A814B815C8199
:10408000CA01B9010E94DFC76D8B7E8B8F8B988F21
:10409000A7019601C701B6010E94DFC79B01AC01D1
:1040A0006D897E898F89988D0E945BCE6B017C0122
:1040B000A5019401C501B4010E945CCE9B01AC0135
:1040C000C701B6010E9438CF0E94D1CFA98DBA8D09
:1040D00095968D909D90AD90BC90989775016401D8
:1040E0002D813E814F815885C21AD30AE40AF50A10
:1040F0000E94A5CFC61AD70AE80AF90AF7FE6EC0D1
:1041000020E030E0A901C301B2010E947AC78823F0
:1041100009F4A6C0C501B4010E947EC76B017C01F1
:10412000A3019201C301B2010E945CCE9B01AC01CC
:10413000C701B6010E94DFC76B017C0129853A8562
:104140004B855C85CA01B9010E94DFC79B01AC01A8
:10415000C701B6010E945BCE6B017C0129813A81C7
:104160004B815C81CA01B9010E94DFC79B01AC0190
:10417000C701B6010E945CCE6B017C0120E030E0FB
:1041800040E850E4C301B2010E94DFC79B01AC01CB
:10419000C701B6010E9438CF0E9422CF6B017C017B
:1041A00020E030E0A9010E9483D018161CF0C12C39
:1041B000D12C7601C701B6010E94A5CF6D837E8305
:1041C0008F83988786169706A806B90620F48D82F5
:1041D0009E82AF82B886C12CD12C76018D819E81C2
:1041E000AF81B885E98DFA8D82A793A7A4A7B5A75B
:1041F000C80ED91EEA1EFB1EC6A6D7A6E0AAF1AAC3
:1042000029893A894B895C8923AF34AF45AF56AFD2
:10421000FF962D853E854F855889208331834283C3
:1042200053836A960FB6F894DEBF0FBECDBFDF9101
:10423000CF911F910F91FF90EF90DF90CF90BF90A3
:10424000AF909F908F907F906F905F904F90089568
:1042500060E070E0CB01E5CE60E070E0CB0134CFF0
:1042600060E070E0CB0198CF40912507BC0184E766
:104270009CE00C943F94CF93DF93CDB7DEB720E260
:10428000488559856F818E810E94DB95DF91CF91A2
:10429000089565E170E483E00C9420BC69EF71E45B
:1042A00082E00C9420BC6DEF71E481E00C9420BCA2
:1042B00061E072E480E00C9420BC68E170E483E08B
:1042C0000C9420BCBF92CF92DF92EF92FF920F939B
:1042D0001F93CF93DF936B01E9014A3009F4DFC0EC
:1042E000453109F08AC0DB011296ED91FC911281F3
:1042F000C681D781809102018095827080930001F0
:1043000000C0000086E290E00197F0F7012F0295CF
:10431000007F20E1B22EB10E88EFF0DB00C000007C
:1043200086E290E00197F0F7103208F0A5C0812FE7
:1043300080778068E3DB802FE1DB00C0000086E24D
:1043400090E00197F0F780E8D9DB80E0D7DB00C090
:10435000000086E290E00197F0F78AEFCFDB00C023
:10436000000086E290E00197F0F77E01B0E1EB0EED
:10437000F11C8881807FC2DB89918295807FBEDBC2
:10438000CE15DF05B1F700C0000086E290E001978E
:10439000F0F71F5F005F1B11BFCF80910201827099
:1043A00080930001D6011296ED91FC91808192815B
:1043B000980F92832181921708F0EDC194819F5F3D
:1043C00094839381890F821710F08FEF820F83837C
:1043D000458150E0440F551F70E060E08681978171
:1043E0000E942AD181E0DF91CF911F910F91FF9020
:1043F000EF90DF90CF90BF900895FB010281138171
:10440000423309F4CAC108F4D2C1463409F4BFC129
:10441000473409F4C7C14B3329F789812B81D8016F
:1044200012966C91129713964C91213009F404C2A4
:10443000233009F0E5C138EF380F582F91E04317CA
:1044400008F490E041E0531708F040E031E05617DF
:1044500008F430E0592F542B352319F4942309F430
:10446000C1CFFA8030E0F901E652FD4FD0802A52E8
:104470003D4FF901E080DDC180EE810F8068807FD3
:104480003DDB812F8295807F39DB00C0000086E212
:1044900090E00197F0F780E831DB80E857CF80911A
:1044A00001018260809301018091020182708093FA
:1044B00000018091010181608093010180910201DE
:1044C000817080930001099A119A80910201809570
:1044D00082708093000100C0000086E290E00197A6
:1044E000F0F788E790E0CEE9DFE0FE013197F1F7E1
:1044F0000197D9F788EF02DB00C0000086E290E068
:104500000197F0F780E2FADA80E0F8DA00C0000004
:1045100086E290E00197F0F780E0F0DA80E8EEDAEA
:1045200000C0000086E290E00197F0F780E0E6DA54
:1045300080E1E4DA00C0000086E290E00197F0F745
:10454000CE010197F1F7CE010197F1F7CE01019766
:10455000F1F7CE010197F1F7CE010197F1F7CE0106
:104560000197F1F7CE010197F1F7CE010197F1F72D
:10457000CE010197F1F7CE010197F1F7CE01019736
:10458000F1F7CE010197F1F7CE010197F1F7CE01D6
:104590000197F1F72197F1F780E2B0DA80E4AEDA23
:1045A00000C0000086E290E00197F0F780E2A6DA12
:1045B00080E6A4DA00C0000086E290E00197F0F700
:1045C000D0E0C0E08C2F8077806898DA8D2F96DA63
:1045D00000C0000086E290E00197F0F780E88EDAF4
:1045E00080E08CDA00C0000086E290E00197F0F7EE
:1045F0008AEF84DA00C0000086E290E00197F0F7CD
:1046000090E2119800C080910201817080930001B6
:10461000119A00C000C0119800C080910201817001
:1046200080930001119A00C000C0119800C08091D1
:104630000201817080930001119A00C000C011989E
:1046400000C080910201817080930001119A00C026
:1046500000C0119800C08091020181708093000118
:10466000119A00C000C0119800C0809102018170B1
:1046700080930001119A00C000C0119800C0809181
:104680000201817080930001119A00C000C011984E
:1046900000C080910201817080930001119A00C0D6
:1046A00000C0119800C080910201817080930001C8
:1046B000119A00C000C0119800C080910201817061
:1046C00080930001119A00C000C0119800C0809131
:1046D0000201817080930001119A00C000C01198FE
:1046E00000C080910201817080930001119A00C086
:1046F00000C0119800C08091020181708093000178
:10470000119A00C000C0119800C080910201817010
:1047100080930001119A00C000C0119800C08091E0
:104720000201817080930001119A00C000C01198AD
:1047300000C080910201817080930001119A00C035
:1047400000C000C00000E6E2F0E03197F0F79150C1
:1047500009F057CF88EFD2D900C0000086E290E080
:104760000197F0F7CF5FD05FC03209F02BCF80E028
:10477000C5D980ECC3D900C0000086E290E0019763
:10478000F0F7809102018270809300012BCEF80136
:104790008581888327CE80E026CEB901C8010E949A
:1047A0004C9F20CED80111968C9188831BCE44312A
:1047B00091F0473109F016CE1882D80112968C91EB
:1047C0001297898315968C91159781508A83139639
:1047D0008C918B8307CED80115964C91159750E09C
:1047E000440F551F70E060E016968D919C910E94D9
:1047F0002AD1F80112828081815083831482F2CD04
:10480000481708F4EFCD861708F4ECCDFA80E12CB8
:10481000D12C243070F426CEBE01C8010E944C9FDA
:10482000898198819D0D98838E0D8983FF0C09F4F1
:10483000D9CDF7FEF6CFF0CF58E0580F382FFECD88
:10484000EF92FF920F931F93CF93DF93EC018B01B5
:104850007A018A859B858617970731F0888199812F
:104860000E94A2A01B870A87B701888199810E94B4
:104870001C962E813F81820F932F911D9F838E83E3
:1048800090E080E0DF91CF911F910F91FF90EF902A
:1048900008959F92AF92BF92CF92DF92EF92FF92D4
:1048A0000F931F93CF93DF93EC018B01942EA52ED2
:1048B0008A859B858617970731F0888199810E94A8
:1048C000A2A01B870A8788859985019649F5BC8037
:1048D0000A818E81080FC880D980D6015596ED9146
:1048E000FC91C6011995B80EE92CFA2C10E0F701DD
:1048F00021917F01211127C08E819F81810F911D00
:104900009F838E8390E080E0DF91CF911F910F9184
:10491000FF90EF90DF90CF90BF90AF909F90089561
:104920000E811F81692D7A2D888199810E941C96A4
:10493000800F912F911D288539852817390738F662
:1049400081E090E0E1CF4B2D602FC6010E947EA157
:10495000080F180FCCCFDF92EF92FF920F931F93A7
:10496000CF93DF93EC01D62E1CAD0BAD7C0184E020
:10497000E80EF11CE98DFA8DC7011995412F480FFA
:104980002D2D602FC7010E947EA19BAD890F8BAF9B
:1049900081E090E0DF91CF911F910F91FF90EF9018
:1049A000DF900895CF9380913E04811154C01092FE
:1049B0002D0D10922E0D10922F0D1092FB0C1092B7
:1049C000FA0C1092FD0C1092FC0C1092FF0C81E07E
:1049D0008093FE0C82E28093000D1092050D1092E0
:1049E000040DE9E1FDE027E23DE08FEF81932E1712
:1049F0003F07E1F7C1E0C093160D2BE731E9309393
:104A00000C0D20930B0DC0930D0D10920E0D1092F6
:104A10000F0D90E49093100D1092110D2AE731E9DB
:104A20003093280D2093270D28E032E03093F90CC5
:104A30002093F80C97E190931D0D91E190931E0D3A
:104A400090E190931B0D80931A0D8093190D0E9495
:104A50008A9FC0933E0481E08093400481EE93E0FE
:104A60009093930C8093920C1092950C1092940C4E
:104A7000CF910895CF92DF92EF92FF920F931F9301
:104A8000CF93DF93CDB7DEB72C970FB6F894DEBF88
:104A90000FBECDBFF0902D0DE0902E0D2091400463
:104AA00021111DC041EA53E06E2D8F2D0E94E8A117
:104AB00090E080E0F80EF0922D0DE0922E0D9927F7
:104AC0002C960FB6F894DEBF0FBECDBFDF91CF910D
:104AD0001F910F91FF90EF90DF90CF900895C090BD
:104AE000FA0CD090FB0C26EF3CE03A8329832F2D63
:104AF00030E03C832B832E2D30E03E832D831886BF
:104B00001F827A8769871C861B8609E414E29E014E
:104B10002F5F3F4F43E85CE1BC01C6010E94429316
:104B2000B60186EF9CE00E94A2A08F819885C2CF3B
:104B30004F925F926F927F928F929F92AF92BF92AD
:104B4000CF92DF92EF92FF920F931F93CF93DF9359
:104B5000EC01562E142F622E402E220F220F220F10
:104B60000E94FAA0882321F1410E4E018CE1880EAB
:104B7000911CA62CB12C6701762C052D12C0F601D4
:104B800084916A817B810C8F1D8F1F8E8E8F940183
:104B90004BE3CE010E94869FFFEFCF1ADF0A7A9483
:104BA000085F7110ECCFEA0CFB1C1F5F4112E3CFD2
:104BB000DF91CF911F910F91FF90EF90DF90CF90F9
:104BC000BF90AF909F908F907F906F905F904F902D
:104BD00008958F929F92AF92BF92CF92DF92EF9201
:104BE000FF920F931F93CF93DF93DC0170E0FB01E3
:104BF000EE0FFF1FE850FD4F208131816A507D4F3D
:104C0000FB019081D92E80E0E82EF12CB7016D0DCB
:104C1000711D75956795611119C0F90132966591FD
:104C20007491072E000C880B990B0E9480C7DF91AE
:104C3000CF911F910F91FF90EF90DF90CF90BF9099
:104C4000AF909F908F900895D62EE0CF681711F007
:104C5000D6120CC0492F4150550BFA01EE0FFF1F21
:104C6000EE0FFF1F3296E20FF31FD9CFAB01415079
:104C70005109440F551F440F551FF901E40FF51F4B
:104C800005911491FA013496E20FF31FC591D49166
:104C9000A017B107CCF2862FCA17DB070CF4B4CFEC
:104CA000FA013296E20FF31FE590F490FA0136967E
:104CB000E20FF31FC590D490BD01601B710B072E4E
:104CC000000C880B990B0E9480C74B015C01B60158
:104CD0006E197F09072E000C880B990B0E9480C764
:104CE0009B01AC01C501B4010E94DFC74B015C010F
:104CF000BE01601B710B072E000C880B990B0E94E4
:104D000080C79B01AC01C501B4010E9438CF4B01A3
:104D10005C01B701FF0C880B990B0E9480C79B01B7
:104D2000AC01C501B4010E945CCE81CF0F930FB7D7
:104D30000F9300916E000B7F00936E0078940F9399
:104D40000BB70F930CB70F921F922F933F934F9374
:104D50005F936F937F938F939F93AF93BF93EF93E3
:104D6000FF93112444D3FF91EF91BF91AF919F9195
:104D70008F917F916F915F914F913F912F911F90F4
:104D80000F900CBF0F910BBF0F910460F89400932C
:104D90006E000F910FBF0F9118958F929F92AF9257
:104DA000BF92CF92DF92EF92FF920F931F93CF9318
:104DB000DF93BCE1A0E06A2F70E0AB014B0F511D07
:104DC00055954795411119C0E3E4F5E1659174915A
:104DD000072E000C880B990B0E9480C7DF91CF91A2
:104DE0001F910F91FF90EF90DF90CF90BF90AF9009
:104DF0009F908F900895B42FE0CFA41711F0B413B3
:104E000003C0EFEAF5E1E2CF9A0121503109220F08
:104E1000331F220F331FF901EF5BFA4EE590F49038
:104E2000F901EB5BFA4EC591D4918E159F051CF3E9
:104E3000A42FC817D9070CF4BECFF901ED5BFA4EC9
:104E400005911491F901E95BFA4EC590D490BC012B
:104E50006E197F09072E000C880B990B0E9480C7E2
:104E60004B015C01B601601B710B072E000C880B17
:104E7000990B0E9480C79B01AC01C501B4010E943F
:104E8000DFC74B015C01BE016E197F09072E000CC4
:104E9000880B990B0E9480C79B01AC01C501B4012E
:104EA0000E9438CF6B017C01B801110F880B990B60
:104EB0000E9480C79B01AC01C701B6010E945CCE75
:104EC0008DCF0F930FB70F9300916E000F930B7F51
:104ED00000936E0000916F000D7F00936F000F93A1
:104EE0000BB70F930CB70F921F922F933F934F93D3
:104EF0005F936F937F938F939F93AF93BF93EF9342
:104F0000FF931124E0D3FF91EF91BF91AF919F9157
:104F10008F917F916F915F914F913F912F911F9052
:104F20000F900CBF0F910BBF0F910260F89400938C
:104F30006F000F9100936E000F910FBF0F911895A6
:104F400000C081E090E00197F0F78091C80580FFF4
:104F500031C0899A8FEF809300058091C8058695AE
:104F600080FF2BC08F9A8FEF809301058091C80539
:104F70008695869580FF24C080910B018095827074
:104F8000809309018FEF8093020590910405809131
:104F9000C80586958695869580FF1BC0911117C020
:104FA00016988FEF8093030500C081E090E0019791
:104FB000F0F70895899881E0CECF8F9881E0D4CF23
:104FC00080910B0182708093090181E0DCCF4398CE
:104FD000E8CF911103C0169A81E0E4CF439AFCCF49
:104FE000AF92BF92CF92DF92EF92FF920F931F93F7
:104FF000CF93DF93CBEAD6E004E316E08BEBA82E49
:1050000086E0B82EC12CD12C7601C3946991799198
:10501000899199910E947EC7288939894A895B893B
:105020000E94DFC70E94A5CFF8016193719381931D
:1050300091938F01C616D706E806F90610F46B01A6
:105040007C01AC16BD0611F76FEF7FEFCB01A70116
:1050500096010E94A4CD2093D9043093DA044093A2
:10506000DB045093DC04DF91CF911F910F91FF90EF
:10507000EF90DF90CF90BF90AF9008950F931F9364
:10508000CF93DF930FEB16E0C3EED4E0F80121914C
:105090003191419151918F0160E070E080E89FE390
:1050A0000E9438CF6993799389939993F4E0C33F31
:1050B000DF0761F70E946D94DF91CF911F910F91EF
:1050C0008FCFDCCFDBCFDACFD9CF8ACF89CF88CFD4
:1050D00087CF9091B60C8091B70C981306C0809141
:1050E000F00B9091F10B892B19F00E94E399F1CF0D
:1050F00008954F925F926F927F928F929F92AF929C
:10510000BF92CF92DF92EF92FF920F931F93CF93B4
:10511000DF93CDB7DEB72C970FB6F894DEBF0FBE86
:10512000CDBF2B013C0129873A874B875C8747011C
:105130005801F601E080F1800281138120E030E027
:10514000A901B701C8010E947AC7882309F480C069
:105150005E2D4F2D302F212F852F942FA32FB22F6F
:1051600089839A83AB83BC8320E030E0A901B70137
:10517000C8010E947AC7811104C0E12CF12C00E221
:1051800011E4C701D8018D839E83AF83B887A50141
:10519000940160917C0C70917D0C80917E0C9091BB
:1051A0007F0C0E947AC787FF0BC080927C0C909284
:1051B0007D0CA0927E0CB0927F0CCE01059654D847
:1051C0004092740C5092750C6092760C7092770C31
:1051D00089859A85AB85BC858093780C9093790CF2
:1051E000A0937A0CB0937B0CCE0101963DD8A5011B
:1051F000940160917C0C70917D0C80917E0C90915B
:105200007F0C0E9483D018165CF480927C0C9092E4
:105210007D0CA0927E0CB0927F0CCE01059624D816
:1052200058DF2C960FB6F894DEBF0FBECDBFDF91CE
:10523000CF911F910F91FF90EF90DF90CF90BF9093
:10524000AF909F908F907F906F905F904F90089558
:1052500050E040E035E023E47FCFEFE6F0E08081EE
:105260008260808308950F931F93CF93DF93C82F9D
:105270000E943A15D82F40915A0550915B056091D4
:105280005C0570915D0580915E0590915F05A09130
:105290006005B0916105C13031F58A019B01081BA1
:1052A000190B2A0B3B0BC901B8010E9480C720E0F3
:1052B00030E040E05FE30E94DFC70E94A0CF14E02F
:1052C000C19FF0011124E25BFA4F608371838283F6
:1052D000938381E080934D05DD2361F0DF91CF91D1
:1052E0001F910F91BACF8C019D01040F151F261F2E
:1052F000371FD9CFDF91CF911F910F910895CF9292
:10530000DF92EF92FF92909103018091BB0491FD97
:1053100063C081608093BB048091BB0465995EC0CB
:1053200082608093BB048091BB044B9959C0846018
:105330008093BB04C0903E05C0FE12C08091C8059A
:1053400082958695877080FF0BC08091BB0480FF9B
:1053500007C08091A90681608093A90680E083DF61
:10536000D12CF12CE12CD701C601B695A7959795C4
:10537000879580FF13C08091C80582958695869594
:10538000837080FF0BC08091BB0481FF07C08091B8
:10539000A90682608093A90681E065DF82E0F69429
:1053A000E794D794C7948A95D1F7C0FE1BC080912B
:1053B000C8058695869580FF15C08091BB0482FF45
:1053C00011C08091A90684608093A90682E0FF90B5
:1053D000EF90DF90CF9047CF8E7F9CCF8D7FA1CF76
:1053E0008B7FA6CFFF90EF90DF90CF9008958091B4
:1053F0001B028F3708F449C08F5790910107909393
:10540000AF05992309F43FC02C9A209118072093E7
:10541000B005909102012111909590719093000137
:105420002091BB052093AE0590910201211190952A
:105430009072909300018F5F80931B028091AD0565
:1054400091E089278093AD0581110E94FB1D909109
:105450001A0221E0290F97300CF020E0983008F074
:1054600041C0E92F092E000CFF0B8827E55CF54DA4
:105470008F4F0C943BCE6B2AB22ABE2AD12AD62A51
:10548000E92AEE2A5B2A2C98C0CF9091AF058917A4
:1054900008F02C989091B005891728F0909102019E
:1054A0009071909300019091AE05891708F4C3CFD5
:1054B00090910201BDCF8091AC05811103C083E0C2
:1054C0008093AC058091AC0581508093AC05882316
:1054D00049F0292F07C0809119028F5F8031A4F411
:1054E0008093190220931A0280916406811107DFCC
:1054F0008091F00B9091F10B009729F00197909318
:10550000F10B8093F00B0895109219028091F80529
:1055100081111BC08091F7069091F8069093FA06CE
:105520008093F90680910E0790910F0790931107D1
:10553000809310078091B1059091B2059093B405C6
:105540008093B30581E08093F8051092F8061092DD
:10555000F70610920F0710920E071092B2051092E4
:10556000B105C0CF88E080937B0085E480937C0008
:1055700080917A00806480937A00B4CF80917A0021
:1055800086FDA7CF40917800509179008091F70671
:105590009091F806840F951F9093F8068093F70674
:1055A000A1CF88E080937B0086E4E0CF80917A00F1
:1055B00086FD8FCF40917800509179008091B105A0
:1055C0009091B205840F951F9093B2058093B10519
:1055D00089CF88E080937B0087E4C8CF80917A00F0
:1055E00086FD77CF409178005091790080910E0729
:1055F00090910F07840F951F90930F0780930E07CC
:1056000071CF0E943A151092DD041092DE041092C0
:10561000DF041092E004811120CE08950F931F93B0
:105620008091B60C9091B70C891B8F7009F449C01A
:105630009091B30C992361F0833040F48FEF890F80
:1056400029F08093B30C90E080E038C01092B30C46
:105650008091B70C2CE4829FC0011124885D984F83
:10566000FC01208120FDEFCF4091DD045091DE044C
:105670006091DF047091E004E85BFF4F00811181CD
:1056800022813381401B510B620B730B4093DD046D
:105690005093DE046093DF047093E0042091B70C14
:1056A0002F5F2F702093B40C3091B70C2091B50C64
:1056B000321304C02091B40C2093B50C1F910F91AC
:1056C00008959FDFC0CF2F923F924F925F926F92CB
:1056D0007F928F929F92AF92BF92CF92DF92EF9282
:1056E000FF920F931F93CF93DF93CDB7DEB72C9725
:1056F0000FB6F894DEBF0FBECDBF8FEF9FEF909334
:105700008900809388000AE00983712C612C7894C9
:105710008091470590914805A0914905B0914A05AF
:10572000892B8A2B8B2B09F0ECC180914D058823A6
:10573000D1F080914B0590914C0510924D05892B2D
:1057400091F010924C0510924B0510923E059091ED
:10575000B60C8091B70C981731F08091B70C8F5F21
:105760008F708093B70C80914B0590914C05892BDD
:1057700009F4C7C140914305509144056091450526
:105780007091460580913F0590914005A09141059B
:10579000B09142050091310510E030E020E0841B1B
:1057A000950BA60BB70B081719072A073B0710F430
:1057B000D901C8018E83840F951FA61FB71F809340
:1057C000430590934405A0934505B09346051C8678
:1057D0001B86F1E0C0900905D0900A05E0900B050A
:1057E000F0900C058091190590911A05A0911B0568
:1057F000B0911C05C80ED91EEA1EFB1EC0921905E9
:10580000D0921A05E0921B05F0921C05F7FC33C0FC
:1058100080910005082E000C990BAA0BBB0B409140
:105820005A0550915B0560915C0570915D05840F90
:10583000951FA61FB71F80935A0590935B05A093F1
:105840005C05B0935D058091050590910605A091DA
:105850000705B0910805A7019601281B390B4A0BD3
:105860005B0BDA01C9018093190590931A05A09387
:105870001B05B0931C0500910D0510910E0520919C
:105880000F053091100580911D0590911E05A09186
:105890001F05B0912005080F191F2A1F3B1F0093F9
:1058A0001D0510931E0520931F053093200537FD1D
:1058B00033C040910105042E000C550B660B770B8D
:1058C00080915E0590915F05A0916005B0916105A2
:1058D000840F951FA61FB71F80935E0590935F05E9
:1058E000A0936005B0936105809105059091060530
:1058F000A0910705B0910805B901A801481B590BF3
:105900006A0B7B0BDB01CA0180931D0590931E057A
:10591000A0931F05B09320054091110550911205E9
:1059200060911305709114058091210590912205D5
:10593000A0912305B0912405480F591F6A1F7B1FB2
:10594000409321055093220560932305709324050D
:1059500077FD33C080900205082C000C9908AA0836
:10596000BB088091620590916305A0916405B09198
:105970006505880D991DAA1DBB1D80936205909336
:105980006305A0936405B09365058091050590912A
:105990000605A0910705B09108051A012B01281AE8
:1059A000390A4A0A5B0AD201C1018093210590930A
:1059B0002205A0932305B0932405809015059090AF
:1059C0001605A0901705B0901805809125059091B7
:1059D0002605A0912705B0912805880D991DAA1DBF
:1059E000BB1D8093250590932605A0932705B093B2
:1059F0002805B7FD31C0E09103058E2EEE0F990802
:105A0000AA08BB082090660530906705409068059D
:105A100050906905280C391C4A1C5B1C20926605B5
:105A2000309267054092680550926905809005059F
:105A300090900605A0900705B09008051C012D0167
:105A4000281839084A085B08209225053092260557
:105A50004092270550922805F1110DC0E091840075
:105A6000F09185004F014B845C8484189508E2E036
:105A70008E16910498F3F7FE889A37FF8E9A77FD79
:105A800006C0F0910B01F095F870F0930901B7FD95
:105A900005C0F0910405F111A5C0149A209084006E
:105AA000309085003C862B86A0908400B0908500C5
:105AB0004B845C84A418B508E2E0AE16B104A0F3F0
:105AC000F7FE889837FF8E9877FD05C020910B016F
:105AD000287020930901B7FD05C08091040581114C
